{
  "contractName": "AdvisorContract",
  "abi": [
    {
      "inputs": [
        {
          "internalType": "address",
          "name": "userContractAddress",
          "type": "address"
        }
      ],
      "stateMutability": "nonpayable",
      "type": "constructor"
    },
    {
      "inputs": [],
      "name": "advisorsCount",
      "outputs": [
        {
          "internalType": "uint256",
          "name": "",
          "type": "uint256"
        }
      ],
      "stateMutability": "view",
      "type": "function"
    },
    {
      "inputs": [
        {
          "internalType": "string",
          "name": "name",
          "type": "string"
        },
        {
          "internalType": "string",
          "name": "document",
          "type": "string"
        },
        {
          "internalType": "string",
          "name": "documentType",
          "type": "string"
        },
        {
          "internalType": "string",
          "name": "country",
          "type": "string"
        },
        {
          "internalType": "string",
          "name": "state",
          "type": "string"
        },
        {
          "internalType": "string",
          "name": "city",
          "type": "string"
        },
        {
          "internalType": "string",
          "name": "cep",
          "type": "string"
        }
      ],
      "name": "addAdvisor",
      "outputs": [
        {
          "components": [
            {
              "internalType": "uint256",
              "name": "id",
              "type": "uint256"
            },
            {
              "internalType": "address",
              "name": "advisorWallet",
              "type": "address"
            },
            {
              "internalType": "enum UserType",
              "name": "userType",
              "type": "uint8"
            },
            {
              "internalType": "string",
              "name": "name",
              "type": "string"
            },
            {
              "internalType": "string",
              "name": "document",
              "type": "string"
            },
            {
              "internalType": "string",
              "name": "documentType",
              "type": "string"
            },
            {
              "components": [
                {
                  "internalType": "string",
                  "name": "country",
                  "type": "string"
                },
                {
                  "internalType": "string",
                  "name": "state",
                  "type": "string"
                },
                {
                  "internalType": "string",
                  "name": "city",
                  "type": "string"
                },
                {
                  "internalType": "string",
                  "name": "cep",
                  "type": "string"
                }
              ],
              "internalType": "struct AdvisorAddress",
              "name": "advisorAddress",
              "type": "tuple"
            }
          ],
          "internalType": "struct Advisor",
          "name": "",
          "type": "tuple"
        }
      ],
      "stateMutability": "nonpayable",
      "type": "function"
    },
    {
      "inputs": [],
      "name": "getAdvisors",
      "outputs": [
        {
          "components": [
            {
              "internalType": "uint256",
              "name": "id",
              "type": "uint256"
            },
            {
              "internalType": "address",
              "name": "advisorWallet",
              "type": "address"
            },
            {
              "internalType": "enum UserType",
              "name": "userType",
              "type": "uint8"
            },
            {
              "internalType": "string",
              "name": "name",
              "type": "string"
            },
            {
              "internalType": "string",
              "name": "document",
              "type": "string"
            },
            {
              "internalType": "string",
              "name": "documentType",
              "type": "string"
            },
            {
              "components": [
                {
                  "internalType": "string",
                  "name": "country",
                  "type": "string"
                },
                {
                  "internalType": "string",
                  "name": "state",
                  "type": "string"
                },
                {
                  "internalType": "string",
                  "name": "city",
                  "type": "string"
                },
                {
                  "internalType": "string",
                  "name": "cep",
                  "type": "string"
                }
              ],
              "internalType": "struct AdvisorAddress",
              "name": "advisorAddress",
              "type": "tuple"
            }
          ],
          "internalType": "struct Advisor[]",
          "name": "",
          "type": "tuple[]"
        }
      ],
      "stateMutability": "view",
      "type": "function"
    },
    {
      "inputs": [
        {
          "internalType": "address",
          "name": "addr",
          "type": "address"
        }
      ],
      "name": "getAdvisor",
      "outputs": [
        {
          "components": [
            {
              "internalType": "uint256",
              "name": "id",
              "type": "uint256"
            },
            {
              "internalType": "address",
              "name": "advisorWallet",
              "type": "address"
            },
            {
              "internalType": "enum UserType",
              "name": "userType",
              "type": "uint8"
            },
            {
              "internalType": "string",
              "name": "name",
              "type": "string"
            },
            {
              "internalType": "string",
              "name": "document",
              "type": "string"
            },
            {
              "internalType": "string",
              "name": "documentType",
              "type": "string"
            },
            {
              "components": [
                {
                  "internalType": "string",
                  "name": "country",
                  "type": "string"
                },
                {
                  "internalType": "string",
                  "name": "state",
                  "type": "string"
                },
                {
                  "internalType": "string",
                  "name": "city",
                  "type": "string"
                },
                {
                  "internalType": "string",
                  "name": "cep",
                  "type": "string"
                }
              ],
              "internalType": "struct AdvisorAddress",
              "name": "advisorAddress",
              "type": "tuple"
            }
          ],
          "internalType": "struct Advisor",
          "name": "",
          "type": "tuple"
        }
      ],
      "stateMutability": "view",
      "type": "function"
    },
    {
      "inputs": [
        {
          "internalType": "address",
          "name": "addr",
          "type": "address"
        }
      ],
      "name": "advisorExists",
      "outputs": [
        {
          "internalType": "bool",
          "name": "",
          "type": "bool"
        }
      ],
      "stateMutability": "view",
      "type": "function"
    }
  ],
  "bytecode": "0x60806040523480156200001157600080fd5b5060405162001d7838038062001d78833981810160405281019062000037919062000096565b80600160006101000a81548173ffffffffffffffffffffffffffffffffffffffff021916908373ffffffffffffffffffffffffffffffffffffffff1602179055505062000110565b6000815190506200009081620000f6565b92915050565b600060208284031215620000a957600080fd5b6000620000b9848285016200007f565b91505092915050565b6000620000cf82620000d6565b9050919050565b600073ffffffffffffffffffffffffffffffffffffffff82169050919050565b6200010181620000c2565b81146200010d57600080fd5b50565b611c5880620001206000396000f3fe608060405234801561001057600080fd5b50600436106100575760003560e01c80630b6f2df81461005c578063a35f386c1461007a578063a8910e10146100aa578063ebae530f146100c8578063fdc140de146100f8575b600080fd5b610064610128565b60405161007191906117fa565b60405180910390f35b610094600480360381019061008f9190611363565b6107c2565b6040516100a19190611857565b60405180910390f35b6100b2610bb1565b6040516100bf9190611879565b60405180910390f35b6100e260048036038101906100dd919061133a565b610bb7565b6040516100ef9190611857565b60405180910390f35b610112600480360381019061010d919061133a565b611108565b60405161011f919061181c565b60405180910390f35b6060600060035467ffffffffffffffff81111561016e577f4e487b7100000000000000000000000000000000000000000000000000000000600052604160045260246000fd5b6040519080825280602002602001820160405280156101a757816020015b610194611161565b81526020019060019003908161018c5790505b50905060005b6003548110156107ba576000600282815481106101f3577f4e487b7100000000000000000000000000000000000000000000000000000000600052603260045260246000fd5b9060005260206000200160009054906101000a900473ffffffffffffffffffffffffffffffffffffffff1690506000808273ffffffffffffffffffffffffffffffffffffffff1673ffffffffffffffffffffffffffffffffffffffff1681526020019081526020016000206040518060e0016040529081600082015481526020016001820160009054906101000a900473ffffffffffffffffffffffffffffffffffffffff1673ffffffffffffffffffffffffffffffffffffffff1673ffffffffffffffffffffffffffffffffffffffff1681526020016001820160149054906101000a900460ff166007811115610314577f4e487b7100000000000000000000000000000000000000000000000000000000600052602160045260246000fd5b600781111561034c577f4e487b7100000000000000000000000000000000000000000000000000000000600052602160045260246000fd5b815260200160028201805461036090611a55565b80601f016020809104026020016040519081016040528092919081815260200182805461038c90611a55565b80156103d95780601f106103ae576101008083540402835291602001916103d9565b820191906000526020600020905b8154815290600101906020018083116103bc57829003601f168201915b505050505081526020016003820180546103f290611a55565b80601f016020809104026020016040519081016040528092919081815260200182805461041e90611a55565b801561046b5780601f106104405761010080835404028352916020019161046b565b820191906000526020600020905b81548152906001019060200180831161044e57829003601f168201915b5050505050815260200160048201805461048490611a55565b80601f01602080910402602001604051908101604052809291908181526020018280546104b090611a55565b80156104fd5780601f106104d2576101008083540402835291602001916104fd565b820191906000526020600020905b8154815290600101906020018083116104e057829003601f168201915b505050505081526020016005820160405180608001604052908160008201805461052690611a55565b80601f016020809104026020016040519081016040528092919081815260200182805461055290611a55565b801561059f5780601f106105745761010080835404028352916020019161059f565b820191906000526020600020905b81548152906001019060200180831161058257829003601f168201915b505050505081526020016001820180546105b890611a55565b80601f01602080910402602001604051908101604052809291908181526020018280546105e490611a55565b80156106315780601f1061060657610100808354040283529160200191610631565b820191906000526020600020905b81548152906001019060200180831161061457829003601f168201915b5050505050815260200160028201805461064a90611a55565b80601f016020809104026020016040519081016040528092919081815260200182805461067690611a55565b80156106c35780601f10610698576101008083540402835291602001916106c3565b820191906000526020600020905b8154815290600101906020018083116106a657829003601f168201915b505050505081526020016003820180546106dc90611a55565b80601f016020809104026020016040519081016040528092919081815260200182805461070890611a55565b80156107555780601f1061072a57610100808354040283529160200191610755565b820191906000526020600020905b81548152906001019060200180831161073857829003601f168201915b5050505050815250508152505083838151811061079b577f4e487b7100000000000000000000000000000000000000000000000000000000600052603260045260246000fd5b60200260200101819052505080806107b290611ab8565b9150506101ad565b508091505090565b6107ca611161565b6107d333611108565b15610813576040517f08c379a000000000000000000000000000000000000000000000000000000000815260040161080a90611837565b60405180910390fd5b600060016003546108249190611950565b90506000600590506000604051806080016040528089815260200188815260200187815260200186815250905060006040518060e001604052808581526020013373ffffffffffffffffffffffffffffffffffffffff1681526020018460078111156108b9577f4e487b7100000000000000000000000000000000000000000000000000000000600052602160045260246000fd5b81526020018d81526020018c81526020018b8152602001838152509050806000803373ffffffffffffffffffffffffffffffffffffffff1673ffffffffffffffffffffffffffffffffffffffff1681526020019081526020016000206000820151816000015560208201518160010160006101000a81548173ffffffffffffffffffffffffffffffffffffffff021916908373ffffffffffffffffffffffffffffffffffffffff16021790555060408201518160010160146101000a81548160ff021916908360078111156109b7577f4e487b7100000000000000000000000000000000000000000000000000000000600052602160045260246000fd5b021790555060608201518160020190805190602001906109d89291906111f2565b5060808201518160030190805190602001906109f59291906111f2565b5060a0820151816004019080519060200190610a129291906111f2565b5060c0820151816005016000820151816000019080519060200190610a389291906111f2565b506020820151816001019080519060200190610a559291906111f2565b506040820151816002019080519060200190610a729291906111f2565b506060820151816003019080519060200190610a8f9291906111f2565b5050509050506002339080600181540180825580915050600190039060005260206000200160009091909190916101000a81548173ffffffffffffffffffffffffffffffffffffffff021916908373ffffffffffffffffffffffffffffffffffffffff16021790555060036000815480929190610b0b90611ab8565b9190505550600160009054906101000a900473ffffffffffffffffffffffffffffffffffffffff1673ffffffffffffffffffffffffffffffffffffffff16639c3eead933856040518363ffffffff1660e01b8152600401610b6d9291906117d1565b600060405180830381600087803b158015610b8757600080fd5b505af1158015610b9b573d6000803e3d6000fd5b5050505080945050505050979650505050505050565b60035481565b610bbf611161565b6000808373ffffffffffffffffffffffffffffffffffffffff1673ffffffffffffffffffffffffffffffffffffffff1681526020019081526020016000206040518060e0016040529081600082015481526020016001820160009054906101000a900473ffffffffffffffffffffffffffffffffffffffff1673ffffffffffffffffffffffffffffffffffffffff1673ffffffffffffffffffffffffffffffffffffffff1681526020016001820160149054906101000a900460ff166007811115610cb3577f4e487b7100000000000000000000000000000000000000000000000000000000600052602160045260246000fd5b6007811115610ceb577f4e487b7100000000000000000000000000000000000000000000000000000000600052602160045260246000fd5b8152602001600282018054610cff90611a55565b80601f0160208091040260200160405190810160405280929190818152602001828054610d2b90611a55565b8015610d785780601f10610d4d57610100808354040283529160200191610d78565b820191906000526020600020905b815481529060010190602001808311610d5b57829003601f168201915b50505050508152602001600382018054610d9190611a55565b80601f0160208091040260200160405190810160405280929190818152602001828054610dbd90611a55565b8015610e0a5780601f10610ddf57610100808354040283529160200191610e0a565b820191906000526020600020905b815481529060010190602001808311610ded57829003601f168201915b50505050508152602001600482018054610e2390611a55565b80601f0160208091040260200160405190810160405280929190818152602001828054610e4f90611a55565b8015610e9c5780601f10610e7157610100808354040283529160200191610e9c565b820191906000526020600020905b815481529060010190602001808311610e7f57829003601f168201915b5050505050815260200160058201604051806080016040529081600082018054610ec590611a55565b80601f0160208091040260200160405190810160405280929190818152602001828054610ef190611a55565b8015610f3e5780601f10610f1357610100808354040283529160200191610f3e565b820191906000526020600020905b815481529060010190602001808311610f2157829003601f168201915b50505050508152602001600182018054610f5790611a55565b80601f0160208091040260200160405190810160405280929190818152602001828054610f8390611a55565b8015610fd05780601f10610fa557610100808354040283529160200191610fd0565b820191906000526020600020905b815481529060010190602001808311610fb357829003601f168201915b50505050508152602001600282018054610fe990611a55565b80601f016020809104026020016040519081016040528092919081815260200182805461101590611a55565b80156110625780601f1061103757610100808354040283529160200191611062565b820191906000526020600020905b81548152906001019060200180831161104557829003601f168201915b5050505050815260200160038201805461107b90611a55565b80601f01602080910402602001604051908101604052809291908181526020018280546110a790611a55565b80156110f45780601f106110c9576101008083540402835291602001916110f4565b820191906000526020600020905b8154815290600101906020018083116110d757829003601f168201915b505050505081525050815250509050919050565b6000806000808473ffffffffffffffffffffffffffffffffffffffff1673ffffffffffffffffffffffffffffffffffffffff168152602001908152602001600020600201805461115790611a55565b9050119050919050565b6040518060e0016040528060008152602001600073ffffffffffffffffffffffffffffffffffffffff168152602001600060078111156111ca577f4e487b7100000000000000000000000000000000000000000000000000000000600052602160045260246000fd5b81526020016060815260200160608152602001606081526020016111ec611278565b81525090565b8280546111fe90611a55565b90600052602060002090601f0160209004810192826112205760008555611267565b82601f1061123957805160ff1916838001178555611267565b82800160010185558215611267579182015b8281111561126657825182559160200191906001019061124b565b5b50905061127491906112a0565b5090565b6040518060800160405280606081526020016060815260200160608152602001606081525090565b5b808211156112b95760008160009055506001016112a1565b5090565b60006112d06112cb846118b9565b611894565b9050828152602081018484840111156112e857600080fd5b6112f3848285611a13565b509392505050565b60008135905061130a81611c0b565b92915050565b600082601f83011261132157600080fd5b81356113318482602086016112bd565b91505092915050565b60006020828403121561134c57600080fd5b600061135a848285016112fb565b91505092915050565b600080600080600080600060e0888a03121561137e57600080fd5b600088013567ffffffffffffffff81111561139857600080fd5b6113a48a828b01611310565b975050602088013567ffffffffffffffff8111156113c157600080fd5b6113cd8a828b01611310565b965050604088013567ffffffffffffffff8111156113ea57600080fd5b6113f68a828b01611310565b955050606088013567ffffffffffffffff81111561141357600080fd5b61141f8a828b01611310565b945050608088013567ffffffffffffffff81111561143c57600080fd5b6114488a828b01611310565b93505060a088013567ffffffffffffffff81111561146557600080fd5b6114718a828b01611310565b92505060c088013567ffffffffffffffff81111561148e57600080fd5b61149a8a828b01611310565b91505092959891949750929550565b60006114b58383611651565b905092915050565b6114c6816119a6565b82525050565b6114d5816119a6565b82525050565b60006114e6826118fa565b6114f0818561191d565b935083602082028501611502856118ea565b8060005b8581101561153e578484038952815161151f85826114a9565b945061152a83611910565b925060208a01995050600181019050611506565b50829750879550505050505092915050565b611559816119b8565b82525050565b61156881611a01565b82525050565b61157781611a01565b82525050565b600061158882611905565b611592818561192e565b93506115a2818560208601611a22565b6115ab81611bbd565b840191505092915050565b60006115c3601a8361193f565b91506115ce82611bce565b602082019050919050565b600060808301600083015184820360008601526115f6828261157d565b91505060208301518482036020860152611610828261157d565b9150506040830151848203604086015261162a828261157d565b91505060608301518482036060860152611644828261157d565b9150508091505092915050565b600060e08301600083015161166960008601826117b3565b50602083015161167c60208601826114bd565b50604083015161168f604086018261155f565b50606083015184820360608601526116a7828261157d565b915050608083015184820360808601526116c1828261157d565b91505060a083015184820360a08601526116db828261157d565b91505060c083015184820360c08601526116f582826115d9565b9150508091505092915050565b600060e08301600083015161171a60008601826117b3565b50602083015161172d60208601826114bd565b506040830151611740604086018261155f565b5060608301518482036060860152611758828261157d565b91505060808301518482036080860152611772828261157d565b91505060a083015184820360a086015261178c828261157d565b91505060c083015184820360c08601526117a682826115d9565b9150508091505092915050565b6117bc816119f7565b82525050565b6117cb816119f7565b82525050565b60006040820190506117e660008301856114cc565b6117f3602083018461156e565b9392505050565b6000602082019050818103600083015261181481846114db565b905092915050565b60006020820190506118316000830184611550565b92915050565b60006020820190508181036000830152611850816115b6565b9050919050565b600060208201905081810360008301526118718184611702565b905092915050565b600060208201905061188e60008301846117c2565b92915050565b600061189e6118af565b90506118aa8282611a87565b919050565b6000604051905090565b600067ffffffffffffffff8211156118d4576118d3611b8e565b5b6118dd82611bbd565b9050602081019050919050565b6000819050602082019050919050565b600081519050919050565b600081519050919050565b6000602082019050919050565b600082825260208201905092915050565b600082825260208201905092915050565b600082825260208201905092915050565b600061195b826119f7565b9150611966836119f7565b9250827fffffffffffffffffffffffffffffffffffffffffffffffffffffffffffffffff0382111561199b5761199a611b01565b5b828201905092915050565b60006119b1826119d7565b9050919050565b60008115159050919050565b60008190506119d282611bf7565b919050565b600073ffffffffffffffffffffffffffffffffffffffff82169050919050565b6000819050919050565b6000611a0c826119c4565b9050919050565b82818337600083830152505050565b60005b83811015611a40578082015181840152602081019050611a25565b83811115611a4f576000848401525b50505050565b60006002820490506001821680611a6d57607f821691505b60208210811415611a8157611a80611b5f565b5b50919050565b611a9082611bbd565b810181811067ffffffffffffffff82111715611aaf57611aae611b8e565b5b80604052505050565b6000611ac3826119f7565b91507fffffffffffffffffffffffffffffffffffffffffffffffffffffffffffffffff821415611af657611af5611b01565b5b600182019050919050565b7f4e487b7100000000000000000000000000000000000000000000000000000000600052601160045260246000fd5b7f4e487b7100000000000000000000000000000000000000000000000000000000600052602160045260246000fd5b7f4e487b7100000000000000000000000000000000000000000000000000000000600052602260045260246000fd5b7f4e487b7100000000000000000000000000000000000000000000000000000000600052604160045260246000fd5b6000601f19601f8301169050919050565b7f546869732061647669736f7220616c7265616479206578697374000000000000600082015250565b60088110611c0857611c07611b30565b5b50565b611c14816119a6565b8114611c1f57600080fd5b5056fea2646970667358221220990aeefd32ba25db903c5860bc1b31838a46117d5c6b56b5909208e790c5bff064736f6c63430008020033",
  "immutableReferences": {},
  "source": "// SPDX-License-Identifier: GPL-3.0\r\npragma solidity >=0.7.0 <=0.9.0;\r\n\r\nimport \"./UserContract.sol\";\r\nimport \"./types/AdvisorTypes.sol\";\r\n\r\ncontract AdvisorContract {\r\n  mapping(address => Advisor) internal advisors;\r\n\r\n  UserContract internal userContract;\r\n  address[] internal advisorsAddress;\r\n  uint256 public advisorsCount;\r\n\r\n  constructor(address userContractAddress) {\r\n    userContract = UserContract(userContractAddress);\r\n  }\r\n\r\n  /**\r\n   * @dev Allow a new register of advisor\r\n   * @param name the name of the advisor\r\n   * @param document the document of advisor\r\n   * @param documentType the document type type of advisor. CPF/CNPJ\r\n   * @param country the country where the advisor is\r\n   * @param state the state of the advisor\r\n   * @param city the of the advisor\r\n   * @param cep the cep of the advisor\r\n   * @return a Advisor\r\n   */\r\n  function addAdvisor(\r\n    string memory name,\r\n    string memory document,\r\n    string memory documentType,\r\n    string memory country,\r\n    string memory state,\r\n    string memory city,\r\n    string memory cep\r\n  ) public uniqueAdvisor returns (Advisor memory) {\r\n    uint256 id = advisorsCount + 1;\r\n    UserType userType = UserType.ADVISOR;\r\n\r\n    AdvisorAddress memory advisorAddress = AdvisorAddress(country, state, city, cep);\r\n\r\n    Advisor memory advisor = Advisor(\r\n      id,\r\n      msg.sender,\r\n      userType,\r\n      name,\r\n      document,\r\n      documentType,\r\n      advisorAddress\r\n    );\r\n\r\n    advisors[msg.sender] = advisor;\r\n    advisorsAddress.push(msg.sender);\r\n    advisorsCount++;\r\n    userContract.addUser(msg.sender, userType);\r\n\r\n    return advisor;\r\n  }\r\n\r\n  /**\r\n   * @dev Returns all registered advisors\r\n   * @return Advisor struct array\r\n   */\r\n  function getAdvisors() public view returns (Advisor[] memory) {\r\n    Advisor[] memory advisorList = new Advisor[](advisorsCount);\r\n\r\n    for (uint256 i = 0; i < advisorsCount; i++) {\r\n      address acAddress = advisorsAddress[i];\r\n      advisorList[i] = advisors[acAddress];\r\n    }\r\n\r\n    return advisorList;\r\n  }\r\n\r\n  /**\r\n   * @dev Return a specific advisor\r\n   * @param addr the address of the advisor.\r\n   */\r\n  function getAdvisor(address addr) public view returns (Advisor memory) {\r\n    return advisors[addr];\r\n  }\r\n\r\n  /**\r\n   * @dev Check if a specific advisor exists\r\n   * @return a bool that represent if a advisor exists or not\r\n   */\r\n  function advisorExists(address addr) public view returns (bool) {\r\n    return bytes(advisors[addr].name).length > 0;\r\n  }\r\n\r\n  // MODIFIERS\r\n\r\n  modifier uniqueAdvisor() {\r\n    require(!advisorExists(msg.sender), \"This advisor already exist\");\r\n    _;\r\n  }\r\n}\r\n",
  "sourcePath": "C:\\Users\\bruno.mestres\\Desktop\\core-contracts\\contracts\\AdvisorContract.sol",
  "compiler": {
    "name": "solc",
    "version": "0.8.2+commit.661d1103.Emscripten.clang"
  },
  "schemaVersion": "3.4.8",
  "updatedAt": "2022-07-28T12:00:54.315Z",
  "devdoc": {
    "kind": "dev",
    "methods": {
      "addAdvisor(string,string,string,string,string,string,string)": {
        "details": "Allow a new register of advisor",
        "params": {
          "cep": "the cep of the advisor",
          "city": "the of the advisor",
          "country": "the country where the advisor is",
          "document": "the document of advisor",
          "documentType": "the document type type of advisor. CPF/CNPJ",
          "name": "the name of the advisor",
          "state": "the state of the advisor"
        },
        "returns": {
          "_0": "a Advisor"
        }
      },
      "advisorExists(address)": {
        "details": "Check if a specific advisor exists",
        "returns": {
          "_0": "a bool that represent if a advisor exists or not"
        }
      },
      "getAdvisor(address)": {
        "details": "Return a specific advisor",
        "params": {
          "addr": "the address of the advisor."
        }
      },
      "getAdvisors()": {
        "details": "Returns all registered advisors",
        "returns": {
          "_0": "Advisor struct array"
        }
      }
    },
    "version": 1
  },
  "userdoc": {
    "kind": "user",
    "methods": {},
    "version": 1
  }
}