{
  "contractName": "Blockable",
  "abi": [
    {
      "inputs": [
        {
          "internalType": "uint256",
          "name": "_blocksPerEra",
          "type": "uint256"
        },
        {
          "internalType": "uint256",
          "name": "_eraMax",
          "type": "uint256"
        }
      ],
      "stateMutability": "nonpayable",
      "type": "constructor"
    },
    {
      "inputs": [],
      "name": "BLOCKS_PRECISION",
      "outputs": [
        {
          "internalType": "uint256",
          "name": "",
          "type": "uint256"
        }
      ],
      "stateMutability": "view",
      "type": "function"
    },
    {
      "inputs": [],
      "name": "blocksPerEra",
      "outputs": [
        {
          "internalType": "uint256",
          "name": "",
          "type": "uint256"
        }
      ],
      "stateMutability": "view",
      "type": "function"
    },
    {
      "inputs": [],
      "name": "deployedAt",
      "outputs": [
        {
          "internalType": "uint256",
          "name": "",
          "type": "uint256"
        }
      ],
      "stateMutability": "view",
      "type": "function"
    },
    {
      "inputs": [],
      "name": "eraMax",
      "outputs": [
        {
          "internalType": "uint256",
          "name": "",
          "type": "uint256"
        }
      ],
      "stateMutability": "view",
      "type": "function"
    },
    {
      "inputs": [
        {
          "internalType": "uint256",
          "name": "currentUserEra",
          "type": "uint256"
        }
      ],
      "name": "canApprove",
      "outputs": [
        {
          "internalType": "bool",
          "name": "",
          "type": "bool"
        }
      ],
      "stateMutability": "view",
      "type": "function"
    },
    {
      "inputs": [],
      "name": "currentContractEra",
      "outputs": [
        {
          "internalType": "uint256",
          "name": "",
          "type": "uint256"
        }
      ],
      "stateMutability": "view",
      "type": "function"
    },
    {
      "inputs": [
        {
          "internalType": "uint256",
          "name": "currentUserEra",
          "type": "uint256"
        }
      ],
      "name": "nextApproveIn",
      "outputs": [
        {
          "internalType": "int256",
          "name": "",
          "type": "int256"
        }
      ],
      "stateMutability": "view",
      "type": "function"
    },
    {
      "inputs": [
        {
          "internalType": "uint256",
          "name": "currentUserEra",
          "type": "uint256"
        }
      ],
      "name": "canApproveTimes",
      "outputs": [
        {
          "internalType": "uint256",
          "name": "",
          "type": "uint256"
        }
      ],
      "stateMutability": "view",
      "type": "function"
    }
  ],
  "bytecode": "0x608060405234801561001057600080fd5b50604051610aca380380610aca83398181016040528101906100329190610078565b816000819055508060028190555061004e61005b60201b60201c565b60018190555050506100d5565b600043905090565b600081519050610072816100be565b92915050565b6000806040838503121561008b57600080fd5b600061009985828601610063565b92505060206100aa85828601610063565b9150509250929050565b6000819050919050565b6100c7816100b4565b81146100d257600080fd5b50565b6109e6806100e46000396000f3fe608060405234801561001057600080fd5b50600436106100885760003560e01c8063ccf76e0d1161005b578063ccf76e0d14610117578063eae4c19f14610147578063ed0df79e14610165578063fc3dad721461018357610088565b80630fd07d981461008d5780632c39c100146100ab578063861b4ce1146100db57806396831f6c146100f9575b600080fd5b6100956101b3565b6040516100a291906103e5565b60405180910390f35b6100c560048036038101906100c09190610359565b6101b9565b6040516100d291906103e5565b60405180910390f35b6100e3610220565b6040516100f091906103e5565b60405180910390f35b610101610225565b60405161010e91906103e5565b60405180910390f35b610131600480360381019061012c9190610359565b61022b565b60405161013e91906103ca565b60405180910390f35b61014f610261565b60405161015c91906103e5565b60405180910390f35b61016d610267565b60405161017a91906103e5565b60405180910390f35b61019d60048036038101906101989190610359565b6102b1565b6040516101aa91906103af565b60405180910390f35b60005481565b6000806101c58361022b565b905060008113156101da57600091505061021b565b6102176000546102096005600a6101f1919061056e565b846101fb906108e5565b6102d590919063ffffffff16565b6102eb90919063ffffffff16565b9150505b919050565b600581565b60025481565b6000610235610301565b82600054610243919061068c565b6001546102509190610400565b61025a91906107fd565b9050919050565b60015481565b60006102ac600161029e600054610290600154610282610301565b61030990919063ffffffff16565b6102eb90919063ffffffff16565b61031f90919063ffffffff16565b905090565b60006102bb610267565b821080156102ce57506102cd82610335565b5b9050919050565b600081836102e391906107a3565b905092915050565b600081836102f991906104ea565b905092915050565b600043905090565b600081836103179190610891565b905092915050565b6000818361032d9190610494565b905092915050565b60006002548211159050919050565b60008135905061035381610999565b92915050565b60006020828403121561036b57600080fd5b600061037984828501610344565b91505092915050565b61038b816108c5565b82525050565b61039a816108d1565b82525050565b6103a9816108db565b82525050565b60006020820190506103c46000830184610382565b92915050565b60006020820190506103df6000830184610391565b92915050565b60006020820190506103fa60008301846103a0565b92915050565b600061040b826108d1565b9150610416836108d1565b9250817f7fffffffffffffffffffffffffffffffffffffffffffffffffffffffffffffff038313600083121516156104515761045061092e565b5b817f80000000000000000000000000000000000000000000000000000000000000000383126000831216156104895761048861092e565b5b828201905092915050565b600061049f826108db565b91506104aa836108db565b9250827fffffffffffffffffffffffffffffffffffffffffffffffffffffffffffffffff038211156104df576104de61092e565b5b828201905092915050565b60006104f5826108db565b9150610500836108db565b9250826105105761050f61095d565b5b828204905092915050565b6000808291508390505b6001851115610565578086048111156105415761054061092e565b5b60018516156105505780820291505b808102905061055e8561098c565b9450610525565b94509492505050565b6000610579826108db565b9150610584836108db565b92506105b17fffffffffffffffffffffffffffffffffffffffffffffffffffffffffffffffff84846105b9565b905092915050565b6000826105c95760019050610685565b816105d75760009050610685565b81600181146105ed57600281146105f757610626565b6001915050610685565b60ff8411156106095761060861092e565b5b8360020a9150848211156106205761061f61092e565b5b50610685565b5060208310610133831016604e8410600b841016171561065b5782820a9050838111156106565761065561092e565b5b610685565b610668848484600161051b565b9250905081840481111561067f5761067e61092e565b5b81810290505b9392505050565b6000610697826108d1565b91506106a2836108d1565b9250827f7fffffffffffffffffffffffffffffffffffffffffffffffffffffffffffffff04821160008413600084131616156106e1576106e061092e565b5b817f8000000000000000000000000000000000000000000000000000000000000000058312600084126000841316161561071e5761071d61092e565b5b827f8000000000000000000000000000000000000000000000000000000000000000058212600084136000841216161561075b5761075a61092e565b5b827f7fffffffffffffffffffffffffffffffffffffffffffffffffffffffffffffff05821260008412600084121616156107985761079761092e565b5b828202905092915050565b60006107ae826108db565b91506107b9836108db565b9250817fffffffffffffffffffffffffffffffffffffffffffffffffffffffffffffffff04831182151516156107f2576107f161092e565b5b828202905092915050565b6000610808826108d1565b9150610813836108d1565b9250827f80000000000000000000000000000000000000000000000000000000000000000182126000841215161561084e5761084d61092e565b5b827f7fffffffffffffffffffffffffffffffffffffffffffffffffffffffffffffff0182136000841216156108865761088561092e565b5b828203905092915050565b600061089c826108db565b91506108a7836108db565b9250828210156108ba576108b961092e565b5b828203905092915050565b60008115159050919050565b6000819050919050565b6000819050919050565b60006108f0826108d1565b91507f80000000000000000000000000000000000000000000000000000000000000008214156109235761092261092e565b5b816000039050919050565b7f4e487b7100000000000000000000000000000000000000000000000000000000600052601160045260246000fd5b7f4e487b7100000000000000000000000000000000000000000000000000000000600052601260045260246000fd5b60008160011c9050919050565b6109a2816108db565b81146109ad57600080fd5b5056fea26469706673582212202ebfbbf2aa84862bf91fb1fb52d5d185ee612d746e8d91737f29e8a83d49fb1664736f6c63430008020033",
  "immutableReferences": {},
  "source": "// SPDX-License-Identifier: GPL-3.0\r\npragma solidity >=0.7.0 <=0.9.0;\r\n\r\nimport \"@openzeppelin/contracts/utils/math/SafeMath.sol\";\r\n\r\n/**\r\n * @author Sintrop\r\n * @title Blockable\r\n * @dev Blockable is a contract to manage blocks eras\r\n */\r\ncontract Blockable {\r\n  using SafeMath for uint256;\r\n\r\n  uint256 public constant BLOCKS_PRECISION = 5;\r\n\r\n  uint256 public blocksPerEra;\r\n  uint256 public deployedAt;\r\n  uint256 public eraMax;\r\n\r\n  constructor(uint256 _blocksPerEra, uint256 _eraMax) {\r\n    blocksPerEra = _blocksPerEra;\r\n    eraMax = _eraMax;\r\n    deployedAt = currentBlockNumber();\r\n  }\r\n\r\n  function canApprove(uint256 currentUserEra) public view returns (bool) {\r\n    return currentUserEra < currentContractEra() && validEra(currentUserEra);\r\n  }\r\n\r\n  function currentContractEra() public view returns (uint256) {\r\n    return currentBlockNumber().sub(deployedAt).div(blocksPerEra).add(1);\r\n  }\r\n\r\n  function nextApproveIn(uint256 currentUserEra) public view returns (int256) {\r\n    return\r\n      int256(deployedAt) +\r\n      (int256(blocksPerEra) * int256(currentUserEra)) -\r\n      int256(currentBlockNumber());\r\n  }\r\n\r\n  function canApproveTimes(uint256 currentUserEra) public view returns (uint256) {\r\n    int256 approvesTimes = nextApproveIn(currentUserEra);\r\n\r\n    if (approvesTimes > 0) return 0;\r\n\r\n    return uint256(-approvesTimes).mul(10**BLOCKS_PRECISION).div(blocksPerEra);\r\n  }\r\n\r\n  // PRIVATE FUNCTIONS\r\n\r\n  function validEra(uint256 currentEra) internal view returns (bool) {\r\n    return currentEra <= eraMax;\r\n  }\r\n\r\n  function currentUserBlockNumber(uint256 currentUserEra) internal view returns (uint256) {\r\n    return deployedAt.add(blocksPerEra.mul(currentUserEra));\r\n  }\r\n\r\n  function currentBlockNumber() internal view returns (uint256) {\r\n    return block.number;\r\n  }\r\n}\r\n",
  "sourcePath": "C:\\Users\\emano\\Documents\\Sintrop\\core-contracts\\contracts\\Blockable.sol",
  "compiler": {
    "name": "solc",
    "version": "0.8.2+commit.661d1103.Emscripten.clang"
  },
  "schemaVersion": "3.4.7",
  "updatedAt": "2022-06-29T23:40:02.923Z",
  "devdoc": {
    "author": "Sintrop",
    "details": "Blockable is a contract to manage blocks eras",
    "kind": "dev",
    "methods": {},
    "title": "Blockable",
    "version": 1
  },
  "userdoc": {
    "kind": "user",
    "methods": {},
    "version": 1
  }
}