{
  "contractName": "DeveloperPool",
  "abi": [
    {
      "inputs": [
        {
          "internalType": "address",
          "name": "_sacTokenAddress",
          "type": "address"
        },
        {
          "internalType": "uint256",
          "name": "_tokensPerEra",
          "type": "uint256"
        },
        {
          "internalType": "uint256",
          "name": "_blocksPerEra",
          "type": "uint256"
        },
        {
          "internalType": "uint256",
          "name": "_eraMax",
          "type": "uint256"
        }
      ],
      "stateMutability": "nonpayable",
      "type": "constructor"
    },
    {
      "anonymous": false,
      "inputs": [
        {
          "indexed": true,
          "internalType": "address",
          "name": "previousOwner",
          "type": "address"
        },
        {
          "indexed": true,
          "internalType": "address",
          "name": "newOwner",
          "type": "address"
        }
      ],
      "name": "OwnershipTransferred",
      "type": "event"
    },
    {
      "inputs": [],
      "name": "BLOCKS_PRECISION",
      "outputs": [
        {
          "internalType": "uint256",
          "name": "",
          "type": "uint256"
        }
      ],
      "stateMutability": "view",
      "type": "function",
      "constant": true
    },
    {
      "inputs": [],
      "name": "blocksPerEra",
      "outputs": [
        {
          "internalType": "uint256",
          "name": "",
          "type": "uint256"
        }
      ],
      "stateMutability": "view",
      "type": "function",
      "constant": true
    },
    {
      "inputs": [],
      "name": "deployedAt",
      "outputs": [
        {
          "internalType": "uint256",
          "name": "",
          "type": "uint256"
        }
      ],
      "stateMutability": "view",
      "type": "function",
      "constant": true
    },
    {
      "inputs": [],
      "name": "developersCount",
      "outputs": [
        {
          "internalType": "uint256",
          "name": "",
          "type": "uint256"
        }
      ],
      "stateMutability": "view",
      "type": "function",
      "constant": true
    },
    {
      "inputs": [],
      "name": "eraMax",
      "outputs": [
        {
          "internalType": "uint256",
          "name": "",
          "type": "uint256"
        }
      ],
      "stateMutability": "view",
      "type": "function",
      "constant": true
    },
    {
      "inputs": [
        {
          "internalType": "uint256",
          "name": "",
          "type": "uint256"
        }
      ],
      "name": "eras",
      "outputs": [
        {
          "internalType": "uint256",
          "name": "era",
          "type": "uint256"
        },
        {
          "internalType": "uint256",
          "name": "tokens",
          "type": "uint256"
        },
        {
          "internalType": "uint256",
          "name": "developers",
          "type": "uint256"
        }
      ],
      "stateMutability": "view",
      "type": "function",
      "constant": true
    },
    {
      "inputs": [
        {
          "internalType": "uint256",
          "name": "",
          "type": "uint256"
        }
      ],
      "name": "levelsSumPerEra",
      "outputs": [
        {
          "internalType": "uint256",
          "name": "",
          "type": "uint256"
        }
      ],
      "stateMutability": "view",
      "type": "function",
      "constant": true
    },
    {
      "inputs": [],
      "name": "owner",
      "outputs": [
        {
          "internalType": "address",
          "name": "",
          "type": "address"
        }
      ],
      "stateMutability": "view",
      "type": "function",
      "constant": true
    },
    {
      "inputs": [],
      "name": "renounceOwnership",
      "outputs": [],
      "stateMutability": "nonpayable",
      "type": "function"
    },
    {
      "inputs": [],
      "name": "tokensPerEra",
      "outputs": [
        {
          "internalType": "uint256",
          "name": "",
          "type": "uint256"
        }
      ],
      "stateMutability": "view",
      "type": "function",
      "constant": true
    },
    {
      "inputs": [
        {
          "internalType": "address",
          "name": "newOwner",
          "type": "address"
        }
      ],
      "name": "transferOwnership",
      "outputs": [],
      "stateMutability": "nonpayable",
      "type": "function"
    },
    {
      "inputs": [
        {
          "internalType": "address",
          "name": "_address",
          "type": "address"
        }
      ],
      "name": "getDeveloper",
      "outputs": [
        {
          "components": [
            {
              "internalType": "address",
              "name": "_address",
              "type": "address"
            },
            {
              "internalType": "uint256",
              "name": "level",
              "type": "uint256"
            },
            {
              "internalType": "uint256",
              "name": "currentEra",
              "type": "uint256"
            },
            {
              "internalType": "uint256",
              "name": "createdAt",
              "type": "uint256"
            }
          ],
          "internalType": "struct Developer",
          "name": "",
          "type": "tuple"
        }
      ],
      "stateMutability": "view",
      "type": "function",
      "constant": true
    },
    {
      "inputs": [],
      "name": "getDevelopersAddress",
      "outputs": [
        {
          "internalType": "address[]",
          "name": "",
          "type": "address[]"
        }
      ],
      "stateMutability": "view",
      "type": "function",
      "constant": true
    },
    {
      "inputs": [
        {
          "internalType": "address",
          "name": "_address",
          "type": "address"
        }
      ],
      "name": "addDeveloper",
      "outputs": [],
      "stateMutability": "nonpayable",
      "type": "function"
    },
    {
      "inputs": [],
      "name": "currentContractEra",
      "outputs": [
        {
          "internalType": "uint256",
          "name": "",
          "type": "uint256"
        }
      ],
      "stateMutability": "view",
      "type": "function",
      "constant": true
    },
    {
      "inputs": [
        {
          "internalType": "address",
          "name": "_address",
          "type": "address"
        }
      ],
      "name": "addLevel",
      "outputs": [],
      "stateMutability": "nonpayable",
      "type": "function"
    },
    {
      "inputs": [
        {
          "internalType": "address",
          "name": "_address",
          "type": "address"
        }
      ],
      "name": "undoLevel",
      "outputs": [],
      "stateMutability": "nonpayable",
      "type": "function"
    },
    {
      "inputs": [],
      "name": "approve",
      "outputs": [
        {
          "internalType": "bool",
          "name": "",
          "type": "bool"
        }
      ],
      "stateMutability": "nonpayable",
      "type": "function"
    },
    {
      "inputs": [],
      "name": "withDraw",
      "outputs": [
        {
          "internalType": "bool",
          "name": "",
          "type": "bool"
        }
      ],
      "stateMutability": "nonpayable",
      "type": "function"
    },
    {
      "inputs": [],
      "name": "allowance",
      "outputs": [
        {
          "internalType": "uint256",
          "name": "",
          "type": "uint256"
        }
      ],
      "stateMutability": "view",
      "type": "function",
      "constant": true
    },
    {
      "inputs": [],
      "name": "nextApproveTime",
      "outputs": [
        {
          "internalType": "int256",
          "name": "",
          "type": "int256"
        }
      ],
      "stateMutability": "view",
      "type": "function",
      "constant": true
    },
    {
      "inputs": [],
      "name": "canApproveTimes",
      "outputs": [
        {
          "internalType": "uint256",
          "name": "",
          "type": "uint256"
        }
      ],
      "stateMutability": "view",
      "type": "function",
      "constant": true
    }
  ],
  "bytecode": "0x60806040523480156200001157600080fd5b50604051620023ff380380620023ff833981810160405281019062000037919062000208565b620000576200004b620000ee60201b60201c565b620000f660201b60201c565b83601b60006101000a81548173ffffffffffffffffffffffffffffffffffffffff021916908373ffffffffffffffffffffffffffffffffffffffff160217905550620000a8620001ba60201b60201c565b601781905550620000d0670de0b6b3a764000084620001c260201b62000ee91790919060201c565b6018819055508160198190555080601a819055505050505062000376565b600033905090565b60008060009054906101000a900473ffffffffffffffffffffffffffffffffffffffff169050816000806101000a81548173ffffffffffffffffffffffffffffffffffffffff021916908373ffffffffffffffffffffffffffffffffffffffff1602179055508173ffffffffffffffffffffffffffffffffffffffff168173ffffffffffffffffffffffffffffffffffffffff167f8be0079c531659141344cd1fd0a4f28419497f9722a3daafe3b4186f6b6457e060405160405180910390a35050565b600043905090565b60008183620001d2919062000274565b905092915050565b600081519050620001eb8162000342565b92915050565b60008151905062000202816200035c565b92915050565b600080600080608085870312156200021f57600080fd5b60006200022f87828801620001da565b94505060206200024287828801620001f1565b93505060406200025587828801620001f1565b92505060606200026887828801620001f1565b91505092959194509250565b6000620002818262000309565b91506200028e8362000309565b9250817fffffffffffffffffffffffffffffffffffffffffffffffffffffffffffffffff0483118215151615620002ca57620002c962000313565b5b828202905092915050565b6000620002e282620002e9565b9050919050565b600073ffffffffffffffffffffffffffffffffffffffff82169050919050565b6000819050919050565b7f4e487b7100000000000000000000000000000000000000000000000000000000600052601160045260246000fd5b6200034d81620002d5565b81146200035957600080fd5b50565b620003678162000309565b81146200037357600080fd5b50565b61207980620003866000396000f3fe608060405234801561001057600080fd5b50600436106101425760003560e01c80638da5cb5b116100b8578063d32ae64b1161007c578063d32ae64b14610345578063de242ff414610363578063eae4c19f14610381578063ed0df79e1461039f578063f1272b6a146103bd578063f2fde38b146103db57610142565b80638da5cb5b146102b35780638ff9b8ac146102d157806396831f6c146102ed578063b4897e171461030b578063c3cca0cc1461032957610142565b806322fbf1e81161010a57806322fbf1e8146101ef57806367e13ee01461020b578063715018a61461023b578063720a70bd14610245578063757dbe2b14610277578063861b4ce11461029557610142565b80630fd07d98146101475780630fdb1c101461016557806311d64d4a1461018357806312424e3f146101b35780631f652c23146101d1575b600080fd5b61014f6103f7565b60405161015c91906118ad565b60405180910390f35b61016d6103fd565b60405161017a91906117fc565b60405180910390f35b61019d60048036038101906101989190611556565b6104bf565b6040516101aa91906118ad565b60405180910390f35b6101bb6104da565b6040516101c891906117fc565b60405180910390f35b6101d961062c565b6040516101e691906118ad565b60405180910390f35b61020960048036038101906102049190611504565b610690565b005b61022560048036038101906102209190611504565b610886565b6040516102329190611892565b60405180910390f35b610243610953565b005b61025f600480360381019061025a9190611556565b6109db565b60405161026e939291906118c8565b60405180910390f35b61027f610a05565b60405161028c91906118ad565b60405180910390f35b61029d610a0b565b6040516102aa91906118ad565b60405180910390f35b6102bb610a10565b6040516102c89190611736565b60405180910390f35b6102eb60048036038101906102e69190611504565b610a39565b005b6102f5610b1c565b60405161030291906118ad565b60405180910390f35b610313610b22565b60405161032091906118ad565b60405180910390f35b610343600480360381019061033e9190611504565b610b28565b005b61034d610c1a565b60405161035a91906117da565b60405180910390f35b61036b610ca8565b60405161037891906118ad565b60405180910390f35b610389610d5c565b60405161039691906118ad565b60405180910390f35b6103a7610d62565b6040516103b491906118ad565b60405180910390f35b6103c5610dac565b6040516103d29190611817565b60405180910390f35b6103f560048036038101906103f09190611504565b610df1565b005b60195481565b6000601b60009054906101000a900473ffffffffffffffffffffffffffffffffffffffff1673ffffffffffffffffffffffffffffffffffffffff166323b872dd3033610447610ca8565b6040518463ffffffff1660e01b81526004016104659392919061177a565b602060405180830381600087803b15801561047f57600080fd5b505af1158015610493573d6000803e3d6000fd5b505050506040513d601f19601f820116820180604052508101906104b7919061152d565b506001905090565b600581601281106104cf57600080fd5b016000915090505481565b60006104e4610eff565b610523576040517f08c379a000000000000000000000000000000000000000000000000000000000815260040161051a90611832565b60405180910390fd5b600061052e33610886565b9050600061054482602001518360400151610f55565b9050601b60009054906101000a900473ffffffffffffffffffffffffffffffffffffffff1673ffffffffffffffffffffffffffffffffffffffff166367ff17a633836040518363ffffffff1660e01b81526004016105a39291906117b1565b602060405180830381600087803b1580156105bd57600080fd5b505af11580156105d1573d6000803e3d6000fd5b505050506040513d601f19601f820116820180604052508101906105f5919061157f565b50610604826040015182610fe6565b61060c611096565b610614610eff565b15610623576106216104da565b505b60019250505090565b600080610637610dac565b9050600081131561064c57600091505061068d565b61068960195461067b6005600a6106639190611ab7565b8461066d90611ea9565b610ee990919063ffffffff16565b6110f090919063ffffffff16565b9150505b90565b610698611106565b73ffffffffffffffffffffffffffffffffffffffff166106b6610a10565b73ffffffffffffffffffffffffffffffffffffffff161461070c576040517f08c379a000000000000000000000000000000000000000000000000000000000815260040161070390611872565b60405180910390fd5b6000610716610d62565b905060405180608001604052808373ffffffffffffffffffffffffffffffffffffffff1681526020016001815260200182815260200161075461110e565b815250600160008473ffffffffffffffffffffffffffffffffffffffff1673ffffffffffffffffffffffffffffffffffffffff16815260200190815260200160002060008201518160000160006101000a81548173ffffffffffffffffffffffffffffffffffffffff021916908373ffffffffffffffffffffffffffffffffffffffff16021790555060208201518160010155604082015181600201556060820151816003015590505061080781611116565b6004600081548092919061081a90611e60565b91905055506003829080600181540180825580915050600190039060005260206000200160009091909190916101000a81548173ffffffffffffffffffffffffffffffffffffffff021916908373ffffffffffffffffffffffffffffffffffffffff1602179055505050565b61088e611415565b600160008373ffffffffffffffffffffffffffffffffffffffff1673ffffffffffffffffffffffffffffffffffffffff1681526020019081526020016000206040518060800160405290816000820160009054906101000a900473ffffffffffffffffffffffffffffffffffffffff1673ffffffffffffffffffffffffffffffffffffffff1673ffffffffffffffffffffffffffffffffffffffff16815260200160018201548152602001600282015481526020016003820154815250509050919050565b61095b611106565b73ffffffffffffffffffffffffffffffffffffffff16610979610a10565b73ffffffffffffffffffffffffffffffffffffffff16146109cf576040517f08c379a00000000000000000000000000000000000000000000000000000000081526004016109c690611872565b60405180910390fd5b6109d960006111f3565b565b60026020528060005260406000206000915090508060000154908060010154908060020154905083565b60185481565b600581565b60008060009054906101000a900473ffffffffffffffffffffffffffffffffffffffff16905090565b610a41611106565b73ffffffffffffffffffffffffffffffffffffffff16610a5f610a10565b73ffffffffffffffffffffffffffffffffffffffff1614610ab5576040517f08c379a0000000000000000000000000000000000000000000000000000000008152600401610aac90611872565b60405180910390fd5b6000610ac082610886565b9050610ad08160400151826112b7565b6000600160008473ffffffffffffffffffffffffffffffffffffffff1673ffffffffffffffffffffffffffffffffffffffff168152602001908152602001600020600101819055505050565b601a5481565b60045481565b610b30611106565b73ffffffffffffffffffffffffffffffffffffffff16610b4e610a10565b73ffffffffffffffffffffffffffffffffffffffff1614610ba4576040517f08c379a0000000000000000000000000000000000000000000000000000000008152600401610b9b90611872565b60405180910390fd5b6000610baf82610886565b9050600160008373ffffffffffffffffffffffffffffffffffffffff1673ffffffffffffffffffffffffffffffffffffffff1681526020019081526020016000206001016000815480929190610c0490611e60565b9190505550610c168160400151611116565b5050565b60606003805480602002602001604051908101604052809291908181526020018280548015610c9e57602002820191906000526020600020905b8160009054906101000a900473ffffffffffffffffffffffffffffffffffffffff1673ffffffffffffffffffffffffffffffffffffffff1681526020019060010190808311610c54575b5050505050905090565b6000601b60009054906101000a900473ffffffffffffffffffffffffffffffffffffffff1673ffffffffffffffffffffffffffffffffffffffff1663dd62ed3e30336040518363ffffffff1660e01b8152600401610d07929190611751565b60206040518083038186803b158015610d1f57600080fd5b505afa158015610d33573d6000803e3d6000fd5b505050506040513d601f19601f82011682018060405250810190610d57919061157f565b905090565b60175481565b6000610da76001610d99601954610d8b601754610d7d61139c565b6113a490919063ffffffff16565b6110f090919063ffffffff16565b6113ba90919063ffffffff16565b905090565b600080610db833610886565b9050610dc261139c565b8160400151601954610dd49190611bd5565b601754610de19190611949565b610deb9190611d46565b91505090565b610df9611106565b73ffffffffffffffffffffffffffffffffffffffff16610e17610a10565b73ffffffffffffffffffffffffffffffffffffffff1614610e6d576040517f08c379a0000000000000000000000000000000000000000000000000000000008152600401610e6490611872565b60405180910390fd5b600073ffffffffffffffffffffffffffffffffffffffff168173ffffffffffffffffffffffffffffffffffffffff161415610edd576040517f08c379a0000000000000000000000000000000000000000000000000000000008152600401610ed490611852565b60405180910390fd5b610ee6816111f3565b50565b60008183610ef79190611cec565b905092915050565b600080610f0b33610886565b9050600081602001511415610f24576000915050610f52565b610f39610f2f61139c565b82604001516113d0565b8015610f4e5750610f4d8160400151611406565b5b9150505b90565b6000806005600184610f679190611dda565b60128110610f9e577f4e487b7100000000000000000000000000000000000000000000000000000000600052603260045260246000fd5b015490506000811415610fb5576000915050610fe0565b610fdc610fcd826018546110f090919063ffffffff16565b85610ee990919063ffffffff16565b9150505b92915050565b600060019050600060405180606001604052808581526020016110286002600088815260200190815260200160002060010154866113ba90919063ffffffff16565b81526020016110566002600088815260200190815260200160002060020154856113ba90919063ffffffff16565b8152509050806002600086815260200190815260200160002060008201518160000155602082015181600101556040820151816002015590505050505050565b600160003373ffffffffffffffffffffffffffffffffffffffff1673ffffffffffffffffffffffffffffffffffffffff16815260200190815260200160002060020160008154809291906110e990611e60565b9190505550565b600081836110fe9190611a33565b905092915050565b600033905090565b600042905090565b60006005601280602002604051908101604052809291908260128015611151576020028201915b81548152602001906001019080831161113d575b505050505090506000601a549050600060018461116e9190611dda565b90505b818110156111db578281601281106111b2577f4e487b7100000000000000000000000000000000000000000000000000000000600052603260045260246000fd5b6020020180518091906111c490611e60565b8152505080806111d390611e60565b915050611171565b508160059060126111ed929190611453565b50505050565b60008060009054906101000a900473ffffffffffffffffffffffffffffffffffffffff169050816000806101000a81548173ffffffffffffffffffffffffffffffffffffffff021916908373ffffffffffffffffffffffffffffffffffffffff1602179055508173ffffffffffffffffffffffffffffffffffffffff168173ffffffffffffffffffffffffffffffffffffffff167f8be0079c531659141344cd1fd0a4f28419497f9722a3daafe3b4186f6b6457e060405160405180910390a35050565b600060056012806020026040519081016040528092919082601280156112f2576020028201915b8154815260200190600101908083116112de575b505050505090506000601a549050600060018561130f9190611dda565b90505b81811015611383578360200151838260128110611358577f4e487b7100000000000000000000000000000000000000000000000000000000600052603260045260246000fd5b602002018181516113699190611dda565b91508181525050808061137b90611e60565b915050611312565b50816005906012611395929190611453565b5050505050565b600043905090565b600081836113b29190611dda565b905092915050565b600081836113c891906119dd565b905092915050565b6000826113fc6113eb84601954610ee990919063ffffffff16565b6017546113ba90919063ffffffff16565b1115905092915050565b6000601a548211159050919050565b6040518060800160405280600073ffffffffffffffffffffffffffffffffffffffff1681526020016000815260200160008152602001600081525090565b8260128101928215611482579160200282015b82811115611481578251825591602001919060010190611466565b5b50905061148f9190611493565b5090565b5b808211156114ac576000816000905550600101611494565b5090565b6000813590506114bf81611ffe565b92915050565b6000815190506114d481612015565b92915050565b6000813590506114e98161202c565b92915050565b6000815190506114fe8161202c565b92915050565b60006020828403121561151657600080fd5b6000611524848285016114b0565b91505092915050565b60006020828403121561153f57600080fd5b600061154d848285016114c5565b91505092915050565b60006020828403121561156857600080fd5b6000611576848285016114da565b91505092915050565b60006020828403121561159157600080fd5b600061159f848285016114ef565b91505092915050565b60006115b483836115c0565b60208301905092915050565b6115c981611e0e565b82525050565b6115d881611e0e565b82525050565b60006115e98261190f565b6115f38185611927565b93506115fe836118ff565b8060005b8381101561162f57815161161688826115a8565b97506116218361191a565b925050600181019050611602565b5085935050505092915050565b61164581611e20565b82525050565b61165481611e2c565b82525050565b6000611667601683611938565b915061167282611f5d565b602082019050919050565b600061168a602683611938565b915061169582611f86565b604082019050919050565b60006116ad602083611938565b91506116b882611fd5565b602082019050919050565b6080820160008201516116d960008501826115c0565b5060208201516116ec6020850182611718565b5060408201516116ff6040850182611718565b5060608201516117126060850182611718565b50505050565b61172181611e56565b82525050565b61173081611e56565b82525050565b600060208201905061174b60008301846115cf565b92915050565b600060408201905061176660008301856115cf565b61177360208301846115cf565b9392505050565b600060608201905061178f60008301866115cf565b61179c60208301856115cf565b6117a96040830184611727565b949350505050565b60006040820190506117c660008301856115cf565b6117d36020830184611727565b9392505050565b600060208201905081810360008301526117f481846115de565b905092915050565b6000602082019050611811600083018461163c565b92915050565b600060208201905061182c600083018461164b565b92915050565b6000602082019050818103600083015261184b8161165a565b9050919050565b6000602082019050818103600083015261186b8161167d565b9050919050565b6000602082019050818103600083015261188b816116a0565b9050919050565b60006080820190506118a760008301846116c3565b92915050565b60006020820190506118c26000830184611727565b92915050565b60006060820190506118dd6000830186611727565b6118ea6020830185611727565b6118f76040830184611727565b949350505050565b6000819050602082019050919050565b600081519050919050565b6000602082019050919050565b600082825260208201905092915050565b600082825260208201905092915050565b600061195482611e2c565b915061195f83611e2c565b9250817f7fffffffffffffffffffffffffffffffffffffffffffffffffffffffffffffff0383136000831215161561199a57611999611ef2565b5b817f80000000000000000000000000000000000000000000000000000000000000000383126000831216156119d2576119d1611ef2565b5b828201905092915050565b60006119e882611e56565b91506119f383611e56565b9250827fffffffffffffffffffffffffffffffffffffffffffffffffffffffffffffffff03821115611a2857611a27611ef2565b5b828201905092915050565b6000611a3e82611e56565b9150611a4983611e56565b925082611a5957611a58611f21565b5b828204905092915050565b6000808291508390505b6001851115611aae57808604811115611a8a57611a89611ef2565b5b6001851615611a995780820291505b8081029050611aa785611f50565b9450611a6e565b94509492505050565b6000611ac282611e56565b9150611acd83611e56565b9250611afa7fffffffffffffffffffffffffffffffffffffffffffffffffffffffffffffffff8484611b02565b905092915050565b600082611b125760019050611bce565b81611b205760009050611bce565b8160018114611b365760028114611b4057611b6f565b6001915050611bce565b60ff841115611b5257611b51611ef2565b5b8360020a915084821115611b6957611b68611ef2565b5b50611bce565b5060208310610133831016604e8410600b8410161715611ba45782820a905083811115611b9f57611b9e611ef2565b5b611bce565b611bb18484846001611a64565b92509050818404811115611bc857611bc7611ef2565b5b81810290505b9392505050565b6000611be082611e2c565b9150611beb83611e2c565b9250827f7fffffffffffffffffffffffffffffffffffffffffffffffffffffffffffffff0482116000841360008413161615611c2a57611c29611ef2565b5b817f80000000000000000000000000000000000000000000000000000000000000000583126000841260008413161615611c6757611c66611ef2565b5b827f80000000000000000000000000000000000000000000000000000000000000000582126000841360008412161615611ca457611ca3611ef2565b5b827f7fffffffffffffffffffffffffffffffffffffffffffffffffffffffffffffff0582126000841260008412161615611ce157611ce0611ef2565b5b828202905092915050565b6000611cf782611e56565b9150611d0283611e56565b9250817fffffffffffffffffffffffffffffffffffffffffffffffffffffffffffffffff0483118215151615611d3b57611d3a611ef2565b5b828202905092915050565b6000611d5182611e2c565b9150611d5c83611e2c565b9250827f800000000000000000000000000000000000000000000000000000000000000001821260008412151615611d9757611d96611ef2565b5b827f7fffffffffffffffffffffffffffffffffffffffffffffffffffffffffffffff018213600084121615611dcf57611dce611ef2565b5b828203905092915050565b6000611de582611e56565b9150611df083611e56565b925082821015611e0357611e02611ef2565b5b828203905092915050565b6000611e1982611e36565b9050919050565b60008115159050919050565b6000819050919050565b600073ffffffffffffffffffffffffffffffffffffffff82169050919050565b6000819050919050565b6000611e6b82611e56565b91507fffffffffffffffffffffffffffffffffffffffffffffffffffffffffffffffff821415611e9e57611e9d611ef2565b5b600182019050919050565b6000611eb482611e2c565b91507f8000000000000000000000000000000000000000000000000000000000000000821415611ee757611ee6611ef2565b5b816000039050919050565b7f4e487b7100000000000000000000000000000000000000000000000000000000600052601160045260246000fd5b7f4e487b7100000000000000000000000000000000000000000000000000000000600052601260045260246000fd5b60008160011c9050919050565b7f596f752063616e27742077697468647261772079657400000000000000000000600082015250565b7f4f776e61626c653a206e6577206f776e657220697320746865207a65726f206160008201527f6464726573730000000000000000000000000000000000000000000000000000602082015250565b7f4f776e61626c653a2063616c6c6572206973206e6f7420746865206f776e6572600082015250565b61200781611e0e565b811461201257600080fd5b50565b61201e81611e20565b811461202957600080fd5b50565b61203581611e56565b811461204057600080fd5b5056fea2646970667358221220d14866a5df5c29bc90ab9f0b3ef5f2e24948aedd113fa29e08bc67358a16d0a764736f6c63430008020033",
  "immutableReferences": {},
  "source": "// SPDX-License-Identifier: GPL-3.0\r\npragma solidity >=0.7.0 <=0.9.0;\r\n\r\nimport \"./PoolInterface.sol\";\r\nimport \"./SacTokenInterface.sol\";\r\nimport \"@openzeppelin/contracts/access/Ownable.sol\";\r\nimport \"@openzeppelin/contracts/utils/math/SafeMath.sol\";\r\nimport \"./types/DeveloperPoolTypes.sol\";\r\n\r\n/**\r\n * @author Everson B. Silva\r\n * @title DeveloperContract\r\n * @dev DeveloperPool is a contract to reward developers\r\n */\r\ncontract DeveloperPool is Ownable, PoolInterface {\r\n  using SafeMath for uint256;\r\n\r\n  mapping(address => Developer) internal developers;\r\n  mapping(uint256 => Era) public eras;\r\n\r\n  address[]   internal developersAddress;\r\n  uint256     public   developersCount;\r\n  uint256[18] public   levelsSumPerEra;\r\n  uint256     public   deployedAt;\r\n  uint256     public   tokensPerEra;\r\n  uint256     public   blocksPerEra;\r\n  uint256     public   eraMax;\r\n  uint256     public constant BLOCKS_PRECISION = 5;\r\n\r\n  SacTokenInterface internal sacToken;\r\n\r\n  constructor(\r\n    address _sacTokenAddress,\r\n    uint256 _tokensPerEra,\r\n    uint256 _blocksPerEra,\r\n    uint256 _eraMax\r\n  ) {\r\n    sacToken = SacTokenInterface(_sacTokenAddress);\r\n    deployedAt = currentBlockNumber();\r\n    tokensPerEra = _tokensPerEra.mul(10**18);\r\n    blocksPerEra = _blocksPerEra;\r\n    eraMax = _eraMax;\r\n  }\r\n\r\n  /**\r\n   * @dev Return a specific developer\r\n   * @param _address the address of the developer\r\n   */\r\n  function getDeveloper(address _address) public view returns (Developer memory) {\r\n    return developers[_address];\r\n  }\r\n\r\n  /**\r\n   * @dev Return the developers address of the system\r\n   */\r\n  function getDevelopersAddress() public view returns (address[] memory) {\r\n    return developersAddress;\r\n  }\r\n\r\n  /**\r\n   * @dev Add a new develop to the pool\r\n   * @param _address the address of the developer\r\n   */\r\n  function addDeveloper(address _address) public onlyOwner {\r\n    uint256 _currentEra = currentContractEra();\r\n    developers[_address] = Developer(_address, 1, _currentEra, timestamp());\r\n    upLevels(_currentEra);\r\n    developersCount++;\r\n    developersAddress.push(_address);\r\n  }\r\n\r\n  /**\r\n   * @dev Increment the levels + 1 per era always that a developer is added or the level is up\r\n   * @param _fromEra the era of developer\r\n   */\r\n  function upLevels(uint256 _fromEra) internal {\r\n    uint256[18] memory _levels = levelsSumPerEra;\r\n    uint256 _eraMax = eraMax;\r\n\r\n    for (uint256 i = _fromEra - 1; i < _eraMax; i++) {\r\n      _levels[i]++;\r\n    }\r\n\r\n    levelsSumPerEra = _levels;\r\n  }\r\n\r\n  /**\r\n   * @dev Decrement the levels of the undo developer\r\n   * @param _fromEra the era of developer\r\n   */\r\n  function downLevels(uint256 _fromEra, Developer memory developer) internal {\r\n    uint256[18] memory _levels = levelsSumPerEra;\r\n    uint256 _eraMax = eraMax;\r\n\r\n    for (uint256 i = _fromEra - 1; i < _eraMax; i++) {\r\n      _levels[i] -= developer.level;\r\n    }\r\n\r\n    levelsSumPerEra = _levels;\r\n  }\r\n\r\n  /**\r\n   * @dev Return the current era of the contract\r\n   */\r\n  function currentContractEra() public view returns (uint256) {\r\n    return currentBlockNumber().sub(deployedAt).div(blocksPerEra).add(1);\r\n  }\r\n\r\n  /**\r\n   * @dev Increment the level of the develop\r\n   * @param _address the address of the developer\r\n   */\r\n  function addLevel(address _address) public onlyOwner {\r\n    Developer memory developer = getDeveloper(_address);\r\n\r\n    developers[_address].level++;\r\n    upLevels(developer.currentEra);\r\n  }\r\n\r\n  /**\r\n   * @dev Set to zero the level of the develop\r\n   * @param _address the address of the developer\r\n   */\r\n  function undoLevel(address _address) public onlyOwner {\r\n    Developer memory developer = getDeveloper(_address);\r\n    downLevels(developer.currentEra, developer);\r\n    developers[_address].level = 0;\r\n  }\r\n\r\n  /**\r\n   * @dev Allow the developer to approve tokens from DeveloperPool address. DeveloperPool address must have tokens in SAC TOKEN\r\n   * TODO Check external code call - EXTCALL\r\n   */\r\n  function approve() public mustBeAbleToApprove override returns (bool) {\r\n    Developer memory developer = getDeveloper(msg.sender);\r\n\r\n    uint256 tokens = calcTokens(developer.level, developer.currentEra);\r\n\r\n    sacToken.approveWith(msg.sender, tokens);\r\n\r\n    setEraMetrics(developer.currentEra, tokens);\r\n\r\n    developerNextEra();\r\n\r\n    if (canApprove()) approve();\r\n\r\n    return true;\r\n  }\r\n\r\n  /**\r\n   * @dev Add metrics actions to eras. The metrics are numbers of tokens and developers.\r\n   * @param _era The current era that the develop approve() tokens\r\n   * @param _tokens How much tokens the win to this era\r\n   */\r\n  function setEraMetrics(uint256 _era, uint256 _tokens) internal {\r\n    uint256 oneDev = 1;\r\n    Era memory newEra = Era(\r\n      _era,\r\n      _tokens.add(eras[_era].tokens),\r\n      oneDev.add(eras[_era].developers)\r\n    );\r\n    eras[_era] = newEra;\r\n  }\r\n\r\n  /**\r\n   * @dev Allow the dev withdraw tokens from DeveloperPool address to his address\r\n   * TODO Check external code call - EXTCALL\r\n   */\r\n  function withDraw() public override returns (bool) {\r\n    sacToken.transferFrom(address(this), msg.sender, allowance());\r\n    return true;\r\n  }\r\n\r\n  /**\r\n   * @dev Show how much tokens the developer can withdraw from DeveloperPool address\r\n   * TODO Check external code call - EXTCALL\r\n   */\r\n  function allowance() public view override returns (uint256) {\r\n    return sacToken.allowance(address(this), msg.sender);\r\n  }\r\n\r\n  /**\r\n   * @dev Check if the developer can approve tokens\r\n   */\r\n  function canApprove() internal view returns (bool) {\r\n    Developer memory developer = getDeveloper(msg.sender);\r\n\r\n    if (developer.level == 0) return false;\r\n\r\n    return\r\n      canApproveFromPresent(currentBlockNumber(), developer.currentEra) &&\r\n      eraLimit(developer.currentEra);\r\n  }\r\n\r\n  /**\r\n   * @dev Check if the limit of eras is the maximum. The state eraMax is the limit\r\n   */\r\n  function eraLimit(uint256 _currentEra) internal view returns (bool) {\r\n    return _currentEra <= eraMax;\r\n  }\r\n\r\n  /**\r\n   * @dev Check if the developer can approve. This funcion check the initial block deploy with the current block\r\n   */\r\n  function canApproveFromPresent(uint256 _currentBlock, uint256 _currentEra)\r\n    internal\r\n    view\r\n    returns (bool)\r\n  {\r\n    return deployedAt.add(blocksPerEra.mul(_currentEra)) <= _currentBlock;\r\n  }\r\n\r\n  /**\r\n   * @dev Increment a new era to a developer. This funcions called when the developer approve tokens\r\n   */\r\n  function developerNextEra() internal {\r\n    developers[msg.sender].currentEra++;\r\n  }\r\n\r\n  /**\r\n   * @dev Calc how much tokens the dev can approve in some era\r\n   * @param _level The level of the developer\r\n   * @param _era Era to calc in\r\n   */\r\n  function calcTokens(uint256 _level, uint256 _era) internal view returns (uint256) {\r\n    uint256 _levelsSum = levelsSumPerEra[_era - 1];\r\n    if (_levelsSum == 0) return 0;\r\n    return _level.mul((tokensPerEra.div(_levelsSum)));\r\n  }\r\n\r\n  /**\r\n   * @dev Show how much block missing to approve new tokens\r\n   */\r\n  function nextApproveTime() public view returns (int256) {\r\n    Developer memory developer = getDeveloper(msg.sender);\r\n    return\r\n      int256(deployedAt) +\r\n      (int256(blocksPerEra) * int256(developer.currentEra)) -\r\n      int256(currentBlockNumber());\r\n  }\r\n\r\n  /**\r\n   * @dev Show how much times the developer can approve tokens. How much eras passed.\r\n   * @return A uint with precision of blocksPrecision state. The real return can be get by return/blocksPrecision and Math.ceil\r\n   */\r\n  function canApproveTimes() public view returns (uint256) {\r\n    int256 approvesTimes = nextApproveTime();\r\n    if (approvesTimes > 0) return 0;\r\n\r\n    return uint256(-approvesTimes).mul(10**BLOCKS_PRECISION).div(blocksPerEra);\r\n  }\r\n\r\n  /**\r\n   * @dev Returns the timestamp\r\n   */\r\n  function timestamp() internal view returns (uint256) {\r\n    return block.timestamp;\r\n  }\r\n\r\n  /**\r\n   * @dev Returns the current block number\r\n   */\r\n  function currentBlockNumber() internal view returns (uint256) {\r\n    return block.number;\r\n  }\r\n\r\n  // MODIFIERS\r\n\r\n  modifier mustBeAbleToApprove {\r\n    require(canApprove(), \"You can't withdraw yet\");\r\n    _;\r\n  }\r\n}\r\n",
  "sourcePath": "C:\\Users\\emano\\Documents\\Sintrop\\BackEnd\\contracts\\DeveloperPool.sol",
  "compiler": {
    "name": "solc",
    "version": "0.8.2+commit.661d1103.Emscripten.clang"
  },
  "schemaVersion": "3.4.7",
  "updatedAt": "2022-06-10T23:37:45.695Z",
  "networkType": "ethereum",
  "devdoc": {
    "author": "Everson B. Silva",
    "details": "DeveloperPool is a contract to reward developers",
    "kind": "dev",
    "methods": {
      "addDeveloper(address)": {
        "details": "Add a new develop to the pool",
        "params": {
          "_address": "the address of the developer"
        }
      },
      "addLevel(address)": {
        "details": "Increment the level of the develop",
        "params": {
          "_address": "the address of the developer"
        }
      },
      "allowance()": {
        "details": "Show how much tokens the developer can withdraw from DeveloperPool address TODO Check external code call - EXTCALL"
      },
      "approve()": {
        "details": "Allow the developer to approve tokens from DeveloperPool address. DeveloperPool address must have tokens in SAC TOKEN TODO Check external code call - EXTCALL"
      },
      "canApproveTimes()": {
        "details": "Show how much times the developer can approve tokens. How much eras passed.",
        "returns": {
          "_0": "A uint with precision of blocksPrecision state. The real return can be get by return/blocksPrecision and Math.ceil"
        }
      },
      "currentContractEra()": {
        "details": "Return the current era of the contract"
      },
      "getDeveloper(address)": {
        "details": "Return a specific developer",
        "params": {
          "_address": "the address of the developer"
        }
      },
      "getDevelopersAddress()": {
        "details": "Return the developers address of the system"
      },
      "nextApproveTime()": {
        "details": "Show how much block missing to approve new tokens"
      },
      "owner()": {
        "details": "Returns the address of the current owner."
      },
      "renounceOwnership()": {
        "details": "Leaves the contract without owner. It will not be possible to call `onlyOwner` functions anymore. Can only be called by the current owner. NOTE: Renouncing ownership will leave the contract without an owner, thereby removing any functionality that is only available to the owner."
      },
      "transferOwnership(address)": {
        "details": "Transfers ownership of the contract to a new account (`newOwner`). Can only be called by the current owner."
      },
      "undoLevel(address)": {
        "details": "Set to zero the level of the develop",
        "params": {
          "_address": "the address of the developer"
        }
      },
      "withDraw()": {
        "details": "Allow the dev withdraw tokens from DeveloperPool address to his address TODO Check external code call - EXTCALL"
      }
    },
    "title": "DeveloperContract",
    "version": 1
  },
  "userdoc": {
    "kind": "user",
    "methods": {},
    "version": 1
  }
}