{
  "contractName": "DeveloperPool",
  "abi": [
    {
      "inputs": [
        {
          "internalType": "address",
          "name": "_sacTokenAddress",
          "type": "address"
        },
        {
          "internalType": "uint256",
          "name": "_tokensPerEra",
          "type": "uint256"
        },
        {
          "internalType": "uint256",
          "name": "_blocksPerEra",
          "type": "uint256"
        },
        {
          "internalType": "uint256",
          "name": "_eraMax",
          "type": "uint256"
        }
      ],
      "stateMutability": "nonpayable",
      "type": "constructor"
    },
    {
      "anonymous": false,
      "inputs": [
        {
          "indexed": true,
          "internalType": "address",
          "name": "previousOwner",
          "type": "address"
        },
        {
          "indexed": true,
          "internalType": "address",
          "name": "newOwner",
          "type": "address"
        }
      ],
      "name": "OwnershipTransferred",
      "type": "event"
    },
    {
      "inputs": [],
      "name": "BLOCKS_PRECISION",
      "outputs": [
        {
          "internalType": "uint256",
          "name": "",
          "type": "uint256"
        }
      ],
      "stateMutability": "view",
      "type": "function",
      "constant": true
    },
    {
      "inputs": [],
      "name": "blocksPerEra",
      "outputs": [
        {
          "internalType": "uint256",
          "name": "",
          "type": "uint256"
        }
      ],
      "stateMutability": "view",
      "type": "function",
      "constant": true
    },
    {
      "inputs": [
        {
          "internalType": "uint256",
          "name": "currentUserEra",
          "type": "uint256"
        }
      ],
      "name": "canApprove",
      "outputs": [
        {
          "internalType": "bool",
          "name": "",
          "type": "bool"
        }
      ],
      "stateMutability": "view",
      "type": "function",
      "constant": true
    },
    {
      "inputs": [
        {
          "internalType": "uint256",
          "name": "currentUserEra",
          "type": "uint256"
        }
      ],
      "name": "canApproveTimes",
      "outputs": [
        {
          "internalType": "uint256",
          "name": "",
          "type": "uint256"
        }
      ],
      "stateMutability": "view",
      "type": "function",
      "constant": true
    },
    {
      "inputs": [],
      "name": "currentContractEra",
      "outputs": [
        {
          "internalType": "uint256",
          "name": "",
          "type": "uint256"
        }
      ],
      "stateMutability": "view",
      "type": "function",
      "constant": true
    },
    {
      "inputs": [],
      "name": "deployedAt",
      "outputs": [
        {
          "internalType": "uint256",
          "name": "",
          "type": "uint256"
        }
      ],
      "stateMutability": "view",
      "type": "function",
      "constant": true
    },
    {
      "inputs": [],
      "name": "developersCount",
      "outputs": [
        {
          "internalType": "uint256",
          "name": "",
          "type": "uint256"
        }
      ],
      "stateMutability": "view",
      "type": "function",
      "constant": true
    },
    {
      "inputs": [],
      "name": "eraMax",
      "outputs": [
        {
          "internalType": "uint256",
          "name": "",
          "type": "uint256"
        }
      ],
      "stateMutability": "view",
      "type": "function",
      "constant": true
    },
    {
      "inputs": [
        {
          "internalType": "uint256",
          "name": "",
          "type": "uint256"
        }
      ],
      "name": "eras",
      "outputs": [
        {
          "internalType": "uint256",
          "name": "era",
          "type": "uint256"
        },
        {
          "internalType": "uint256",
          "name": "tokens",
          "type": "uint256"
        },
        {
          "internalType": "uint256",
          "name": "developers",
          "type": "uint256"
        }
      ],
      "stateMutability": "view",
      "type": "function",
      "constant": true
    },
    {
      "inputs": [
        {
          "internalType": "uint256",
          "name": "",
          "type": "uint256"
        }
      ],
      "name": "levelsSumPerEra",
      "outputs": [
        {
          "internalType": "uint256",
          "name": "",
          "type": "uint256"
        }
      ],
      "stateMutability": "view",
      "type": "function",
      "constant": true
    },
    {
      "inputs": [
        {
          "internalType": "uint256",
          "name": "currentUserEra",
          "type": "uint256"
        }
      ],
      "name": "nextApproveIn",
      "outputs": [
        {
          "internalType": "int256",
          "name": "",
          "type": "int256"
        }
      ],
      "stateMutability": "view",
      "type": "function",
      "constant": true
    },
    {
      "inputs": [],
      "name": "owner",
      "outputs": [
        {
          "internalType": "address",
          "name": "",
          "type": "address"
        }
      ],
      "stateMutability": "view",
      "type": "function",
      "constant": true
    },
    {
      "inputs": [],
      "name": "renounceOwnership",
      "outputs": [],
      "stateMutability": "nonpayable",
      "type": "function"
    },
    {
      "inputs": [],
      "name": "tokensPerEra",
      "outputs": [
        {
          "internalType": "uint256",
          "name": "",
          "type": "uint256"
        }
      ],
      "stateMutability": "view",
      "type": "function",
      "constant": true
    },
    {
      "inputs": [
        {
          "internalType": "address",
          "name": "newOwner",
          "type": "address"
        }
      ],
      "name": "transferOwnership",
      "outputs": [],
      "stateMutability": "nonpayable",
      "type": "function"
    },
    {
      "inputs": [
        {
          "internalType": "address",
          "name": "_address",
          "type": "address"
        }
      ],
      "name": "getDeveloper",
      "outputs": [
        {
          "components": [
            {
              "internalType": "address",
              "name": "_address",
              "type": "address"
            },
            {
              "internalType": "uint256",
              "name": "level",
              "type": "uint256"
            },
            {
              "internalType": "uint256",
              "name": "currentEra",
              "type": "uint256"
            },
            {
              "internalType": "uint256",
              "name": "createdAt",
              "type": "uint256"
            }
          ],
          "internalType": "struct Developer",
          "name": "",
          "type": "tuple"
        }
      ],
      "stateMutability": "view",
      "type": "function",
      "constant": true
    },
    {
      "inputs": [],
      "name": "getDevelopersAddress",
      "outputs": [
        {
          "internalType": "address[]",
          "name": "",
          "type": "address[]"
        }
      ],
      "stateMutability": "view",
      "type": "function",
      "constant": true
    },
    {
      "inputs": [
        {
          "internalType": "address",
          "name": "_address",
          "type": "address"
        }
      ],
      "name": "addDeveloper",
      "outputs": [],
      "stateMutability": "nonpayable",
      "type": "function"
    },
    {
      "inputs": [
        {
          "internalType": "address",
          "name": "_address",
          "type": "address"
        }
      ],
      "name": "addLevel",
      "outputs": [],
      "stateMutability": "nonpayable",
      "type": "function"
    },
    {
      "inputs": [
        {
          "internalType": "address",
          "name": "_address",
          "type": "address"
        }
      ],
      "name": "undoLevel",
      "outputs": [],
      "stateMutability": "nonpayable",
      "type": "function"
    },
    {
      "inputs": [],
      "name": "approve",
      "outputs": [
        {
          "internalType": "bool",
          "name": "",
          "type": "bool"
        }
      ],
      "stateMutability": "nonpayable",
      "type": "function"
    },
    {
      "inputs": [],
      "name": "withDraw",
      "outputs": [
        {
          "internalType": "bool",
          "name": "",
          "type": "bool"
        }
      ],
      "stateMutability": "nonpayable",
      "type": "function"
    },
    {
      "inputs": [],
      "name": "allowance",
      "outputs": [
        {
          "internalType": "uint256",
          "name": "",
          "type": "uint256"
        }
      ],
      "stateMutability": "view",
      "type": "function",
      "constant": true
    }
  ],
  "bytecode": "0x60806040523480156200001157600080fd5b50604051620024c7380380620024c783398181016040528101906200003791906200020c565b8181620000596200004d620000f260201b60201c565b620000fa60201b60201c565b816001819055508060038190555062000077620001be60201b60201c565b600281905550505083601b60006101000a81548173ffffffffffffffffffffffffffffffffffffffff021916908373ffffffffffffffffffffffffffffffffffffffff160217905550620000e2670de0b6b3a764000084620001c660201b62000f761790919060201c565b601a81905550505050506200037a565b600033905090565b60008060009054906101000a900473ffffffffffffffffffffffffffffffffffffffff169050816000806101000a81548173ffffffffffffffffffffffffffffffffffffffff021916908373ffffffffffffffffffffffffffffffffffffffff1602179055508173ffffffffffffffffffffffffffffffffffffffff168173ffffffffffffffffffffffffffffffffffffffff167f8be0079c531659141344cd1fd0a4f28419497f9722a3daafe3b4186f6b6457e060405160405180910390a35050565b600043905090565b60008183620001d6919062000278565b905092915050565b600081519050620001ef8162000346565b92915050565b600081519050620002068162000360565b92915050565b600080600080608085870312156200022357600080fd5b60006200023387828801620001de565b94505060206200024687828801620001f5565b93505060406200025987828801620001f5565b92505060606200026c87828801620001f5565b91505092959194509250565b600062000285826200030d565b915062000292836200030d565b9250817fffffffffffffffffffffffffffffffffffffffffffffffffffffffffffffffff0483118215151615620002ce57620002cd62000317565b5b828202905092915050565b6000620002e682620002ed565b9050919050565b600073ffffffffffffffffffffffffffffffffffffffff82169050919050565b6000819050919050565b7f4e487b7100000000000000000000000000000000000000000000000000000000600052601160045260246000fd5b6200035181620002d9565b81146200035d57600080fd5b50565b6200036b816200030d565b81146200037757600080fd5b50565b61213d806200038a6000396000f3fe608060405234801561001057600080fd5b506004361061014d5760003560e01c80638da5cb5b116100c3578063d32ae64b1161007c578063d32ae64b14610392578063de242ff4146103b0578063eae4c19f146103ce578063ed0df79e146103ec578063f2fde38b1461040a578063fc3dad72146104265761014d565b80638da5cb5b146102d05780638ff9b8ac146102ee57806396831f6c1461030a578063b4897e1714610328578063c3cca0cc14610346578063ccf76e0d146103625761014d565b80632c39c100116101155780632c39c100146101f857806367e13ee014610228578063715018a614610258578063720a70bd14610262578063757dbe2b14610294578063861b4ce1146102b25761014d565b80630fd07d98146101525780630fdb1c101461017057806311d64d4a1461018e57806312424e3f146101be57806322fbf1e8146101dc575b600080fd5b61015a610456565b6040516101679190611971565b60405180910390f35b61017861045c565b60405161018591906118c0565b60405180910390f35b6101a860048036038101906101a3919061161a565b61051e565b6040516101b59190611971565b60405180910390f35b6101c6610539565b6040516101d391906118c0565b60405180910390f35b6101f660048036038101906101f191906115c8565b6106a8565b005b610212600480360381019061020d919061161a565b610897565b60405161021f9190611971565b60405180910390f35b610242600480360381019061023d91906115c8565b6108fe565b60405161024f9190611956565b60405180910390f35b6102606109cb565b005b61027c6004803603810190610277919061161a565b610a53565b60405161028b9392919061198c565b60405180910390f35b61029c610a7d565b6040516102a99190611971565b60405180910390f35b6102ba610a83565b6040516102c79190611971565b60405180910390f35b6102d8610a88565b6040516102e591906117fa565b60405180910390f35b610308600480360381019061030391906115c8565b610ab1565b005b610312610b94565b60405161031f9190611971565b60405180910390f35b610330610b9a565b60405161033d9190611971565b60405180910390f35b610360600480360381019061035b91906115c8565b610ba0565b005b61037c6004803603810190610377919061161a565b610c92565b60405161038991906118db565b60405180910390f35b61039a610cc8565b6040516103a7919061189e565b60405180910390f35b6103b8610d56565b6040516103c59190611971565b60405180910390f35b6103d6610e0a565b6040516103e39190611971565b60405180910390f35b6103f4610e10565b6040516104019190611971565b60405180910390f35b610424600480360381019061041f91906115c8565b610e5a565b005b610440600480360381019061043b919061161a565b610f52565b60405161044d91906118c0565b60405180910390f35b60015481565b6000601b60009054906101000a900473ffffffffffffffffffffffffffffffffffffffff1673ffffffffffffffffffffffffffffffffffffffff166323b872dd30336104a6610d56565b6040518463ffffffff1660e01b81526004016104c49392919061183e565b602060405180830381600087803b1580156104de57600080fd5b505af11580156104f2573d6000803e3d6000fd5b505050506040513d601f19601f8201168201806040525081019061051691906115f1565b506001905090565b6008816012811061052e57600080fd5b016000915090505481565b600061054f610546610f8c565b60400151610f52565b61058e576040517f08c379a0000000000000000000000000000000000000000000000000000000008152600401610585906118f6565b60405180910390fd5b6000610599336108fe565b905060006105af82602001518360400151611057565b9050601b60009054906101000a900473ffffffffffffffffffffffffffffffffffffffff1673ffffffffffffffffffffffffffffffffffffffff166367ff17a633836040518363ffffffff1660e01b815260040161060e929190611875565b602060405180830381600087803b15801561062857600080fd5b505af115801561063c573d6000803e3d6000fd5b505050506040513d601f19601f820116820180604052508101906106609190611643565b5061066f8260400151826110e8565b610677611198565b6106906001836040015161068b9190611aa1565b610f52565b1561069f5761069d610539565b505b60019250505090565b6106b06111f2565b73ffffffffffffffffffffffffffffffffffffffff166106ce610a88565b73ffffffffffffffffffffffffffffffffffffffff1614610724576040517f08c379a000000000000000000000000000000000000000000000000000000000815260040161071b90611936565b60405180910390fd5b600061072e610e10565b905060405180608001604052808373ffffffffffffffffffffffffffffffffffffffff1681526020016001815260200182815260200142815250600460008473ffffffffffffffffffffffffffffffffffffffff1673ffffffffffffffffffffffffffffffffffffffff16815260200190815260200160002060008201518160000160006101000a81548173ffffffffffffffffffffffffffffffffffffffff021916908373ffffffffffffffffffffffffffffffffffffffff160217905550602082015181600101556040820151816002015560608201518160030155905050610818816111fa565b6007600081548092919061082b90611f24565b91905055506006829080600181540180825580915050600190039060005260206000200160009091909190916101000a81548173ffffffffffffffffffffffffffffffffffffffff021916908373ffffffffffffffffffffffffffffffffffffffff1602179055505050565b6000806108a383610c92565b905060008113156108b85760009150506108f9565b6108f56001546108e76005600a6108cf9190611b7b565b846108d990611f6d565b610f7690919063ffffffff16565b6112d790919063ffffffff16565b9150505b919050565b6109066114d9565b600460008373ffffffffffffffffffffffffffffffffffffffff1673ffffffffffffffffffffffffffffffffffffffff1681526020019081526020016000206040518060800160405290816000820160009054906101000a900473ffffffffffffffffffffffffffffffffffffffff1673ffffffffffffffffffffffffffffffffffffffff1673ffffffffffffffffffffffffffffffffffffffff16815260200160018201548152602001600282015481526020016003820154815250509050919050565b6109d36111f2565b73ffffffffffffffffffffffffffffffffffffffff166109f1610a88565b73ffffffffffffffffffffffffffffffffffffffff1614610a47576040517f08c379a0000000000000000000000000000000000000000000000000000000008152600401610a3e90611936565b60405180910390fd5b610a5160006112ed565b565b60056020528060005260406000206000915090508060000154908060010154908060020154905083565b601a5481565b600581565b60008060009054906101000a900473ffffffffffffffffffffffffffffffffffffffff16905090565b610ab96111f2565b73ffffffffffffffffffffffffffffffffffffffff16610ad7610a88565b73ffffffffffffffffffffffffffffffffffffffff1614610b2d576040517f08c379a0000000000000000000000000000000000000000000000000000000008152600401610b2490611936565b60405180910390fd5b6000610b38826108fe565b9050610b488160400151826113b1565b6000600460008473ffffffffffffffffffffffffffffffffffffffff1673ffffffffffffffffffffffffffffffffffffffff168152602001908152602001600020600101819055505050565b60035481565b60075481565b610ba86111f2565b73ffffffffffffffffffffffffffffffffffffffff16610bc6610a88565b73ffffffffffffffffffffffffffffffffffffffff1614610c1c576040517f08c379a0000000000000000000000000000000000000000000000000000000008152600401610c1390611936565b60405180910390fd5b6000610c27826108fe565b9050600460008373ffffffffffffffffffffffffffffffffffffffff1673ffffffffffffffffffffffffffffffffffffffff1681526020019081526020016000206001016000815480929190610c7c90611f24565b9190505550610c8e81604001516111fa565b5050565b6000610c9c611496565b82600154610caa9190611c99565b600254610cb79190611a0d565b610cc19190611e0a565b9050919050565b60606006805480602002602001604051908101604052809291908181526020018280548015610d4c57602002820191906000526020600020905b8160009054906101000a900473ffffffffffffffffffffffffffffffffffffffff1673ffffffffffffffffffffffffffffffffffffffff1681526020019060010190808311610d02575b5050505050905090565b6000601b60009054906101000a900473ffffffffffffffffffffffffffffffffffffffff1673ffffffffffffffffffffffffffffffffffffffff1663dd62ed3e30336040518363ffffffff1660e01b8152600401610db5929190611815565b60206040518083038186803b158015610dcd57600080fd5b505afa158015610de1573d6000803e3d6000fd5b505050506040513d601f19601f82011682018060405250810190610e059190611643565b905090565b60025481565b6000610e556001610e47600154610e39600254610e2b611496565b61149e90919063ffffffff16565b6112d790919063ffffffff16565b6114b490919063ffffffff16565b905090565b610e626111f2565b73ffffffffffffffffffffffffffffffffffffffff16610e80610a88565b73ffffffffffffffffffffffffffffffffffffffff1614610ed6576040517f08c379a0000000000000000000000000000000000000000000000000000000008152600401610ecd90611936565b60405180910390fd5b600073ffffffffffffffffffffffffffffffffffffffff168173ffffffffffffffffffffffffffffffffffffffff161415610f46576040517f08c379a0000000000000000000000000000000000000000000000000000000008152600401610f3d90611916565b60405180910390fd5b610f4f816112ed565b50565b6000610f5c610e10565b82108015610f6f5750610f6e826114ca565b5b9050919050565b60008183610f849190611db0565b905092915050565b610f946114d9565b600460003373ffffffffffffffffffffffffffffffffffffffff1673ffffffffffffffffffffffffffffffffffffffff1681526020019081526020016000206040518060800160405290816000820160009054906101000a900473ffffffffffffffffffffffffffffffffffffffff1673ffffffffffffffffffffffffffffffffffffffff1673ffffffffffffffffffffffffffffffffffffffff1681526020016001820154815260200160028201548152602001600382015481525050905090565b60008060086001846110699190611e9e565b601281106110a0577f4e487b7100000000000000000000000000000000000000000000000000000000600052603260045260246000fd5b0154905060008114156110b75760009150506110e2565b6110de6110cf82601a546112d790919063ffffffff16565b85610f7690919063ffffffff16565b9150505b92915050565b6000600190506000604051806060016040528085815260200161112a6005600088815260200190815260200160002060010154866114b490919063ffffffff16565b81526020016111586005600088815260200190815260200160002060020154856114b490919063ffffffff16565b8152509050806005600086815260200190815260200160002060008201518160000155602082015181600101556040820151816002015590505050505050565b600460003373ffffffffffffffffffffffffffffffffffffffff1673ffffffffffffffffffffffffffffffffffffffff16815260200190815260200160002060020160008154809291906111eb90611f24565b9190505550565b600033905090565b60006008601280602002604051908101604052809291908260128015611235576020028201915b815481526020019060010190808311611221575b505050505090506000600354905060006001846112529190611e9e565b90505b818110156112bf57828160128110611296577f4e487b7100000000000000000000000000000000000000000000000000000000600052603260045260246000fd5b6020020180518091906112a890611f24565b8152505080806112b790611f24565b915050611255565b508160089060126112d1929190611517565b50505050565b600081836112e59190611af7565b905092915050565b60008060009054906101000a900473ffffffffffffffffffffffffffffffffffffffff169050816000806101000a81548173ffffffffffffffffffffffffffffffffffffffff021916908373ffffffffffffffffffffffffffffffffffffffff1602179055508173ffffffffffffffffffffffffffffffffffffffff168173ffffffffffffffffffffffffffffffffffffffff167f8be0079c531659141344cd1fd0a4f28419497f9722a3daafe3b4186f6b6457e060405160405180910390a35050565b600060086012806020026040519081016040528092919082601280156113ec576020028201915b8154815260200190600101908083116113d8575b505050505090506000600354905060006001856114099190611e9e565b90505b8181101561147d578360200151838260128110611452577f4e487b7100000000000000000000000000000000000000000000000000000000600052603260045260246000fd5b602002018181516114639190611e9e565b91508181525050808061147590611f24565b91505061140c565b5081600890601261148f929190611517565b5050505050565b600043905090565b600081836114ac9190611e9e565b905092915050565b600081836114c29190611aa1565b905092915050565b60006003548211159050919050565b6040518060800160405280600073ffffffffffffffffffffffffffffffffffffffff1681526020016000815260200160008152602001600081525090565b8260128101928215611546579160200282015b8281111561154557825182559160200191906001019061152a565b5b5090506115539190611557565b5090565b5b80821115611570576000816000905550600101611558565b5090565b600081359050611583816120c2565b92915050565b600081519050611598816120d9565b92915050565b6000813590506115ad816120f0565b92915050565b6000815190506115c2816120f0565b92915050565b6000602082840312156115da57600080fd5b60006115e884828501611574565b91505092915050565b60006020828403121561160357600080fd5b600061161184828501611589565b91505092915050565b60006020828403121561162c57600080fd5b600061163a8482850161159e565b91505092915050565b60006020828403121561165557600080fd5b6000611663848285016115b3565b91505092915050565b60006116788383611684565b60208301905092915050565b61168d81611ed2565b82525050565b61169c81611ed2565b82525050565b60006116ad826119d3565b6116b781856119eb565b93506116c2836119c3565b8060005b838110156116f35781516116da888261166c565b97506116e5836119de565b9250506001810190506116c6565b5085935050505092915050565b61170981611ee4565b82525050565b61171881611ef0565b82525050565b600061172b6016836119fc565b915061173682612021565b602082019050919050565b600061174e6026836119fc565b91506117598261204a565b604082019050919050565b60006117716020836119fc565b915061177c82612099565b602082019050919050565b60808201600082015161179d6000850182611684565b5060208201516117b060208501826117dc565b5060408201516117c360408501826117dc565b5060608201516117d660608501826117dc565b50505050565b6117e581611f1a565b82525050565b6117f481611f1a565b82525050565b600060208201905061180f6000830184611693565b92915050565b600060408201905061182a6000830185611693565b6118376020830184611693565b9392505050565b60006060820190506118536000830186611693565b6118606020830185611693565b61186d60408301846117eb565b949350505050565b600060408201905061188a6000830185611693565b61189760208301846117eb565b9392505050565b600060208201905081810360008301526118b881846116a2565b905092915050565b60006020820190506118d56000830184611700565b92915050565b60006020820190506118f0600083018461170f565b92915050565b6000602082019050818103600083015261190f8161171e565b9050919050565b6000602082019050818103600083015261192f81611741565b9050919050565b6000602082019050818103600083015261194f81611764565b9050919050565b600060808201905061196b6000830184611787565b92915050565b600060208201905061198660008301846117eb565b92915050565b60006060820190506119a160008301866117eb565b6119ae60208301856117eb565b6119bb60408301846117eb565b949350505050565b6000819050602082019050919050565b600081519050919050565b6000602082019050919050565b600082825260208201905092915050565b600082825260208201905092915050565b6000611a1882611ef0565b9150611a2383611ef0565b9250817f7fffffffffffffffffffffffffffffffffffffffffffffffffffffffffffffff03831360008312151615611a5e57611a5d611fb6565b5b817f8000000000000000000000000000000000000000000000000000000000000000038312600083121615611a9657611a95611fb6565b5b828201905092915050565b6000611aac82611f1a565b9150611ab783611f1a565b9250827fffffffffffffffffffffffffffffffffffffffffffffffffffffffffffffffff03821115611aec57611aeb611fb6565b5b828201905092915050565b6000611b0282611f1a565b9150611b0d83611f1a565b925082611b1d57611b1c611fe5565b5b828204905092915050565b6000808291508390505b6001851115611b7257808604811115611b4e57611b4d611fb6565b5b6001851615611b5d5780820291505b8081029050611b6b85612014565b9450611b32565b94509492505050565b6000611b8682611f1a565b9150611b9183611f1a565b9250611bbe7fffffffffffffffffffffffffffffffffffffffffffffffffffffffffffffffff8484611bc6565b905092915050565b600082611bd65760019050611c92565b81611be45760009050611c92565b8160018114611bfa5760028114611c0457611c33565b6001915050611c92565b60ff841115611c1657611c15611fb6565b5b8360020a915084821115611c2d57611c2c611fb6565b5b50611c92565b5060208310610133831016604e8410600b8410161715611c685782820a905083811115611c6357611c62611fb6565b5b611c92565b611c758484846001611b28565b92509050818404811115611c8c57611c8b611fb6565b5b81810290505b9392505050565b6000611ca482611ef0565b9150611caf83611ef0565b9250827f7fffffffffffffffffffffffffffffffffffffffffffffffffffffffffffffff0482116000841360008413161615611cee57611ced611fb6565b5b817f80000000000000000000000000000000000000000000000000000000000000000583126000841260008413161615611d2b57611d2a611fb6565b5b827f80000000000000000000000000000000000000000000000000000000000000000582126000841360008412161615611d6857611d67611fb6565b5b827f7fffffffffffffffffffffffffffffffffffffffffffffffffffffffffffffff0582126000841260008412161615611da557611da4611fb6565b5b828202905092915050565b6000611dbb82611f1a565b9150611dc683611f1a565b9250817fffffffffffffffffffffffffffffffffffffffffffffffffffffffffffffffff0483118215151615611dff57611dfe611fb6565b5b828202905092915050565b6000611e1582611ef0565b9150611e2083611ef0565b9250827f800000000000000000000000000000000000000000000000000000000000000001821260008412151615611e5b57611e5a611fb6565b5b827f7fffffffffffffffffffffffffffffffffffffffffffffffffffffffffffffff018213600084121615611e9357611e92611fb6565b5b828203905092915050565b6000611ea982611f1a565b9150611eb483611f1a565b925082821015611ec757611ec6611fb6565b5b828203905092915050565b6000611edd82611efa565b9050919050565b60008115159050919050565b6000819050919050565b600073ffffffffffffffffffffffffffffffffffffffff82169050919050565b6000819050919050565b6000611f2f82611f1a565b91507fffffffffffffffffffffffffffffffffffffffffffffffffffffffffffffffff821415611f6257611f61611fb6565b5b600182019050919050565b6000611f7882611ef0565b91507f8000000000000000000000000000000000000000000000000000000000000000821415611fab57611faa611fb6565b5b816000039050919050565b7f4e487b7100000000000000000000000000000000000000000000000000000000600052601160045260246000fd5b7f4e487b7100000000000000000000000000000000000000000000000000000000600052601260045260246000fd5b60008160011c9050919050565b7f596f752063616e27742077697468647261772079657400000000000000000000600082015250565b7f4f776e61626c653a206e6577206f776e657220697320746865207a65726f206160008201527f6464726573730000000000000000000000000000000000000000000000000000602082015250565b7f4f776e61626c653a2063616c6c6572206973206e6f7420746865206f776e6572600082015250565b6120cb81611ed2565b81146120d657600080fd5b50565b6120e281611ee4565b81146120ed57600080fd5b50565b6120f981611f1a565b811461210457600080fd5b5056fea264697066735822122002bd84ccb27a83676835318d1bcf8d5de6a242e456ef3c73b9bd9ac22f35341c64736f6c63430008020033",
  "immutableReferences": {},
  "source": "// SPDX-License-Identifier: GPL-3.0\r\npragma solidity >=0.7.0 <=0.9.0;\r\n\r\nimport \"./PoolInterface.sol\";\r\nimport \"./SacTokenInterface.sol\";\r\nimport \"@openzeppelin/contracts/access/Ownable.sol\";\r\nimport \"@openzeppelin/contracts/utils/math/SafeMath.sol\";\r\nimport \"./types/DeveloperPoolTypes.sol\";\r\nimport \"./Blockable.sol\";\r\n\r\n/**\r\n * @author Everson B. Silva\r\n * @title DeveloperContract\r\n * @dev DeveloperPool is a contract to reward developers\r\n */\r\ncontract DeveloperPool is Ownable, Blockable, PoolInterface {\r\n  using SafeMath for uint256;\r\n\r\n  mapping(address => Developer) internal developers;\r\n  mapping(uint256 => Era) public eras;\r\n\r\n  address[] internal developersAddress;\r\n  uint256 public developersCount;\r\n  uint256[18] public levelsSumPerEra;\r\n  uint256 public tokensPerEra;\r\n\r\n  SacTokenInterface internal sacToken;\r\n\r\n  constructor(\r\n    address _sacTokenAddress,\r\n    uint256 _tokensPerEra,\r\n    uint256 _blocksPerEra,\r\n    uint256 _eraMax\r\n  ) Blockable(_blocksPerEra, _eraMax) {\r\n    sacToken = SacTokenInterface(_sacTokenAddress);\r\n    tokensPerEra = _tokensPerEra.mul(10**18);\r\n  }\r\n\r\n  /**\r\n   * @dev Return a specific developer\r\n   * @param _address the address of the developer\r\n   */\r\n  function getDeveloper(address _address) public view returns (Developer memory) {\r\n    return developers[_address];\r\n  }\r\n\r\n  /**\r\n   * @dev Return the developers address of the system\r\n   */\r\n  function getDevelopersAddress() public view returns (address[] memory) {\r\n    return developersAddress;\r\n  }\r\n\r\n  /**\r\n   * @dev Add a new develop to the pool\r\n   * @param _address the address of the developer\r\n   */\r\n  function addDeveloper(address _address) public onlyOwner {\r\n    uint256 _currentEra = currentContractEra();\r\n    developers[_address] = Developer(_address, 1, _currentEra, block.timestamp);\r\n    upLevels(_currentEra);\r\n    developersCount++;\r\n    developersAddress.push(_address);\r\n  }\r\n\r\n  /**\r\n   * @dev Increment the levels + 1 per era always that a developer is added or the level is up\r\n   * @param _fromEra the era of developer\r\n   */\r\n  function upLevels(uint256 _fromEra) internal {\r\n    uint256[18] memory _levels = levelsSumPerEra;\r\n    uint256 _eraMax = eraMax;\r\n\r\n    for (uint256 i = _fromEra - 1; i < _eraMax; i++) {\r\n      _levels[i]++;\r\n    }\r\n\r\n    levelsSumPerEra = _levels;\r\n  }\r\n\r\n  /**\r\n   * @dev Decrement the levels of the undo developer\r\n   * @param _fromEra the era of developer\r\n   */\r\n  function downLevels(uint256 _fromEra, Developer memory developer) internal {\r\n    uint256[18] memory _levels = levelsSumPerEra;\r\n    uint256 _eraMax = eraMax;\r\n\r\n    for (uint256 i = _fromEra - 1; i < _eraMax; i++) {\r\n      _levels[i] -= developer.level;\r\n    }\r\n\r\n    levelsSumPerEra = _levels;\r\n  }\r\n\r\n  /**\r\n   * @dev Increment the level of the develop\r\n   * @param _address the address of the developer\r\n   */\r\n  function addLevel(address _address) public onlyOwner {\r\n    Developer memory developer = getDeveloper(_address);\r\n\r\n    developers[_address].level++;\r\n    upLevels(developer.currentEra);\r\n  }\r\n\r\n  /**\r\n   * @dev Set to zero the level of the develop\r\n   * @param _address the address of the developer\r\n   */\r\n  function undoLevel(address _address) public onlyOwner {\r\n    Developer memory developer = getDeveloper(_address);\r\n    downLevels(developer.currentEra, developer);\r\n    developers[_address].level = 0;\r\n  }\r\n\r\n  /**\r\n   * @dev Allow the developer to approve tokens from DeveloperPool address. DeveloperPool address must have tokens in SAC TOKEN\r\n   * TODO Check external code call - EXTCALL\r\n   */\r\n  function approve() public override mustBeAbleToApprove returns (bool) {\r\n    Developer memory developer = getDeveloper(msg.sender);\r\n\r\n    uint256 tokens = calcTokens(developer.level, developer.currentEra);\r\n\r\n    sacToken.approveWith(msg.sender, tokens);\r\n\r\n    setEraMetrics(developer.currentEra, tokens);\r\n\r\n    developerNextEra();\r\n\r\n    if (canApprove(developer.currentEra + 1)) approve();\r\n\r\n    return true;\r\n  }\r\n\r\n  /**\r\n   * @dev Add metrics actions to eras. The metrics are numbers of tokens and developers.\r\n   * @param _era The current era that the develop approve() tokens\r\n   * @param _tokens How much tokens the win to this era\r\n   */\r\n  function setEraMetrics(uint256 _era, uint256 _tokens) internal {\r\n    uint256 oneDev = 1;\r\n    Era memory newEra = Era(\r\n      _era,\r\n      _tokens.add(eras[_era].tokens),\r\n      oneDev.add(eras[_era].developers)\r\n    );\r\n    eras[_era] = newEra;\r\n  }\r\n\r\n  /**\r\n   * @dev Allow the dev withdraw tokens from DeveloperPool address to his address\r\n   * TODO Check external code call - EXTCALL\r\n   */\r\n  function withDraw() public override returns (bool) {\r\n    sacToken.transferFrom(address(this), msg.sender, allowance());\r\n    return true;\r\n  }\r\n\r\n  /**\r\n   * @dev Show how much tokens the developer can withdraw from DeveloperPool address\r\n   * TODO Check external code call - EXTCALL\r\n   */\r\n  function allowance() public view override returns (uint256) {\r\n    return sacToken.allowance(address(this), msg.sender);\r\n  }\r\n\r\n  /**\r\n   * @dev Increment a new era to a developer. This funcions called when the developer approve tokens\r\n   */\r\n  function developerNextEra() internal {\r\n    developers[msg.sender].currentEra++;\r\n  }\r\n\r\n  function currentDeveloper() internal view returns (Developer memory) {\r\n    return developers[msg.sender];\r\n  }\r\n\r\n  /**\r\n   * @dev Calc how much tokens the dev can approve in some era\r\n   * @param _level The level of the developer\r\n   * @param _era Era to calc in\r\n   */\r\n  function calcTokens(uint256 _level, uint256 _era) internal view returns (uint256) {\r\n    uint256 _levelsSum = levelsSumPerEra[_era - 1];\r\n    if (_levelsSum == 0) return 0;\r\n    return _level.mul((tokensPerEra.div(_levelsSum)));\r\n  }\r\n\r\n  // MODIFIERS\r\n\r\n  modifier mustBeAbleToApprove() {\r\n    require(canApprove(currentDeveloper().currentEra), \"You can't withdraw yet\");\r\n    _;\r\n  }\r\n}\r\n",
  "sourcePath": "C:\\Users\\bruno.mestres\\Desktop\\core-contracts\\contracts\\DeveloperPool.sol",
  "compiler": {
    "name": "solc",
    "version": "0.8.2+commit.661d1103.Emscripten.clang"
  },
  "schemaVersion": "3.4.8",
  "updatedAt": "2022-07-28T12:01:13.401Z",
  "networkType": "ethereum",
  "devdoc": {
    "author": "Everson B. Silva",
    "details": "DeveloperPool is a contract to reward developers",
    "kind": "dev",
    "methods": {
      "addDeveloper(address)": {
        "details": "Add a new develop to the pool",
        "params": {
          "_address": "the address of the developer"
        }
      },
      "addLevel(address)": {
        "details": "Increment the level of the develop",
        "params": {
          "_address": "the address of the developer"
        }
      },
      "allowance()": {
        "details": "Show how much tokens the developer can withdraw from DeveloperPool address TODO Check external code call - EXTCALL"
      },
      "approve()": {
        "details": "Allow the developer to approve tokens from DeveloperPool address. DeveloperPool address must have tokens in SAC TOKEN TODO Check external code call - EXTCALL"
      },
      "getDeveloper(address)": {
        "details": "Return a specific developer",
        "params": {
          "_address": "the address of the developer"
        }
      },
      "getDevelopersAddress()": {
        "details": "Return the developers address of the system"
      },
      "owner()": {
        "details": "Returns the address of the current owner."
      },
      "renounceOwnership()": {
        "details": "Leaves the contract without owner. It will not be possible to call `onlyOwner` functions anymore. Can only be called by the current owner. NOTE: Renouncing ownership will leave the contract without an owner, thereby removing any functionality that is only available to the owner."
      },
      "transferOwnership(address)": {
        "details": "Transfers ownership of the contract to a new account (`newOwner`). Can only be called by the current owner."
      },
      "undoLevel(address)": {
        "details": "Set to zero the level of the develop",
        "params": {
          "_address": "the address of the developer"
        }
      },
      "withDraw()": {
        "details": "Allow the dev withdraw tokens from DeveloperPool address to his address TODO Check external code call - EXTCALL"
      }
    },
    "title": "DeveloperContract",
    "version": 1
  },
  "userdoc": {
    "kind": "user",
    "methods": {},
    "version": 1
  }
}