{
  "contractName": "IsaPool",
  "abi": [
    {
      "inputs": [
        {
          "internalType": "address",
          "name": "sacTokenAddress",
          "type": "address"
        }
      ],
      "stateMutability": "nonpayable",
      "type": "constructor"
    },
    {
      "anonymous": false,
      "inputs": [
        {
          "indexed": true,
          "internalType": "address",
          "name": "previousOwner",
          "type": "address"
        },
        {
          "indexed": true,
          "internalType": "address",
          "name": "newOwner",
          "type": "address"
        }
      ],
      "name": "OwnershipTransferred",
      "type": "event"
    },
    {
      "inputs": [
        {
          "internalType": "address",
          "name": "",
          "type": "address"
        }
      ],
      "name": "allowedCallers",
      "outputs": [
        {
          "internalType": "bool",
          "name": "",
          "type": "bool"
        }
      ],
      "stateMutability": "view",
      "type": "function",
      "constant": true
    },
    {
      "inputs": [
        {
          "internalType": "address",
          "name": "caller",
          "type": "address"
        }
      ],
      "name": "isAllowedCaller",
      "outputs": [
        {
          "internalType": "bool",
          "name": "",
          "type": "bool"
        }
      ],
      "stateMutability": "view",
      "type": "function",
      "constant": true
    },
    {
      "inputs": [
        {
          "internalType": "address",
          "name": "allowed",
          "type": "address"
        }
      ],
      "name": "newAllowedCaller",
      "outputs": [],
      "stateMutability": "nonpayable",
      "type": "function"
    },
    {
      "inputs": [],
      "name": "owner",
      "outputs": [
        {
          "internalType": "address",
          "name": "",
          "type": "address"
        }
      ],
      "stateMutability": "view",
      "type": "function",
      "constant": true
    },
    {
      "inputs": [],
      "name": "renounceOwnership",
      "outputs": [],
      "stateMutability": "nonpayable",
      "type": "function"
    },
    {
      "inputs": [
        {
          "internalType": "address",
          "name": "newOwner",
          "type": "address"
        }
      ],
      "name": "transferOwnership",
      "outputs": [],
      "stateMutability": "nonpayable",
      "type": "function"
    },
    {
      "inputs": [],
      "name": "allowance",
      "outputs": [
        {
          "internalType": "uint256",
          "name": "",
          "type": "uint256"
        }
      ],
      "stateMutability": "view",
      "type": "function",
      "constant": true
    },
    {
      "inputs": [
        {
          "internalType": "address",
          "name": "tokenOwner",
          "type": "address"
        }
      ],
      "name": "balanceOf",
      "outputs": [
        {
          "internalType": "uint256",
          "name": "",
          "type": "uint256"
        }
      ],
      "stateMutability": "view",
      "type": "function",
      "constant": true
    },
    {
      "inputs": [],
      "name": "balance",
      "outputs": [
        {
          "internalType": "uint256",
          "name": "",
          "type": "uint256"
        }
      ],
      "stateMutability": "view",
      "type": "function",
      "constant": true
    },
    {
      "inputs": [
        {
          "internalType": "address",
          "name": "delegate",
          "type": "address"
        },
        {
          "internalType": "uint256",
          "name": "_numTokens",
          "type": "uint256"
        }
      ],
      "name": "approveWith",
      "outputs": [
        {
          "internalType": "bool",
          "name": "",
          "type": "bool"
        }
      ],
      "stateMutability": "nonpayable",
      "type": "function"
    },
    {
      "inputs": [],
      "name": "withDraw",
      "outputs": [
        {
          "internalType": "bool",
          "name": "",
          "type": "bool"
        }
      ],
      "stateMutability": "pure",
      "type": "function",
      "constant": true
    },
    {
      "inputs": [
        {
          "internalType": "address",
          "name": "tokenOwner",
          "type": "address"
        },
        {
          "internalType": "uint256",
          "name": "numTokens",
          "type": "uint256"
        }
      ],
      "name": "transferWith",
      "outputs": [
        {
          "internalType": "bool",
          "name": "",
          "type": "bool"
        }
      ],
      "stateMutability": "nonpayable",
      "type": "function"
    }
  ],
  "bytecode": "0x60806040523480156200001157600080fd5b5060405162000fce38038062000fce833981810160405281019062000037919062000182565b620000576200004b6200009f60201b60201c565b620000a760201b60201c565b80600260006101000a81548173ffffffffffffffffffffffffffffffffffffffff021916908373ffffffffffffffffffffffffffffffffffffffff16021790555050620001fc565b600033905090565b60008060009054906101000a900473ffffffffffffffffffffffffffffffffffffffff169050816000806101000a81548173ffffffffffffffffffffffffffffffffffffffff021916908373ffffffffffffffffffffffffffffffffffffffff1602179055508173ffffffffffffffffffffffffffffffffffffffff168173ffffffffffffffffffffffffffffffffffffffff167f8be0079c531659141344cd1fd0a4f28419497f9722a3daafe3b4186f6b6457e060405160405180910390a35050565b6000815190506200017c81620001e2565b92915050565b6000602082840312156200019557600080fd5b6000620001a5848285016200016b565b91505092915050565b6000620001bb82620001c2565b9050919050565b600073ffffffffffffffffffffffffffffffffffffffff82169050919050565b620001ed81620001ae565b8114620001f957600080fd5b50565b610dc2806200020c6000396000f3fe608060405234801561001057600080fd5b50600436106100b45760003560e01c80638da5cb5b116100715780638da5cb5b146101a15780638f93716f146101bf578063a6801258146101db578063b69ef8a81461020b578063de242ff414610229578063f2fde38b14610247576100b4565b80630fdb1c10146100b957806344edffbb146100d757806367ff17a61461010757806370a0823114610137578063715018a6146101675780637b33415414610171575b600080fd5b6100c1610263565b6040516100ce9190610bb7565b60405180910390f35b6100f160048036038101906100ec9190610a26565b61026c565b6040516100fe9190610bb7565b60405180910390f35b610121600480360381019061011c9190610a26565b610328565b60405161012e9190610bb7565b60405180910390f35b610151600480360381019061014c91906109fd565b610470565b60405161015e9190610c32565b60405180910390f35b61016f610524565b005b61018b600480360381019061018691906109fd565b6105ac565b6040516101989190610bb7565b60405180910390f35b6101a96105cc565b6040516101b69190610b4a565b60405180910390f35b6101d960048036038101906101d491906109fd565b6105f5565b005b6101f560048036038101906101f091906109fd565b6106cb565b6040516102029190610bb7565b60405180910390f35b610213610721565b6040516102209190610c32565b60405180910390f35b610231610731565b60405161023e9190610c32565b60405180910390f35b610261600480360381019061025c91906109fd565b6107e5565b005b60006001905090565b6000600260009054906101000a900473ffffffffffffffffffffffffffffffffffffffff1673ffffffffffffffffffffffffffffffffffffffff166344edffbb84846040518363ffffffff1660e01b81526004016102cb929190610b8e565b602060405180830381600087803b1580156102e557600080fd5b505af11580156102f9573d6000803e3d6000fd5b505050506040513d601f19601f8201168201806040525081019061031d9190610a62565b506001905092915050565b6000600160003373ffffffffffffffffffffffffffffffffffffffff1673ffffffffffffffffffffffffffffffffffffffff16815260200190815260200160002060009054906101000a900460ff166103b6576040517f08c379a00000000000000000000000000000000000000000000000000000000081526004016103ad90610c12565b60405180910390fd5b600260009054906101000a900473ffffffffffffffffffffffffffffffffffffffff1673ffffffffffffffffffffffffffffffffffffffff166367ff17a684846040518363ffffffff1660e01b8152600401610413929190610b8e565b602060405180830381600087803b15801561042d57600080fd5b505af1158015610441573d6000803e3d6000fd5b505050506040513d601f19601f820116820180604052508101906104659190610a8b565b506001905092915050565b6000600260009054906101000a900473ffffffffffffffffffffffffffffffffffffffff1673ffffffffffffffffffffffffffffffffffffffff166370a08231836040518263ffffffff1660e01b81526004016104cd9190610b4a565b60206040518083038186803b1580156104e557600080fd5b505afa1580156104f9573d6000803e3d6000fd5b505050506040513d601f19601f8201168201806040525081019061051d9190610a8b565b9050919050565b61052c6108dd565b73ffffffffffffffffffffffffffffffffffffffff1661054a6105cc565b73ffffffffffffffffffffffffffffffffffffffff16146105a0576040517f08c379a000000000000000000000000000000000000000000000000000000000815260040161059790610bf2565b60405180910390fd5b6105aa60006108e5565b565b60016020528060005260406000206000915054906101000a900460ff1681565b60008060009054906101000a900473ffffffffffffffffffffffffffffffffffffffff16905090565b6105fd6108dd565b73ffffffffffffffffffffffffffffffffffffffff1661061b6105cc565b73ffffffffffffffffffffffffffffffffffffffff1614610671576040517f08c379a000000000000000000000000000000000000000000000000000000000815260040161066890610bf2565b60405180910390fd5b60018060008373ffffffffffffffffffffffffffffffffffffffff1673ffffffffffffffffffffffffffffffffffffffff16815260200190815260200160002060006101000a81548160ff02191690831515021790555050565b6000600160008373ffffffffffffffffffffffffffffffffffffffff1673ffffffffffffffffffffffffffffffffffffffff16815260200190815260200160002060009054906101000a900460ff169050919050565b600061072c30610470565b905090565b6000600260009054906101000a900473ffffffffffffffffffffffffffffffffffffffff1673ffffffffffffffffffffffffffffffffffffffff1663dd62ed3e30336040518363ffffffff1660e01b8152600401610790929190610b65565b60206040518083038186803b1580156107a857600080fd5b505afa1580156107bc573d6000803e3d6000fd5b505050506040513d601f19601f820116820180604052508101906107e09190610a8b565b905090565b6107ed6108dd565b73ffffffffffffffffffffffffffffffffffffffff1661080b6105cc565b73ffffffffffffffffffffffffffffffffffffffff1614610861576040517f08c379a000000000000000000000000000000000000000000000000000000000815260040161085890610bf2565b60405180910390fd5b600073ffffffffffffffffffffffffffffffffffffffff168173ffffffffffffffffffffffffffffffffffffffff1614156108d1576040517f08c379a00000000000000000000000000000000000000000000000000000000081526004016108c890610bd2565b60405180910390fd5b6108da816108e5565b50565b600033905090565b60008060009054906101000a900473ffffffffffffffffffffffffffffffffffffffff169050816000806101000a81548173ffffffffffffffffffffffffffffffffffffffff021916908373ffffffffffffffffffffffffffffffffffffffff1602179055508173ffffffffffffffffffffffffffffffffffffffff168173ffffffffffffffffffffffffffffffffffffffff167f8be0079c531659141344cd1fd0a4f28419497f9722a3daafe3b4186f6b6457e060405160405180910390a35050565b6000813590506109b881610d47565b92915050565b6000815190506109cd81610d5e565b92915050565b6000813590506109e281610d75565b92915050565b6000815190506109f781610d75565b92915050565b600060208284031215610a0f57600080fd5b6000610a1d848285016109a9565b91505092915050565b60008060408385031215610a3957600080fd5b6000610a47858286016109a9565b9250506020610a58858286016109d3565b9150509250929050565b600060208284031215610a7457600080fd5b6000610a82848285016109be565b91505092915050565b600060208284031215610a9d57600080fd5b6000610aab848285016109e8565b91505092915050565b610abd81610c5e565b82525050565b610acc81610c70565b82525050565b6000610adf602683610c4d565b9150610aea82610ca6565b604082019050919050565b6000610b02602083610c4d565b9150610b0d82610cf5565b602082019050919050565b6000610b25601283610c4d565b9150610b3082610d1e565b602082019050919050565b610b4481610c9c565b82525050565b6000602082019050610b5f6000830184610ab4565b92915050565b6000604082019050610b7a6000830185610ab4565b610b876020830184610ab4565b9392505050565b6000604082019050610ba36000830185610ab4565b610bb06020830184610b3b565b9392505050565b6000602082019050610bcc6000830184610ac3565b92915050565b60006020820190508181036000830152610beb81610ad2565b9050919050565b60006020820190508181036000830152610c0b81610af5565b9050919050565b60006020820190508181036000830152610c2b81610b18565b9050919050565b6000602082019050610c476000830184610b3b565b92915050565b600082825260208201905092915050565b6000610c6982610c7c565b9050919050565b60008115159050919050565b600073ffffffffffffffffffffffffffffffffffffffff82169050919050565b6000819050919050565b7f4f776e61626c653a206e6577206f776e657220697320746865207a65726f206160008201527f6464726573730000000000000000000000000000000000000000000000000000602082015250565b7f4f776e61626c653a2063616c6c6572206973206e6f7420746865206f776e6572600082015250565b7f4e6f7420616c6c6f7765642063616c6c65720000000000000000000000000000600082015250565b610d5081610c5e565b8114610d5b57600080fd5b50565b610d6781610c70565b8114610d7257600080fd5b50565b610d7e81610c9c565b8114610d8957600080fd5b5056fea264697066735822122084120203e8fb44a3f33925ef8eb8360c7a3fab6970c6c988418f4745743b5a1164736f6c63430008020033",
  "immutableReferences": {},
  "source": "// SPDX-License-Identifier: GPL-3.0\npragma solidity >=0.7.0 <=0.9.0;\n\nimport \"./PoolPassiveInterface.sol\";\nimport \"./SacTokenInterface.sol\";\nimport \"@openzeppelin/contracts/access/Ownable.sol\";\nimport \"./Callable.sol\";\n\n/**\n * @author Sintrop\n * @title IsaPool\n * @dev IsaPool is a contract to manage user votes\n */\ncontract IsaPool is PoolPassiveInterface, Ownable, Callable {\n  SacTokenInterface internal sacToken;\n\n  constructor(address sacTokenAddress) {\n    sacToken = SacTokenInterface(sacTokenAddress);\n  }\n\n  /**\n   * @dev Show how much tokens the developer can withdraw from DeveloperPool address\n   * @return uint256\n   * TODO Check external code call - EXTCALL\n   */\n  function allowance() public view override returns (uint256) {\n    return sacToken.allowance(address(this), msg.sender);\n  }\n\n  /**\n   * @dev Allow a user know how much SAC Tokens has\n   * @param tokenOwner The address of the token owner\n   * @return uint256\n   */\n  function balanceOf(address tokenOwner) public view override returns (uint256) {\n    return sacToken.balanceOf(tokenOwner);\n  }\n\n  /**\n   * @dev Allow a user know how much SAC Tokens this pool has\n   */\n  function balance() public view override returns (uint256) {\n    return balanceOf(address(this));\n  }\n\n  /**\n   * @dev Allow a user approve some tokens from pool to he\n   * @param _numTokens How much tokens the user want transfer\n   * @return bool\n   */\n  function approveWith(address delegate, uint256 _numTokens)\n    public\n    override\n    mustBeAllowedCaller\n    returns (bool)\n  {\n    sacToken.approveWith(delegate, _numTokens);\n    return true;\n  }\n\n  function withDraw() public pure override returns (bool) {\n    return true;\n  }\n\n  /**\n   * @dev Allow a user transfer some tokens to this contract pool\n   * @param tokenOwner The address of the token owner\n   * @param numTokens How much tokens the user want transfer\n   * @return bool\n   */\n  function transferWith(address tokenOwner, uint256 numTokens) public override returns (bool) {\n    sacToken.transferWith(tokenOwner, numTokens);\n    return true;\n  }\n}\n",
  "sourcePath": "C:\\Users\\Bruno\\OneDrive\\rea de Trabalho\\core-contracts-main\\contracts\\IsaPool.sol",
  "compiler": {
    "name": "solc",
    "version": "0.8.2+commit.661d1103.Emscripten.clang"
  },
  "schemaVersion": "3.4.7",
  "updatedAt": "2022-07-15T22:15:56.694Z",
  "networkType": "ethereum",
  "devdoc": {
    "author": "Sintrop",
    "details": "IsaPool is a contract to manage user votes",
    "kind": "dev",
    "methods": {
      "allowance()": {
        "details": "Show how much tokens the developer can withdraw from DeveloperPool address",
        "returns": {
          "_0": "uint256 TODO Check external code call - EXTCALL"
        }
      },
      "approveWith(address,uint256)": {
        "details": "Allow a user approve some tokens from pool to he",
        "params": {
          "_numTokens": "How much tokens the user want transfer"
        },
        "returns": {
          "_0": "bool"
        }
      },
      "balance()": {
        "details": "Allow a user know how much SAC Tokens this pool has"
      },
      "balanceOf(address)": {
        "details": "Allow a user know how much SAC Tokens has",
        "params": {
          "tokenOwner": "The address of the token owner"
        },
        "returns": {
          "_0": "uint256"
        }
      },
      "owner()": {
        "details": "Returns the address of the current owner."
      },
      "renounceOwnership()": {
        "details": "Leaves the contract without owner. It will not be possible to call `onlyOwner` functions anymore. Can only be called by the current owner. NOTE: Renouncing ownership will leave the contract without an owner, thereby removing any functionality that is only available to the owner."
      },
      "transferOwnership(address)": {
        "details": "Transfers ownership of the contract to a new account (`newOwner`). Can only be called by the current owner."
      },
      "transferWith(address,uint256)": {
        "details": "Allow a user transfer some tokens to this contract pool",
        "params": {
          "numTokens": "How much tokens the user want transfer",
          "tokenOwner": "The address of the token owner"
        },
        "returns": {
          "_0": "bool"
        }
      }
    },
    "title": "IsaPool",
    "version": 1
  },
  "userdoc": {
    "kind": "user",
    "methods": {},
    "version": 1
  }
}