{
  "contractName": "ProducerPool",
  "abi": [
    {
      "inputs": [
        {
          "internalType": "address",
          "name": "sacTokenAddress",
          "type": "address"
        },
        {
          "internalType": "address",
          "name": "sintropAddress",
          "type": "address"
        }
      ],
      "stateMutability": "nonpayable",
      "type": "constructor"
    },
    {
      "inputs": [],
      "name": "approve",
      "outputs": [
        {
          "internalType": "bool",
          "name": "",
          "type": "bool"
        }
      ],
      "stateMutability": "nonpayable",
      "type": "function"
    },
    {
      "inputs": [],
      "name": "withDraw",
      "outputs": [
        {
          "internalType": "bool",
          "name": "",
          "type": "bool"
        }
      ],
      "stateMutability": "nonpayable",
      "type": "function"
    },
    {
      "inputs": [],
      "name": "allowance",
      "outputs": [
        {
          "internalType": "uint256",
          "name": "",
          "type": "uint256"
        }
      ],
      "stateMutability": "view",
      "type": "function"
    }
  ],
  "bytecode": "0x608060405234801561001057600080fd5b5060405161070c38038061070c833981810160405281019061003291906100cf565b816000806101000a81548173ffffffffffffffffffffffffffffffffffffffff021916908373ffffffffffffffffffffffffffffffffffffffff16021790555080600160006101000a81548173ffffffffffffffffffffffffffffffffffffffff021916908373ffffffffffffffffffffffffffffffffffffffff1602179055505050610154565b6000815190506100c98161013d565b92915050565b600080604083850312156100e257600080fd5b60006100f0858286016100ba565b9250506020610101858286016100ba565b9150509250929050565b60006101168261011d565b9050919050565b600073ffffffffffffffffffffffffffffffffffffffff82169050919050565b6101468161010b565b811461015157600080fd5b50565b6105a9806101636000396000f3fe608060405234801561001057600080fd5b50600436106100415760003560e01c80630fdb1c101461004657806312424e3f14610064578063de242ff414610082575b600080fd5b61004e6100a0565b60405161005b91906104c7565b60405180910390f35b61006c610161565b60405161007991906104c7565b60405180910390f35b61008a6102c7565b60405161009791906104e2565b60405180910390f35b60008060009054906101000a900473ffffffffffffffffffffffffffffffffffffffff1673ffffffffffffffffffffffffffffffffffffffff166323b872dd30336100e96102c7565b6040518463ffffffff1660e01b815260040161010793929190610467565b602060405180830381600087803b15801561012157600080fd5b505af1158015610135573d6000803e3d6000fd5b505050506040513d601f19601f8201168201806040525081019061015991906103a4565b506001905090565b600080600160009054906101000a900473ffffffffffffffffffffffffffffffffffffffff1673ffffffffffffffffffffffffffffffffffffffff16638cf05442336040518263ffffffff1660e01b81526004016101bf9190610423565b60206040518083038186803b1580156101d757600080fd5b505afa1580156101eb573d6000803e3d6000fd5b505050506040513d601f19601f8201168201806040525081019061020f91906103cd565b905060008054906101000a900473ffffffffffffffffffffffffffffffffffffffff1673ffffffffffffffffffffffffffffffffffffffff166367ff17a633836040518363ffffffff1660e01b815260040161026c92919061049e565b602060405180830381600087803b15801561028657600080fd5b505af115801561029a573d6000803e3d6000fd5b505050506040513d601f19601f820116820180604052508101906102be91906103cd565b50600191505090565b60008060009054906101000a900473ffffffffffffffffffffffffffffffffffffffff1673ffffffffffffffffffffffffffffffffffffffff1663dd62ed3e30336040518363ffffffff1660e01b815260040161032592919061043e565b60206040518083038186803b15801561033d57600080fd5b505afa158015610351573d6000803e3d6000fd5b505050506040513d601f19601f8201168201806040525081019061037591906103cd565b905090565b60008151905061038981610545565b92915050565b60008151905061039e8161055c565b92915050565b6000602082840312156103b657600080fd5b60006103c48482850161037a565b91505092915050565b6000602082840312156103df57600080fd5b60006103ed8482850161038f565b91505092915050565b6103ff816104fd565b82525050565b61040e8161050f565b82525050565b61041d8161053b565b82525050565b600060208201905061043860008301846103f6565b92915050565b600060408201905061045360008301856103f6565b61046060208301846103f6565b9392505050565b600060608201905061047c60008301866103f6565b61048960208301856103f6565b6104966040830184610414565b949350505050565b60006040820190506104b360008301856103f6565b6104c06020830184610414565b9392505050565b60006020820190506104dc6000830184610405565b92915050565b60006020820190506104f76000830184610414565b92915050565b60006105088261051b565b9050919050565b60008115159050919050565b600073ffffffffffffffffffffffffffffffffffffffff82169050919050565b6000819050919050565b61054e8161050f565b811461055957600080fd5b50565b6105658161053b565b811461057057600080fd5b5056fea2646970667358221220fbd997db0dce8a2a1acd368f9970ec3583ed6da204fa4c968f24f32fa780d2d264736f6c63430008020033",
  "immutableReferences": {},
  "source": "// SPDX-License-Identifier: GPL-3.0\r\npragma solidity >=0.7.0 <=0.9.0;\r\n\r\nimport \"./PoolInterface.sol\";\r\nimport \"./SintropInterface.sol\";\r\nimport \"./SacTokenInterface.sol\";\r\n\r\ncontract ProducerPool is PoolInterface {\r\n  SacTokenInterface sacToken;\r\n  SintropInterface sintrop;\r\n\r\n  constructor(address sacTokenAddress, address sintropAddress) {\r\n    sacToken = SacTokenInterface(sacTokenAddress);\r\n    sintrop = SintropInterface(sintropAddress);\r\n  }\r\n\r\n  function approve() public override returns (bool) {\r\n    uint256 numTokens = sintrop.getProducerApprove(msg.sender);\r\n\r\n    sacToken.approveWith(msg.sender, numTokens);\r\n    return true;\r\n  }\r\n\r\n  function withDraw() public override returns (bool) {\r\n    sacToken.transferFrom(address(this), msg.sender, allowance());\r\n    return true;\r\n  }\r\n\r\n  function allowance() public view override returns (uint256) {\r\n    return sacToken.allowance(address(this), msg.sender);\r\n  }\r\n}\r\n",
  "sourcePath": "C:\\Users\\emano\\Documents\\Sintrop\\core-contracts\\contracts\\ProducerPool.sol",
  "compiler": {
    "name": "solc",
    "version": "0.8.2+commit.661d1103.Emscripten.clang"
  },
  "schemaVersion": "3.4.7",
  "updatedAt": "2022-06-29T23:40:03.432Z",
  "devdoc": {
    "kind": "dev",
    "methods": {},
    "version": 1
  },
  "userdoc": {
    "kind": "user",
    "methods": {},
    "version": 1
  }
}