{
  "contractName": "ProducerContract",
  "abi": [
    {
      "inputs": [
        {
          "internalType": "address",
          "name": "userContractAddress",
          "type": "address"
        }
      ],
      "stateMutability": "nonpayable",
      "type": "constructor"
    },
    {
      "anonymous": false,
      "inputs": [
        {
          "indexed": true,
          "internalType": "address",
          "name": "previousOwner",
          "type": "address"
        },
        {
          "indexed": true,
          "internalType": "address",
          "name": "newOwner",
          "type": "address"
        }
      ],
      "name": "OwnershipTransferred",
      "type": "event"
    },
    {
      "inputs": [
        {
          "internalType": "address",
          "name": "",
          "type": "address"
        }
      ],
      "name": "allowedCaller",
      "outputs": [
        {
          "internalType": "bool",
          "name": "",
          "type": "bool"
        }
      ],
      "stateMutability": "view",
      "type": "function",
      "constant": true
    },
    {
      "inputs": [
        {
          "internalType": "address",
          "name": "allowed",
          "type": "address"
        }
      ],
      "name": "newAllowedCaller",
      "outputs": [],
      "stateMutability": "nonpayable",
      "type": "function"
    },
    {
      "inputs": [],
      "name": "owner",
      "outputs": [
        {
          "internalType": "address",
          "name": "",
          "type": "address"
        }
      ],
      "stateMutability": "view",
      "type": "function",
      "constant": true
    },
    {
      "inputs": [
        {
          "internalType": "address",
          "name": "",
          "type": "address"
        }
      ],
      "name": "producers",
      "outputs": [
        {
          "internalType": "uint256",
          "name": "id",
          "type": "uint256"
        },
        {
          "internalType": "address",
          "name": "producerWallet",
          "type": "address"
        },
        {
          "internalType": "enum UserType",
          "name": "userType",
          "type": "uint8"
        },
        {
          "internalType": "string",
          "name": "name",
          "type": "string"
        },
        {
          "internalType": "string",
          "name": "document",
          "type": "string"
        },
        {
          "internalType": "string",
          "name": "documentType",
          "type": "string"
        },
        {
          "internalType": "bool",
          "name": "recentInspection",
          "type": "bool"
        },
        {
          "internalType": "uint256",
          "name": "totalRequests",
          "type": "uint256"
        },
        {
          "internalType": "int256",
          "name": "isaPoints",
          "type": "int256"
        },
        {
          "internalType": "uint256",
          "name": "lastRequestAt",
          "type": "uint256"
        },
        {
          "components": [
            {
              "internalType": "uint256",
              "name": "allowed",
              "type": "uint256"
            },
            {
              "internalType": "bool",
              "name": "withdrewToken",
              "type": "bool"
            }
          ],
          "internalType": "struct TokenApprove",
          "name": "tokenApprove",
          "type": "tuple"
        },
        {
          "components": [
            {
              "internalType": "string",
              "name": "country",
              "type": "string"
            },
            {
              "internalType": "string",
              "name": "state",
              "type": "string"
            },
            {
              "internalType": "string",
              "name": "city",
              "type": "string"
            },
            {
              "internalType": "string",
              "name": "cep",
              "type": "string"
            }
          ],
          "internalType": "struct PropertyAddress",
          "name": "propertyAddress",
          "type": "tuple"
        }
      ],
      "stateMutability": "view",
      "type": "function",
      "constant": true
    },
    {
      "inputs": [],
      "name": "producersCount",
      "outputs": [
        {
          "internalType": "uint256",
          "name": "",
          "type": "uint256"
        }
      ],
      "stateMutability": "view",
      "type": "function",
      "constant": true
    },
    {
      "inputs": [],
      "name": "renounceOwnership",
      "outputs": [],
      "stateMutability": "nonpayable",
      "type": "function"
    },
    {
      "inputs": [
        {
          "internalType": "address",
          "name": "newOwner",
          "type": "address"
        }
      ],
      "name": "transferOwnership",
      "outputs": [],
      "stateMutability": "nonpayable",
      "type": "function"
    },
    {
      "inputs": [
        {
          "internalType": "string",
          "name": "name",
          "type": "string"
        },
        {
          "internalType": "string",
          "name": "document",
          "type": "string"
        },
        {
          "internalType": "string",
          "name": "documentType",
          "type": "string"
        },
        {
          "internalType": "string",
          "name": "country",
          "type": "string"
        },
        {
          "internalType": "string",
          "name": "state",
          "type": "string"
        },
        {
          "internalType": "string",
          "name": "city",
          "type": "string"
        },
        {
          "internalType": "string",
          "name": "cep",
          "type": "string"
        }
      ],
      "name": "addProducer",
      "outputs": [],
      "stateMutability": "nonpayable",
      "type": "function"
    },
    {
      "inputs": [],
      "name": "getProducers",
      "outputs": [
        {
          "components": [
            {
              "internalType": "uint256",
              "name": "id",
              "type": "uint256"
            },
            {
              "internalType": "address",
              "name": "producerWallet",
              "type": "address"
            },
            {
              "internalType": "enum UserType",
              "name": "userType",
              "type": "uint8"
            },
            {
              "internalType": "string",
              "name": "name",
              "type": "string"
            },
            {
              "internalType": "string",
              "name": "document",
              "type": "string"
            },
            {
              "internalType": "string",
              "name": "documentType",
              "type": "string"
            },
            {
              "internalType": "bool",
              "name": "recentInspection",
              "type": "bool"
            },
            {
              "internalType": "uint256",
              "name": "totalRequests",
              "type": "uint256"
            },
            {
              "internalType": "int256",
              "name": "isaPoints",
              "type": "int256"
            },
            {
              "internalType": "uint256",
              "name": "lastRequestAt",
              "type": "uint256"
            },
            {
              "components": [
                {
                  "internalType": "uint256",
                  "name": "allowed",
                  "type": "uint256"
                },
                {
                  "internalType": "bool",
                  "name": "withdrewToken",
                  "type": "bool"
                }
              ],
              "internalType": "struct TokenApprove",
              "name": "tokenApprove",
              "type": "tuple"
            },
            {
              "components": [
                {
                  "internalType": "string",
                  "name": "country",
                  "type": "string"
                },
                {
                  "internalType": "string",
                  "name": "state",
                  "type": "string"
                },
                {
                  "internalType": "string",
                  "name": "city",
                  "type": "string"
                },
                {
                  "internalType": "string",
                  "name": "cep",
                  "type": "string"
                }
              ],
              "internalType": "struct PropertyAddress",
              "name": "propertyAddress",
              "type": "tuple"
            }
          ],
          "internalType": "struct Producer[]",
          "name": "",
          "type": "tuple[]"
        }
      ],
      "stateMutability": "view",
      "type": "function",
      "constant": true
    },
    {
      "inputs": [
        {
          "internalType": "address",
          "name": "addr",
          "type": "address"
        }
      ],
      "name": "getProducer",
      "outputs": [
        {
          "components": [
            {
              "internalType": "uint256",
              "name": "id",
              "type": "uint256"
            },
            {
              "internalType": "address",
              "name": "producerWallet",
              "type": "address"
            },
            {
              "internalType": "enum UserType",
              "name": "userType",
              "type": "uint8"
            },
            {
              "internalType": "string",
              "name": "name",
              "type": "string"
            },
            {
              "internalType": "string",
              "name": "document",
              "type": "string"
            },
            {
              "internalType": "string",
              "name": "documentType",
              "type": "string"
            },
            {
              "internalType": "bool",
              "name": "recentInspection",
              "type": "bool"
            },
            {
              "internalType": "uint256",
              "name": "totalRequests",
              "type": "uint256"
            },
            {
              "internalType": "int256",
              "name": "isaPoints",
              "type": "int256"
            },
            {
              "internalType": "uint256",
              "name": "lastRequestAt",
              "type": "uint256"
            },
            {
              "components": [
                {
                  "internalType": "uint256",
                  "name": "allowed",
                  "type": "uint256"
                },
                {
                  "internalType": "bool",
                  "name": "withdrewToken",
                  "type": "bool"
                }
              ],
              "internalType": "struct TokenApprove",
              "name": "tokenApprove",
              "type": "tuple"
            },
            {
              "components": [
                {
                  "internalType": "string",
                  "name": "country",
                  "type": "string"
                },
                {
                  "internalType": "string",
                  "name": "state",
                  "type": "string"
                },
                {
                  "internalType": "string",
                  "name": "city",
                  "type": "string"
                },
                {
                  "internalType": "string",
                  "name": "cep",
                  "type": "string"
                }
              ],
              "internalType": "struct PropertyAddress",
              "name": "propertyAddress",
              "type": "tuple"
            }
          ],
          "internalType": "struct Producer",
          "name": "producer",
          "type": "tuple"
        }
      ],
      "stateMutability": "view",
      "type": "function",
      "constant": true
    },
    {
      "inputs": [
        {
          "internalType": "address",
          "name": "addr",
          "type": "address"
        }
      ],
      "name": "producerExists",
      "outputs": [
        {
          "internalType": "bool",
          "name": "",
          "type": "bool"
        }
      ],
      "stateMutability": "view",
      "type": "function",
      "constant": true
    },
    {
      "inputs": [
        {
          "internalType": "address",
          "name": "addr",
          "type": "address"
        },
        {
          "internalType": "bool",
          "name": "state",
          "type": "bool"
        }
      ],
      "name": "recentInspection",
      "outputs": [],
      "stateMutability": "nonpayable",
      "type": "function"
    },
    {
      "inputs": [
        {
          "internalType": "address",
          "name": "addr",
          "type": "address"
        },
        {
          "internalType": "int256",
          "name": "isaPoints",
          "type": "int256"
        }
      ],
      "name": "updateIsaPoints",
      "outputs": [],
      "stateMutability": "nonpayable",
      "type": "function"
    },
    {
      "inputs": [
        {
          "internalType": "address",
          "name": "addr",
          "type": "address"
        }
      ],
      "name": "incrementRequests",
      "outputs": [],
      "stateMutability": "nonpayable",
      "type": "function"
    },
    {
      "inputs": [
        {
          "internalType": "address",
          "name": "addr",
          "type": "address"
        },
        {
          "internalType": "uint256",
          "name": "numTokens",
          "type": "uint256"
        }
      ],
      "name": "approveProducerNewTokens",
      "outputs": [],
      "stateMutability": "nonpayable",
      "type": "function"
    },
    {
      "inputs": [
        {
          "internalType": "address",
          "name": "addr",
          "type": "address"
        },
        {
          "internalType": "uint256",
          "name": "blocksNumber",
          "type": "uint256"
        }
      ],
      "name": "lastRequestAt",
      "outputs": [],
      "stateMutability": "nonpayable",
      "type": "function"
    },
    {
      "inputs": [
        {
          "internalType": "address",
          "name": "address_",
          "type": "address"
        }
      ],
      "name": "getProducerApprove",
      "outputs": [
        {
          "internalType": "uint256",
          "name": "",
          "type": "uint256"
        }
      ],
      "stateMutability": "view",
      "type": "function",
      "constant": true
    }
  ],
  "bytecode": "0x60806040523480156200001157600080fd5b506040516200355d3803806200355d833981810160405281019062000037919062000182565b620000576200004b6200009f60201b60201c565b620000a760201b60201c565b80600360006101000a81548173ffffffffffffffffffffffffffffffffffffffff021916908373ffffffffffffffffffffffffffffffffffffffff16021790555050620001fc565b600033905090565b60008060009054906101000a900473ffffffffffffffffffffffffffffffffffffffff169050816000806101000a81548173ffffffffffffffffffffffffffffffffffffffff021916908373ffffffffffffffffffffffffffffffffffffffff1602179055508173ffffffffffffffffffffffffffffffffffffffff168173ffffffffffffffffffffffffffffffffffffffff167f8be0079c531659141344cd1fd0a4f28419497f9722a3daafe3b4186f6b6457e060405160405180910390a35050565b6000815190506200017c81620001e2565b92915050565b6000602082840312156200019557600080fd5b6000620001a5848285016200016b565b91505092915050565b6000620001bb82620001c2565b9050919050565b600073ffffffffffffffffffffffffffffffffffffffff82169050919050565b620001ed81620001ae565b8114620001f957600080fd5b50565b613351806200020c6000396000f3fe608060405234801561001057600080fd5b506004361061010b5760003560e01c80638ed5540d116100a2578063c19c903711610071578063c19c9037146102ab578063e53142e2146102c7578063e80a7eb9146102e5578063e9e797ac14610303578063f2fde38b146103335761010b565b80638ed5540d146102275780638f93716f14610243578063aab147b21461025f578063b08ab0611461028f5761010b565b8063715018a6116100de578063715018a61461019f57806372eb8caf146101a95780638cf05442146101d95780638da5cb5b146102095761010b565b80632253eee41461011057806326324eff1461012c578063360912ab1461016757806364ff847714610183575b600080fd5b61012a6004803603810190610125919061252e565b61034f565b005b610146600480360381019061014191906124c9565b610426565b60405161015e9c9b9a99989796959493929190612dc7565b60405180910390f35b610181600480360381019061017c91906124f2565b6108d9565b005b61019d6004803603810190610198919061256a565b6109c3565b005b6101a7610a9a565b005b6101c360048036038101906101be91906124c9565b610b22565b6040516101d09190612cef565b60405180910390f35b6101f360048036038101906101ee91906124c9565b610b42565b6040516102009190612dac565b60405180910390f35b610211610b91565b60405161021e9190612c89565b60405180910390f35b610241600480360381019061023c91906125a6565b610bba565b005b61025d600480360381019061025891906124c9565b611045565b005b610279600480360381019061027491906124c9565b61111b565b6040516102869190612d8a565b60405180910390f35b6102a960048036038101906102a4919061256a565b6116e0565b005b6102c560048036038101906102c091906124c9565b611850565b005b6102cf611937565b6040516102dc9190612dac565b60405180910390f35b6102ed61193d565b6040516102fa9190612ccd565b60405180910390f35b61031d600480360381019061031891906124c9565b61204b565b60405161032a9190612cef565b60405180910390f35b61034d600480360381019061034891906124c9565b6120a5565b005b600160003373ffffffffffffffffffffffffffffffffffffffff1673ffffffffffffffffffffffffffffffffffffffff16815260200190815260200160002060009054906101000a900460ff166103db576040517f08c379a00000000000000000000000000000000000000000000000000000000081526004016103d290612d6a565b60405180910390fd5b80600260008473ffffffffffffffffffffffffffffffffffffffff1673ffffffffffffffffffffffffffffffffffffffff168152602001908152602001600020600701819055505050565b60026020528060005260406000206000915090508060000154908060010160009054906101000a900473ffffffffffffffffffffffffffffffffffffffff16908060010160149054906101000a900460ff169080600201805461048890613068565b80601f01602080910402602001604051908101604052809291908181526020018280546104b490613068565b80156105015780601f106104d657610100808354040283529160200191610501565b820191906000526020600020905b8154815290600101906020018083116104e457829003601f168201915b50505050509080600301805461051690613068565b80601f016020809104026020016040519081016040528092919081815260200182805461054290613068565b801561058f5780601f106105645761010080835404028352916020019161058f565b820191906000526020600020905b81548152906001019060200180831161057257829003601f168201915b5050505050908060040180546105a490613068565b80601f01602080910402602001604051908101604052809291908181526020018280546105d090613068565b801561061d5780601f106105f25761010080835404028352916020019161061d565b820191906000526020600020905b81548152906001019060200180831161060057829003601f168201915b5050505050908060050160009054906101000a900460ff169080600601549080600701549080600801549080600901604051806040016040529081600082015481526020016001820160009054906101000a900460ff1615151515815250509080600b0160405180608001604052908160008201805461069c90613068565b80601f01602080910402602001604051908101604052809291908181526020018280546106c890613068565b80156107155780601f106106ea57610100808354040283529160200191610715565b820191906000526020600020905b8154815290600101906020018083116106f857829003601f168201915b5050505050815260200160018201805461072e90613068565b80601f016020809104026020016040519081016040528092919081815260200182805461075a90613068565b80156107a75780601f1061077c576101008083540402835291602001916107a7565b820191906000526020600020905b81548152906001019060200180831161078a57829003601f168201915b505050505081526020016002820180546107c090613068565b80601f01602080910402602001604051908101604052809291908181526020018280546107ec90613068565b80156108395780601f1061080e57610100808354040283529160200191610839565b820191906000526020600020905b81548152906001019060200180831161081c57829003601f168201915b5050505050815260200160038201805461085290613068565b80601f016020809104026020016040519081016040528092919081815260200182805461087e90613068565b80156108cb5780601f106108a0576101008083540402835291602001916108cb565b820191906000526020600020905b8154815290600101906020018083116108ae57829003601f168201915b50505050508152505090508c565b600160003373ffffffffffffffffffffffffffffffffffffffff1673ffffffffffffffffffffffffffffffffffffffff16815260200190815260200160002060009054906101000a900460ff16610965576040517f08c379a000000000000000000000000000000000000000000000000000000000815260040161095c90612d6a565b60405180910390fd5b80600260008473ffffffffffffffffffffffffffffffffffffffff1673ffffffffffffffffffffffffffffffffffffffff16815260200190815260200160002060050160006101000a81548160ff0219169083151502179055505050565b600160003373ffffffffffffffffffffffffffffffffffffffff1673ffffffffffffffffffffffffffffffffffffffff16815260200190815260200160002060009054906101000a900460ff16610a4f576040517f08c379a0000000000000000000000000000000000000000000000000000000008152600401610a4690612d6a565b60405180910390fd5b80600260008473ffffffffffffffffffffffffffffffffffffffff1673ffffffffffffffffffffffffffffffffffffffff168152602001908152602001600020600801819055505050565b610aa261219d565b73ffffffffffffffffffffffffffffffffffffffff16610ac0610b91565b73ffffffffffffffffffffffffffffffffffffffff1614610b16576040517f08c379a0000000000000000000000000000000000000000000000000000000008152600401610b0d90612d4a565b60405180910390fd5b610b2060006121a5565b565b60016020528060005260406000206000915054906101000a900460ff1681565b6000600260008373ffffffffffffffffffffffffffffffffffffffff1673ffffffffffffffffffffffffffffffffffffffff168152602001908152602001600020600901600001549050919050565b60008060009054906101000a900473ffffffffffffffffffffffffffffffffffffffff16905090565b610bc33361204b565b15610c03576040517f08c379a0000000000000000000000000000000000000000000000000000000008152600401610bfa90612d2a565b60405180910390fd5b60006001905060006040518061018001604052806001600554610c269190612f59565b81526020013373ffffffffffffffffffffffffffffffffffffffff168152602001836007811115610c80577f4e487b7100000000000000000000000000000000000000000000000000000000600052602160045260246000fd5b81526020018a8152602001898152602001888152602001600015158152602001600081526020016000815260200160008152602001604051806040016040528060008152602001600015158152508152602001604051806080016040528089815260200188815260200187815260200186815250815250905080600260003373ffffffffffffffffffffffffffffffffffffffff1673ffffffffffffffffffffffffffffffffffffffff1681526020019081526020016000206000820151816000015560208201518160010160006101000a81548173ffffffffffffffffffffffffffffffffffffffff021916908373ffffffffffffffffffffffffffffffffffffffff16021790555060408201518160010160146101000a81548160ff02191690836007811115610ddb577f4e487b7100000000000000000000000000000000000000000000000000000000600052602160045260246000fd5b02179055506060820151816002019080519060200190610dfc929190612269565b506080820151816003019080519060200190610e19929190612269565b5060a0820151816004019080519060200190610e36929190612269565b5060c08201518160050160006101000a81548160ff02191690831515021790555060e0820151816006015561010082015181600701556101208201518160080155610140820151816009016000820151816000015560208201518160010160006101000a81548160ff021916908315150217905550505061016082015181600b016000820151816000019080519060200190610ed3929190612269565b506020820151816001019080519060200190610ef0929190612269565b506040820151816002019080519060200190610f0d929190612269565b506060820151816003019080519060200190610f2a929190612269565b5050509050506004339080600181540180825580915050600190039060005260206000200160009091909190916101000a81548173ffffffffffffffffffffffffffffffffffffffff021916908373ffffffffffffffffffffffffffffffffffffffff16021790555060056000815480929190610fa6906130cb565b9190505550600360009054906101000a900473ffffffffffffffffffffffffffffffffffffffff1673ffffffffffffffffffffffffffffffffffffffff16639c3eead933846040518363ffffffff1660e01b8152600401611008929190612ca4565b600060405180830381600087803b15801561102257600080fd5b505af1158015611036573d6000803e3d6000fd5b50505050505050505050505050565b61104d61219d565b73ffffffffffffffffffffffffffffffffffffffff1661106b610b91565b73ffffffffffffffffffffffffffffffffffffffff16146110c1576040517f08c379a00000000000000000000000000000000000000000000000000000000081526004016110b890612d4a565b60405180910390fd5b60018060008373ffffffffffffffffffffffffffffffffffffffff1673ffffffffffffffffffffffffffffffffffffffff16815260200190815260200160002060006101000a81548160ff02191690831515021790555050565b6111236122ef565b600260008373ffffffffffffffffffffffffffffffffffffffff1673ffffffffffffffffffffffffffffffffffffffff16815260200190815260200160002060405180610180016040529081600082015481526020016001820160009054906101000a900473ffffffffffffffffffffffffffffffffffffffff1673ffffffffffffffffffffffffffffffffffffffff1673ffffffffffffffffffffffffffffffffffffffff1681526020016001820160149054906101000a900460ff166007811115611219577f4e487b7100000000000000000000000000000000000000000000000000000000600052602160045260246000fd5b6007811115611251577f4e487b7100000000000000000000000000000000000000000000000000000000600052602160045260246000fd5b815260200160028201805461126590613068565b80601f016020809104026020016040519081016040528092919081815260200182805461129190613068565b80156112de5780601f106112b3576101008083540402835291602001916112de565b820191906000526020600020905b8154815290600101906020018083116112c157829003601f168201915b505050505081526020016003820180546112f790613068565b80601f016020809104026020016040519081016040528092919081815260200182805461132390613068565b80156113705780601f1061134557610100808354040283529160200191611370565b820191906000526020600020905b81548152906001019060200180831161135357829003601f168201915b5050505050815260200160048201805461138990613068565b80601f01602080910402602001604051908101604052809291908181526020018280546113b590613068565b80156114025780601f106113d757610100808354040283529160200191611402565b820191906000526020600020905b8154815290600101906020018083116113e557829003601f168201915b505050505081526020016005820160009054906101000a900460ff1615151515815260200160068201548152602001600782015481526020016008820154815260200160098201604051806040016040529081600082015481526020016001820160009054906101000a900460ff1615151515815250508152602001600b820160405180608001604052908160008201805461149d90613068565b80601f01602080910402602001604051908101604052809291908181526020018280546114c990613068565b80156115165780601f106114eb57610100808354040283529160200191611516565b820191906000526020600020905b8154815290600101906020018083116114f957829003601f168201915b5050505050815260200160018201805461152f90613068565b80601f016020809104026020016040519081016040528092919081815260200182805461155b90613068565b80156115a85780601f1061157d576101008083540402835291602001916115a8565b820191906000526020600020905b81548152906001019060200180831161158b57829003601f168201915b505050505081526020016002820180546115c190613068565b80601f01602080910402602001604051908101604052809291908181526020018280546115ed90613068565b801561163a5780601f1061160f5761010080835404028352916020019161163a565b820191906000526020600020905b81548152906001019060200180831161161d57829003601f168201915b5050505050815260200160038201805461165390613068565b80601f016020809104026020016040519081016040528092919081815260200182805461167f90613068565b80156116cc5780601f106116a1576101008083540402835291602001916116cc565b820191906000526020600020905b8154815290600101906020018083116116af57829003601f168201915b505050505081525050815250509050919050565b600160003373ffffffffffffffffffffffffffffffffffffffff1673ffffffffffffffffffffffffffffffffffffffff16815260200190815260200160002060009054906101000a900460ff1661176c576040517f08c379a000000000000000000000000000000000000000000000000000000000815260040161176390612d6a565b60405180910390fd5b6000600260008473ffffffffffffffffffffffffffffffffffffffff1673ffffffffffffffffffffffffffffffffffffffff168152602001908152602001600020600901600001549050604051806040016040528083836117cd9190612f59565b925082815260200160001515815250600260008573ffffffffffffffffffffffffffffffffffffffff1673ffffffffffffffffffffffffffffffffffffffff1681526020019081526020016000206009016000820151816000015560208201518160010160006101000a81548160ff021916908315150217905550905050505050565b600160003373ffffffffffffffffffffffffffffffffffffffff1673ffffffffffffffffffffffffffffffffffffffff16815260200190815260200160002060009054906101000a900460ff166118dc576040517f08c379a00000000000000000000000000000000000000000000000000000000081526004016118d390612d6a565b60405180910390fd5b600260008273ffffffffffffffffffffffffffffffffffffffff1673ffffffffffffffffffffffffffffffffffffffff168152602001908152602001600020600601600081548092919061192f906130cb565b919050555050565b60055481565b6060600060055467ffffffffffffffff811115611983577f4e487b7100000000000000000000000000000000000000000000000000000000600052604160045260246000fd5b6040519080825280602002602001820160405280156119bc57816020015b6119a96122ef565b8152602001906001900390816119a15790505b50905060005b60055481101561204357600060048281548110611a08577f4e487b7100000000000000000000000000000000000000000000000000000000600052603260045260246000fd5b9060005260206000200160009054906101000a900473ffffffffffffffffffffffffffffffffffffffff169050600260008273ffffffffffffffffffffffffffffffffffffffff1673ffffffffffffffffffffffffffffffffffffffff16815260200190815260200160002060405180610180016040529081600082015481526020016001820160009054906101000a900473ffffffffffffffffffffffffffffffffffffffff1673ffffffffffffffffffffffffffffffffffffffff1673ffffffffffffffffffffffffffffffffffffffff1681526020016001820160149054906101000a900460ff166007811115611b2b577f4e487b7100000000000000000000000000000000000000000000000000000000600052602160045260246000fd5b6007811115611b63577f4e487b7100000000000000000000000000000000000000000000000000000000600052602160045260246000fd5b8152602001600282018054611b7790613068565b80601f0160208091040260200160405190810160405280929190818152602001828054611ba390613068565b8015611bf05780601f10611bc557610100808354040283529160200191611bf0565b820191906000526020600020905b815481529060010190602001808311611bd357829003601f168201915b50505050508152602001600382018054611c0990613068565b80601f0160208091040260200160405190810160405280929190818152602001828054611c3590613068565b8015611c825780601f10611c5757610100808354040283529160200191611c82565b820191906000526020600020905b815481529060010190602001808311611c6557829003601f168201915b50505050508152602001600482018054611c9b90613068565b80601f0160208091040260200160405190810160405280929190818152602001828054611cc790613068565b8015611d145780601f10611ce957610100808354040283529160200191611d14565b820191906000526020600020905b815481529060010190602001808311611cf757829003601f168201915b505050505081526020016005820160009054906101000a900460ff1615151515815260200160068201548152602001600782015481526020016008820154815260200160098201604051806040016040529081600082015481526020016001820160009054906101000a900460ff1615151515815250508152602001600b8201604051806080016040529081600082018054611daf90613068565b80601f0160208091040260200160405190810160405280929190818152602001828054611ddb90613068565b8015611e285780601f10611dfd57610100808354040283529160200191611e28565b820191906000526020600020905b815481529060010190602001808311611e0b57829003601f168201915b50505050508152602001600182018054611e4190613068565b80601f0160208091040260200160405190810160405280929190818152602001828054611e6d90613068565b8015611eba5780601f10611e8f57610100808354040283529160200191611eba565b820191906000526020600020905b815481529060010190602001808311611e9d57829003601f168201915b50505050508152602001600282018054611ed390613068565b80601f0160208091040260200160405190810160405280929190818152602001828054611eff90613068565b8015611f4c5780601f10611f2157610100808354040283529160200191611f4c565b820191906000526020600020905b815481529060010190602001808311611f2f57829003601f168201915b50505050508152602001600382018054611f6590613068565b80601f0160208091040260200160405190810160405280929190818152602001828054611f9190613068565b8015611fde5780601f10611fb357610100808354040283529160200191611fde565b820191906000526020600020905b815481529060010190602001808311611fc157829003601f168201915b50505050508152505081525050838381518110612024577f4e487b7100000000000000000000000000000000000000000000000000000000600052603260045260246000fd5b602002602001018190525050808061203b906130cb565b9150506119c2565b508091505090565b600080600260008473ffffffffffffffffffffffffffffffffffffffff1673ffffffffffffffffffffffffffffffffffffffff168152602001908152602001600020600201805461209b90613068565b9050119050919050565b6120ad61219d565b73ffffffffffffffffffffffffffffffffffffffff166120cb610b91565b73ffffffffffffffffffffffffffffffffffffffff1614612121576040517f08c379a000000000000000000000000000000000000000000000000000000000815260040161211890612d4a565b60405180910390fd5b600073ffffffffffffffffffffffffffffffffffffffff168173ffffffffffffffffffffffffffffffffffffffff161415612191576040517f08c379a000000000000000000000000000000000000000000000000000000000815260040161218890612d0a565b60405180910390fd5b61219a816121a5565b50565b600033905090565b60008060009054906101000a900473ffffffffffffffffffffffffffffffffffffffff169050816000806101000a81548173ffffffffffffffffffffffffffffffffffffffff021916908373ffffffffffffffffffffffffffffffffffffffff1602179055508173ffffffffffffffffffffffffffffffffffffffff168173ffffffffffffffffffffffffffffffffffffffff167f8be0079c531659141344cd1fd0a4f28419497f9722a3daafe3b4186f6b6457e060405160405180910390a35050565b82805461227590613068565b90600052602060002090601f01602090048101928261229757600085556122de565b82601f106122b057805160ff19168380011785556122de565b828001600101855582156122de579182015b828111156122dd5782518255916020019190600101906122c2565b5b5090506122eb91906123ac565b5090565b60405180610180016040528060008152602001600073ffffffffffffffffffffffffffffffffffffffff16815260200160006007811115612359577f4e487b7100000000000000000000000000000000000000000000000000000000600052602160045260246000fd5b81526020016060815260200160608152602001606081526020016000151581526020016000815260200160008152602001600081526020016123996123c9565b81526020016123a66123e5565b81525090565b5b808211156123c55760008160009055506001016123ad565b5090565b6040518060400160405280600081526020016000151581525090565b6040518060800160405280606081526020016060815260200160608152602001606081525090565b600061242061241b84612ec2565b612e9d565b90508281526020810184848401111561243857600080fd5b612443848285613026565b509392505050565b60008135905061245a816132bf565b92915050565b60008135905061246f816132d6565b92915050565b600081359050612484816132ed565b92915050565b600082601f83011261249b57600080fd5b81356124ab84826020860161240d565b91505092915050565b6000813590506124c381613304565b92915050565b6000602082840312156124db57600080fd5b60006124e98482850161244b565b91505092915050565b6000806040838503121561250557600080fd5b60006125138582860161244b565b925050602061252485828601612460565b9150509250929050565b6000806040838503121561254157600080fd5b600061254f8582860161244b565b925050602061256085828601612475565b9150509250929050565b6000806040838503121561257d57600080fd5b600061258b8582860161244b565b925050602061259c858286016124b4565b9150509250929050565b600080600080600080600060e0888a0312156125c157600080fd5b600088013567ffffffffffffffff8111156125db57600080fd5b6125e78a828b0161248a565b975050602088013567ffffffffffffffff81111561260457600080fd5b6126108a828b0161248a565b965050604088013567ffffffffffffffff81111561262d57600080fd5b6126398a828b0161248a565b955050606088013567ffffffffffffffff81111561265657600080fd5b6126628a828b0161248a565b945050608088013567ffffffffffffffff81111561267f57600080fd5b61268b8a828b0161248a565b93505060a088013567ffffffffffffffff8111156126a857600080fd5b6126b48a828b0161248a565b92505060c088013567ffffffffffffffff8111156126d157600080fd5b6126dd8a828b0161248a565b91505092959891949750929550565b60006126f883836128eb565b905092915050565b61270981612faf565b82525050565b61271881612faf565b82525050565b600061272982612f03565b6127338185612f26565b93508360208202850161274585612ef3565b8060005b85811015612781578484038952815161276285826126ec565b945061276d83612f19565b925060208a01995050600181019050612749565b50829750879550505050505092915050565b61279c81612fc1565b82525050565b6127ab81612fc1565b82525050565b6127ba81613014565b82525050565b6127c981613014565b82525050565b6127d881612fe0565b82525050565b6127e781612fe0565b82525050565b60006127f882612f0e565b6128028185612f37565b9350612812818560208601613035565b61281b816131d0565b840191505092915050565b600061283182612f0e565b61283b8185612f48565b935061284b818560208601613035565b612854816131d0565b840191505092915050565b600061286c602683612f48565b9150612877826131e1565b604082019050919050565b600061288f601b83612f48565b915061289a82613230565b602082019050919050565b60006128b2602083612f48565b91506128bd82613259565b602082019050919050565b60006128d5601283612f48565b91506128e082613282565b602082019050919050565b60006101a0830160008301516129046000860182612c6b565b5060208301516129176020860182612700565b50604083015161292a60408601826127b1565b506060830151848203606086015261294282826127ed565b9150506080830151848203608086015261295c82826127ed565b91505060a083015184820360a086015261297682826127ed565b91505060c083015161298b60c0860182612793565b5060e083015161299e60e0860182612c6b565b506101008301516129b36101008601826127cf565b506101208301516129c8610120860182612c6b565b506101408301516129dd610140860182612c0d565b506101608301518482036101808601526129f78282612b1d565b9150508091505092915050565b60006101a083016000830151612a1d6000860182612c6b565b506020830151612a306020860182612700565b506040830151612a4360408601826127b1565b5060608301518482036060860152612a5b82826127ed565b91505060808301518482036080860152612a7582826127ed565b91505060a083015184820360a0860152612a8f82826127ed565b91505060c0830151612aa460c0860182612793565b5060e0830151612ab760e0860182612c6b565b50610100830151612acc6101008601826127cf565b50610120830151612ae1610120860182612c6b565b50610140830151612af6610140860182612c0d565b50610160830151848203610180860152612b108282612b1d565b9150508091505092915050565b60006080830160008301518482036000860152612b3a82826127ed565b91505060208301518482036020860152612b5482826127ed565b91505060408301518482036040860152612b6e82826127ed565b91505060608301518482036060860152612b8882826127ed565b9150508091505092915050565b60006080830160008301518482036000860152612bb282826127ed565b91505060208301518482036020860152612bcc82826127ed565b91505060408301518482036040860152612be682826127ed565b91505060608301518482036060860152612c0082826127ed565b9150508091505092915050565b604082016000820151612c236000850182612c6b565b506020820151612c366020850182612793565b50505050565b604082016000820151612c526000850182612c6b565b506020820151612c656020850182612793565b50505050565b612c748161300a565b82525050565b612c838161300a565b82525050565b6000602082019050612c9e600083018461270f565b92915050565b6000604082019050612cb9600083018561270f565b612cc660208301846127c0565b9392505050565b60006020820190508181036000830152612ce7818461271e565b905092915050565b6000602082019050612d0460008301846127a2565b92915050565b60006020820190508181036000830152612d238161285f565b9050919050565b60006020820190508181036000830152612d4381612882565b9050919050565b60006020820190508181036000830152612d63816128a5565b9050919050565b60006020820190508181036000830152612d83816128c8565b9050919050565b60006020820190508181036000830152612da48184612a04565b905092915050565b6000602082019050612dc16000830184612c7a565b92915050565b60006101a082019050612ddd600083018f612c7a565b612dea602083018e61270f565b612df7604083018d6127c0565b8181036060830152612e09818c612826565b90508181036080830152612e1d818b612826565b905081810360a0830152612e31818a612826565b9050612e4060c08301896127a2565b612e4d60e0830188612c7a565b612e5b6101008301876127de565b612e69610120830186612c7a565b612e77610140830185612c3c565b818103610180830152612e8a8184612b95565b90509d9c50505050505050505050505050565b6000612ea7612eb8565b9050612eb3828261309a565b919050565b6000604051905090565b600067ffffffffffffffff821115612edd57612edc6131a1565b5b612ee6826131d0565b9050602081019050919050565b6000819050602082019050919050565b600081519050919050565b600081519050919050565b6000602082019050919050565b600082825260208201905092915050565b600082825260208201905092915050565b600082825260208201905092915050565b6000612f648261300a565b9150612f6f8361300a565b9250827fffffffffffffffffffffffffffffffffffffffffffffffffffffffffffffffff03821115612fa457612fa3613114565b5b828201905092915050565b6000612fba82612fea565b9050919050565b60008115159050919050565b6000819050612fdb826132ab565b919050565b6000819050919050565b600073ffffffffffffffffffffffffffffffffffffffff82169050919050565b6000819050919050565b600061301f82612fcd565b9050919050565b82818337600083830152505050565b60005b83811015613053578082015181840152602081019050613038565b83811115613062576000848401525b50505050565b6000600282049050600182168061308057607f821691505b6020821081141561309457613093613172565b5b50919050565b6130a3826131d0565b810181811067ffffffffffffffff821117156130c2576130c16131a1565b5b80604052505050565b60006130d68261300a565b91507fffffffffffffffffffffffffffffffffffffffffffffffffffffffffffffffff82141561310957613108613114565b5b600182019050919050565b7f4e487b7100000000000000000000000000000000000000000000000000000000600052601160045260246000fd5b7f4e487b7100000000000000000000000000000000000000000000000000000000600052602160045260246000fd5b7f4e487b7100000000000000000000000000000000000000000000000000000000600052602260045260246000fd5b7f4e487b7100000000000000000000000000000000000000000000000000000000600052604160045260246000fd5b6000601f19601f8301169050919050565b7f4f776e61626c653a206e6577206f776e657220697320746865207a65726f206160008201527f6464726573730000000000000000000000000000000000000000000000000000602082015250565b7f546869732070726f647563657220616c72656164792065786973740000000000600082015250565b7f4f776e61626c653a2063616c6c6572206973206e6f7420746865206f776e6572600082015250565b7f4e6f7420616c6c6f7765642063616c6c65720000000000000000000000000000600082015250565b600881106132bc576132bb613143565b5b50565b6132c881612faf565b81146132d357600080fd5b50565b6132df81612fc1565b81146132ea57600080fd5b50565b6132f681612fe0565b811461330157600080fd5b50565b61330d8161300a565b811461331857600080fd5b5056fea2646970667358221220476aebdf3517250dc1270f9cfbf1a20027bef2df597e3d254c6e3db5c0d8be1464736f6c63430008020033",
  "immutableReferences": {},
  "source": "// SPDX-License-Identifier: GPL-3.0\r\npragma solidity >=0.7.0 <=0.9.0;\r\n\r\nimport \"./UserContract.sol\";\r\nimport \"./types/ProducerTypes.sol\";\r\nimport \"./Callable.sol\";\r\n\r\n/**\r\n * @title ProducerContract\r\n * @dev Producer resource that represent a user that can request a inspection\r\n */\r\ncontract ProducerContract is Callable {\r\n  mapping(address => Producer) public producers;\r\n\r\n  UserContract internal userContract;\r\n  address[] internal producersAddress;\r\n  uint256 public producersCount;\r\n\r\n  constructor(address userContractAddress) {\r\n    userContract = UserContract(userContractAddress);\r\n  }\r\n\r\n  /**\r\n   * @dev Allow a new register of producer\r\n   * @param name the name of the producer\r\n   * @param document the document of producer\r\n   * @param documentType the document type of producer. CPF/CNPJ\r\n   * @param country the country where the producer is\r\n   * @param state the state of the producer\r\n   * @param city the of the producer\r\n   * @param cep the cep of the producer\r\n   */\r\n  function addProducer(\r\n    string memory name,\r\n    string memory document,\r\n    string memory documentType,\r\n    string memory country,\r\n    string memory state,\r\n    string memory city,\r\n    string memory cep\r\n  ) public uniqueProducer {\r\n    UserType userType = UserType.PRODUCER;\r\n\r\n    Producer memory producer = Producer(\r\n      producersCount + 1,\r\n      msg.sender,\r\n      userType,\r\n      name,\r\n      document,\r\n      documentType,\r\n      false,\r\n      0,\r\n      0,\r\n      0,\r\n      TokenApprove(0, false),\r\n      PropertyAddress(country, state, city, cep)\r\n    );\r\n\r\n    producers[msg.sender] = producer;\r\n    producersAddress.push(msg.sender);\r\n    producersCount++;\r\n    userContract.addUser(msg.sender, userType);\r\n  }\r\n\r\n  /**\r\n   * @dev Returns all registered producers\r\n   * @return Producer struct array\r\n   */\r\n  function getProducers() public view returns (Producer[] memory) {\r\n    Producer[] memory activistList = new Producer[](producersCount);\r\n\r\n    for (uint256 i = 0; i < producersCount; i++) {\r\n      address acAddress = producersAddress[i];\r\n      activistList[i] = producers[acAddress];\r\n    }\r\n\r\n    return activistList;\r\n  }\r\n\r\n  /**\r\n   * @dev Return a specific producer\r\n   * @param addr the address of the producer.\r\n   */\r\n  function getProducer(address addr) public view returns (Producer memory producer) {\r\n    return producers[addr];\r\n  }\r\n\r\n  /**\r\n   * @dev Check if a specific producer exists\r\n   * @return a bool that represent if a producer exists or not\r\n   */\r\n  function producerExists(address addr) public view returns (bool) {\r\n    return bytes(producers[addr].name).length > 0;\r\n  }\r\n\r\n  function recentInspection(address addr, bool state) public mustBeAllowedCaller {\r\n    producers[addr].recentInspection = state;\r\n  }\r\n\r\n  function updateIsaPoints(address addr, int256 isaPoints) public mustBeAllowedCaller {\r\n    producers[addr].isaPoints = isaPoints;\r\n  }\r\n\r\n  function incrementRequests(address addr) public mustBeAllowedCaller {\r\n    producers[addr].totalRequests++;\r\n  }\r\n\r\n  function approveProducerNewTokens(address addr, uint256 numTokens) public mustBeAllowedCaller {\r\n    uint256 tokens = producers[addr].tokenApprove.allowed;\r\n    producers[addr].tokenApprove = TokenApprove(tokens += numTokens, false);\r\n  }\r\n  \r\n  function lastRequestAt(address addr, uint256 blocksNumber) public mustBeAllowedCaller {\r\n    producers[addr].lastRequestAt = blocksNumber;\r\n  }\r\n\r\n  function getProducerApprove(address address_) public view returns (uint256) {\r\n    return producers[address_].tokenApprove.allowed;\r\n  }\r\n\r\n  function undoProducerApprove() internal returns (bool) {\r\n    producers[msg.sender].tokenApprove = TokenApprove(0, false);\r\n    return true;\r\n  }\r\n\r\n  // MODIFIERS\r\n\r\n  modifier uniqueProducer() {\r\n    require(!producerExists(msg.sender), \"This producer already exist\");\r\n    _;\r\n  }\r\n}\r\n",
  "sourcePath": "C:\\Users\\emano\\Documents\\Sintrop\\core-contracts\\contracts\\ProducerContract.sol",
  "compiler": {
    "name": "solc",
    "version": "0.8.2+commit.661d1103.Emscripten.clang"
  },
  "schemaVersion": "3.4.7",
  "updatedAt": "2022-06-29T23:40:23.079Z",
  "networkType": "ethereum",
  "devdoc": {
    "details": "Producer resource that represent a user that can request a inspection",
    "kind": "dev",
    "methods": {
      "addProducer(string,string,string,string,string,string,string)": {
        "details": "Allow a new register of producer",
        "params": {
          "cep": "the cep of the producer",
          "city": "the of the producer",
          "country": "the country where the producer is",
          "document": "the document of producer",
          "documentType": "the document type of producer. CPF/CNPJ",
          "name": "the name of the producer",
          "state": "the state of the producer"
        }
      },
      "getProducer(address)": {
        "details": "Return a specific producer",
        "params": {
          "addr": "the address of the producer."
        }
      },
      "getProducers()": {
        "details": "Returns all registered producers",
        "returns": {
          "_0": "Producer struct array"
        }
      },
      "owner()": {
        "details": "Returns the address of the current owner."
      },
      "producerExists(address)": {
        "details": "Check if a specific producer exists",
        "returns": {
          "_0": "a bool that represent if a producer exists or not"
        }
      },
      "renounceOwnership()": {
        "details": "Leaves the contract without owner. It will not be possible to call `onlyOwner` functions anymore. Can only be called by the current owner. NOTE: Renouncing ownership will leave the contract without an owner, thereby removing any functionality that is only available to the owner."
      },
      "transferOwnership(address)": {
        "details": "Transfers ownership of the contract to a new account (`newOwner`). Can only be called by the current owner."
      }
    },
    "title": "ProducerContract",
    "version": 1
  },
  "userdoc": {
    "kind": "user",
    "methods": {},
    "version": 1
  }
}