{
  "contractName": "Sintrop",
  "abi": [
    {
      "inputs": [
        {
          "internalType": "address",
          "name": "activistContractAddress",
          "type": "address"
        },
        {
          "internalType": "address",
          "name": "producerContractAddress",
          "type": "address"
        }
      ],
      "stateMutability": "nonpayable",
      "type": "constructor"
    },
    {
      "inputs": [],
      "name": "activistContract",
      "outputs": [
        {
          "internalType": "contract ActivistContract",
          "name": "",
          "type": "address"
        }
      ],
      "stateMutability": "view",
      "type": "function",
      "constant": true
    },
    {
      "inputs": [],
      "name": "inspectionsCount",
      "outputs": [
        {
          "internalType": "uint256",
          "name": "",
          "type": "uint256"
        }
      ],
      "stateMutability": "view",
      "type": "function",
      "constant": true
    },
    {
      "inputs": [],
      "name": "producerContract",
      "outputs": [
        {
          "internalType": "contract ProducerContract",
          "name": "",
          "type": "address"
        }
      ],
      "stateMutability": "view",
      "type": "function",
      "constant": true
    },
    {
      "inputs": [],
      "name": "getInspectionsHistory",
      "outputs": [
        {
          "components": [
            {
              "internalType": "uint256",
              "name": "id",
              "type": "uint256"
            },
            {
              "internalType": "enum InspectionStatus",
              "name": "status",
              "type": "uint8"
            },
            {
              "internalType": "address",
              "name": "producerWallet",
              "type": "address"
            },
            {
              "internalType": "address",
              "name": "activistWallet",
              "type": "address"
            },
            {
              "internalType": "uint256[][]",
              "name": "isas",
              "type": "uint256[][]"
            },
            {
              "internalType": "int256",
              "name": "isaPoints",
              "type": "int256"
            },
            {
              "internalType": "uint256",
              "name": "expiresIn",
              "type": "uint256"
            },
            {
              "internalType": "uint256",
              "name": "createdAt",
              "type": "uint256"
            },
            {
              "internalType": "uint256",
              "name": "updatedAt",
              "type": "uint256"
            }
          ],
          "internalType": "struct Inspection[]",
          "name": "",
          "type": "tuple[]"
        }
      ],
      "stateMutability": "view",
      "type": "function",
      "constant": true
    },
    {
      "inputs": [],
      "name": "requestInspection",
      "outputs": [
        {
          "internalType": "bool",
          "name": "",
          "type": "bool"
        }
      ],
      "stateMutability": "nonpayable",
      "type": "function"
    },
    {
      "inputs": [
        {
          "internalType": "uint256",
          "name": "inspectionId",
          "type": "uint256"
        }
      ],
      "name": "acceptInspection",
      "outputs": [
        {
          "internalType": "bool",
          "name": "",
          "type": "bool"
        }
      ],
      "stateMutability": "nonpayable",
      "type": "function"
    },
    {
      "inputs": [
        {
          "internalType": "uint256",
          "name": "inspectionId",
          "type": "uint256"
        },
        {
          "internalType": "uint256[][]",
          "name": "isas",
          "type": "uint256[][]"
        }
      ],
      "name": "realizeInspection",
      "outputs": [
        {
          "internalType": "bool",
          "name": "",
          "type": "bool"
        }
      ],
      "stateMutability": "nonpayable",
      "type": "function"
    },
    {
      "inputs": [
        {
          "internalType": "uint256",
          "name": "id",
          "type": "uint256"
        }
      ],
      "name": "getInspection",
      "outputs": [
        {
          "components": [
            {
              "internalType": "uint256",
              "name": "id",
              "type": "uint256"
            },
            {
              "internalType": "enum InspectionStatus",
              "name": "status",
              "type": "uint8"
            },
            {
              "internalType": "address",
              "name": "producerWallet",
              "type": "address"
            },
            {
              "internalType": "address",
              "name": "activistWallet",
              "type": "address"
            },
            {
              "internalType": "uint256[][]",
              "name": "isas",
              "type": "uint256[][]"
            },
            {
              "internalType": "int256",
              "name": "isaPoints",
              "type": "int256"
            },
            {
              "internalType": "uint256",
              "name": "expiresIn",
              "type": "uint256"
            },
            {
              "internalType": "uint256",
              "name": "createdAt",
              "type": "uint256"
            },
            {
              "internalType": "uint256",
              "name": "updatedAt",
              "type": "uint256"
            }
          ],
          "internalType": "struct Inspection",
          "name": "",
          "type": "tuple"
        }
      ],
      "stateMutability": "view",
      "type": "function",
      "constant": true
    },
    {
      "inputs": [],
      "name": "getInspections",
      "outputs": [
        {
          "components": [
            {
              "internalType": "uint256",
              "name": "id",
              "type": "uint256"
            },
            {
              "internalType": "enum InspectionStatus",
              "name": "status",
              "type": "uint8"
            },
            {
              "internalType": "address",
              "name": "producerWallet",
              "type": "address"
            },
            {
              "internalType": "address",
              "name": "activistWallet",
              "type": "address"
            },
            {
              "internalType": "uint256[][]",
              "name": "isas",
              "type": "uint256[][]"
            },
            {
              "internalType": "int256",
              "name": "isaPoints",
              "type": "int256"
            },
            {
              "internalType": "uint256",
              "name": "expiresIn",
              "type": "uint256"
            },
            {
              "internalType": "uint256",
              "name": "createdAt",
              "type": "uint256"
            },
            {
              "internalType": "uint256",
              "name": "updatedAt",
              "type": "uint256"
            }
          ],
          "internalType": "struct Inspection[]",
          "name": "",
          "type": "tuple[]"
        }
      ],
      "stateMutability": "view",
      "type": "function",
      "constant": true
    },
    {
      "inputs": [],
      "name": "getInspectionsStatus",
      "outputs": [
        {
          "internalType": "string",
          "name": "",
          "type": "string"
        },
        {
          "internalType": "string",
          "name": "",
          "type": "string"
        },
        {
          "internalType": "string",
          "name": "",
          "type": "string"
        },
        {
          "internalType": "string",
          "name": "",
          "type": "string"
        }
      ],
      "stateMutability": "pure",
      "type": "function",
      "constant": true
    },
    {
      "inputs": [
        {
          "internalType": "uint256",
          "name": "id",
          "type": "uint256"
        }
      ],
      "name": "inspectionExists",
      "outputs": [
        {
          "internalType": "bool",
          "name": "",
          "type": "bool"
        }
      ],
      "stateMutability": "view",
      "type": "function",
      "constant": true
    }
  ],
  "bytecode": "0x608060405262093a806004553480156200001857600080fd5b5060405162003d1038038062003d1083398181016040528101906200003e9190620000df565b81600260006101000a81548173ffffffffffffffffffffffffffffffffffffffff021916908373ffffffffffffffffffffffffffffffffffffffff16021790555080600360006101000a81548173ffffffffffffffffffffffffffffffffffffffff021916908373ffffffffffffffffffffffffffffffffffffffff16021790555050506200016e565b600081519050620000d98162000154565b92915050565b60008060408385031215620000f357600080fd5b60006200010385828601620000c8565b92505060206200011685828601620000c8565b9150509250929050565b60006200012d8262000134565b9050919050565b600073ffffffffffffffffffffffffffffffffffffffff82169050919050565b6200015f8162000120565b81146200016b57600080fd5b50565b613b92806200017e6000396000f3fe608060405234801561001057600080fd5b50600436106100a95760003560e01c8063b92bd2d911610071578063b92bd2d914610144578063dd6850c614610174578063e785750214610195578063ee699fc1146101c5578063f2836670146101e3578063fe5a4fa414610213576100a9565b80630bbec3c2146100ae5780632cdf0e9a146100cc5780634b026e87146100ea5780635401c1f21461010857806386ae2fb114610126575b600080fd5b6100b6610243565b6040516100c3919061331a565b60405180910390f35b6100d46104e3565b6040516100e19190613372565b60405180910390f35b6100f2610509565b6040516100ff9190613357565b60405180910390f35b61011061052f565b60405161011d91906134f0565b60405180910390f35b61012e610535565b60405161013b919061333c565b60405180910390f35b61015e60048036038101906101599190612d4b565b6107b4565b60405161016b919061333c565b60405180910390f35b61017c610c61565b60405161018c949392919061338d565b60405180910390f35b6101af60048036038101906101aa9190612d22565b610d4d565b6040516101bc919061333c565b60405180910390f35b6101cd611406565b6040516101da919061331a565b60405180910390f35b6101fd60048036038101906101f89190612d22565b611723565b60405161020a91906134ce565b60405180910390f35b61022d60048036038101906102289190612d22565b611955565b60405161023a919061333c565b60405180910390f35b60606000803373ffffffffffffffffffffffffffffffffffffffff1673ffffffffffffffffffffffffffffffffffffffff168152602001908152602001600020805480602002602001604051908101604052809291908181526020016000905b828210156104da578382906000526020600020906008020160405180610120016040529081600082015481526020016001820160009054906101000a900460ff16600381111561031c577f4e487b7100000000000000000000000000000000000000000000000000000000600052602160045260246000fd5b6003811115610354577f4e487b7100000000000000000000000000000000000000000000000000000000600052602160045260246000fd5b81526020016001820160019054906101000a900473ffffffffffffffffffffffffffffffffffffffff1673ffffffffffffffffffffffffffffffffffffffff1673ffffffffffffffffffffffffffffffffffffffff1681526020016002820160009054906101000a900473ffffffffffffffffffffffffffffffffffffffff1673ffffffffffffffffffffffffffffffffffffffff1673ffffffffffffffffffffffffffffffffffffffff16815260200160038201805480602002602001604051908101604052809291908181526020016000905b8282101561049b5783829060005260206000200180548060200260200160405190810160405280929190818152602001828054801561048757602002820191906000526020600020905b815481526020019060010190808311610473575b505050505081526020019060010190610429565b505050508152602001600482015481526020016005820154815260200160068201548152602001600782015481525050815260200190600101906102a3565b50505050905090565b600360009054906101000a900473ffffffffffffffffffffffffffffffffffffffff1681565b600260009054906101000a900473ffffffffffffffffffffffffffffffffffffffff1681565b60055481565b6000600360009054906101000a900473ffffffffffffffffffffffffffffffffffffffff1673ffffffffffffffffffffffffffffffffffffffff1663e9e797ac336040518263ffffffff1660e01b81526004016105929190613284565b60206040518083038186803b1580156105aa57600080fd5b505afa1580156105be573d6000803e3d6000fd5b505050506040513d601f19601f820116820180604052508101906105e29190612cb8565b610621576040517f08c379a00000000000000000000000000000000000000000000000000000000081526004016106189061348e565b60405180910390fd5b600360009054906101000a900473ffffffffffffffffffffffffffffffffffffffff1673ffffffffffffffffffffffffffffffffffffffff1663aab147b2336040518263ffffffff1660e01b815260040161067c9190613284565b60006040518083038186803b15801561069457600080fd5b505afa1580156106a8573d6000803e3d6000fd5b505050506040513d6000823e3d601f19601f820116820180604052508101906106d19190612ce1565b60c0015115610715576040517f08c379a000000000000000000000000000000000000000000000000000000000815260040161070c9061344e565b60405180910390fd5b61071d611978565b600360009054906101000a900473ffffffffffffffffffffffffffffffffffffffff1673ffffffffffffffffffffffffffffffffffffffff1663360912ab3360016040518363ffffffff1660e01b815260040161077b92919061329f565b600060405180830381600087803b15801561079557600080fd5b505af11580156107a9573d6000803e3d6000fd5b505050506001905090565b6000600260009054906101000a900473ffffffffffffffffffffffffffffffffffffffff1673ffffffffffffffffffffffffffffffffffffffff16638c4772fc336040518263ffffffff1660e01b81526004016108119190613284565b60206040518083038186803b15801561082957600080fd5b505afa15801561083d573d6000803e3d6000fd5b505050506040513d601f19601f820116820180604052508101906108619190612cb8565b6108a0576040517f08c379a0000000000000000000000000000000000000000000000000000000008152600401610897906134ae565b60405180910390fd5b826108aa81611955565b6108e9576040517f08c379a00000000000000000000000000000000000000000000000000000000081526004016108e0906133ee565b60405180910390fd5b836108f381611bb1565b610932576040517f08c379a00000000000000000000000000000000000000000000000000000000081526004016109299061346e565b60405180910390fd5b8461093c81611c50565b61097b576040517f08c379a00000000000000000000000000000000000000000000000000000000081526004016109729061342e565b60405180910390fd5b60006001600088815260200190815260200160002060405180610120016040529081600082015481526020016001820160009054906101000a900460ff1660038111156109f1577f4e487b7100000000000000000000000000000000000000000000000000000000600052602160045260246000fd5b6003811115610a29577f4e487b7100000000000000000000000000000000000000000000000000000000600052602160045260246000fd5b81526020016001820160019054906101000a900473ffffffffffffffffffffffffffffffffffffffff1673ffffffffffffffffffffffffffffffffffffffff1673ffffffffffffffffffffffffffffffffffffffff1681526020016002820160009054906101000a900473ffffffffffffffffffffffffffffffffffffffff1673ffffffffffffffffffffffffffffffffffffffff1673ffffffffffffffffffffffffffffffffffffffff16815260200160038201805480602002602001604051908101604052809291908181526020016000905b82821015610b7057838290600052602060002001805480602002602001604051908101604052809291908181526020018280548015610b5c57602002820191906000526020600020905b815481526020019060010190808311610b48575b505050505081526020019060010190610afe565b5050505081526020016004820154815260200160058201548152602001600682015481526020016007820154815250509050610bac8187611cbe565b610bb581611eb4565b610bbe81612441565b600360009054906101000a900473ffffffffffffffffffffffffffffffffffffffff1673ffffffffffffffffffffffffffffffffffffffff1663b08ab06182604001516107d06040518363ffffffff1660e01b8152600401610c219291906132f1565b600060405180830381600087803b158015610c3b57600080fd5b505af1158015610c4f573d6000803e3d6000fd5b50505050600194505050505092915050565b6060806060806040518060400160405280600481526020017f4f50454e000000000000000000000000000000000000000000000000000000008152506040518060400160405280600781526020017f45585049524544000000000000000000000000000000000000000000000000008152506040518060400160405280600981526020017f494e5350454354454400000000000000000000000000000000000000000000008152506040518060400160405280600881526020017f4143434550544544000000000000000000000000000000000000000000000000815250935093509350935090919293565b6000600260009054906101000a900473ffffffffffffffffffffffffffffffffffffffff1673ffffffffffffffffffffffffffffffffffffffff16638c4772fc336040518263ffffffff1660e01b8152600401610daa9190613284565b60206040518083038186803b158015610dc257600080fd5b505afa158015610dd6573d6000803e3d6000fd5b505050506040513d601f19601f82011682018060405250810190610dfa9190612cb8565b610e39576040517f08c379a0000000000000000000000000000000000000000000000000000000008152600401610e30906134ae565b60405180910390fd5b81610e4381611955565b610e82576040517f08c379a0000000000000000000000000000000000000000000000000000000008152600401610e79906133ee565b60405180910390fd5b60006001600085815260200190815260200160002060405180610120016040529081600082015481526020016001820160009054906101000a900460ff166003811115610ef8577f4e487b7100000000000000000000000000000000000000000000000000000000600052602160045260246000fd5b6003811115610f30577f4e487b7100000000000000000000000000000000000000000000000000000000600052602160045260246000fd5b81526020016001820160019054906101000a900473ffffffffffffffffffffffffffffffffffffffff1673ffffffffffffffffffffffffffffffffffffffff1673ffffffffffffffffffffffffffffffffffffffff1681526020016002820160009054906101000a900473ffffffffffffffffffffffffffffffffffffffff1673ffffffffffffffffffffffffffffffffffffffff1673ffffffffffffffffffffffffffffffffffffffff16815260200160038201805480602002602001604051908101604052809291908181526020016000905b828210156110775783829060005260206000200180548060200260200160405190810160405280929190818152602001828054801561106357602002820191906000526020600020905b81548152602001906001019080831161104f575b505050505081526020019060010190611005565b5050505081526020016004820154815260200160058201548152602001600682015481526020016007820154815250509050600060038111156110e3577f4e487b7100000000000000000000000000000000000000000000000000000000600052602160045260246000fd5b81602001516003811115611120577f4e487b7100000000000000000000000000000000000000000000000000000000600052602160045260246000fd5b14611160576040517f08c379a00000000000000000000000000000000000000000000000000000000081526004016111579061340e565b60405180910390fd5b60038160200190600381111561119f577f4e487b7100000000000000000000000000000000000000000000000000000000600052602160045260246000fd5b908160038111156111d9577f4e487b7100000000000000000000000000000000000000000000000000000000600052602160045260246000fd5b81525050428161010001818152505033816060019073ffffffffffffffffffffffffffffffffffffffff16908173ffffffffffffffffffffffffffffffffffffffff168152505080600160008681526020019081526020016000206000820151816000015560208201518160010160006101000a81548160ff0219169083600381111561128f577f4e487b7100000000000000000000000000000000000000000000000000000000600052602160045260246000fd5b021790555060408201518160010160016101000a81548173ffffffffffffffffffffffffffffffffffffffff021916908373ffffffffffffffffffffffffffffffffffffffff16021790555060608201518160020160006101000a81548173ffffffffffffffffffffffffffffffffffffffff021916908373ffffffffffffffffffffffffffffffffffffffff160217905550608082015181600301908051906020019061133e92919061266e565b5060a0820151816004015560c0820151816005015560e082015181600601556101008201518160070155905050600260009054906101000a900473ffffffffffffffffffffffffffffffffffffffff1673ffffffffffffffffffffffffffffffffffffffff1663360912ab3360016040518363ffffffff1660e01b81526004016113c992919061329f565b600060405180830381600087803b1580156113e357600080fd5b505af11580156113f7573d6000803e3d6000fd5b50505050600192505050919050565b6060600060055467ffffffffffffffff81111561144c577f4e487b7100000000000000000000000000000000000000000000000000000000600052604160045260246000fd5b60405190808252806020026020018201604052801561148557816020015b6114726126ce565b81526020019060019003908161146a5790505b50905060005b60055481101561171b57600160006001836114a69190613714565b815260200190815260200160002060405180610120016040529081600082015481526020016001820160009054906101000a900460ff166003811115611515577f4e487b7100000000000000000000000000000000000000000000000000000000600052602160045260246000fd5b600381111561154d577f4e487b7100000000000000000000000000000000000000000000000000000000600052602160045260246000fd5b81526020016001820160019054906101000a900473ffffffffffffffffffffffffffffffffffffffff1673ffffffffffffffffffffffffffffffffffffffff1673ffffffffffffffffffffffffffffffffffffffff1681526020016002820160009054906101000a900473ffffffffffffffffffffffffffffffffffffffff1673ffffffffffffffffffffffffffffffffffffffff1673ffffffffffffffffffffffffffffffffffffffff16815260200160038201805480602002602001604051908101604052809291908181526020016000905b828210156116945783829060005260206000200180548060200260200160405190810160405280929190818152602001828054801561168057602002820191906000526020600020905b81548152602001906001019080831161166c575b505050505081526020019060010190611622565b5050505081526020016004820154815260200160058201548152602001600682015481526020016007820154815250508282815181106116fd577f4e487b7100000000000000000000000000000000000000000000000000000000600052603260045260246000fd5b60200260200101819052508080611713906138ac565b91505061148b565b508091505090565b61172b6126ce565b6001600083815260200190815260200160002060405180610120016040529081600082015481526020016001820160009054906101000a900460ff16600381111561179f577f4e487b7100000000000000000000000000000000000000000000000000000000600052602160045260246000fd5b60038111156117d7577f4e487b7100000000000000000000000000000000000000000000000000000000600052602160045260246000fd5b81526020016001820160019054906101000a900473ffffffffffffffffffffffffffffffffffffffff1673ffffffffffffffffffffffffffffffffffffffff1673ffffffffffffffffffffffffffffffffffffffff1681526020016002820160009054906101000a900473ffffffffffffffffffffffffffffffffffffffff1673ffffffffffffffffffffffffffffffffffffffff1673ffffffffffffffffffffffffffffffffffffffff16815260200160038201805480602002602001604051908101604052809291908181526020016000905b8282101561191e5783829060005260206000200180548060200260200160405190810160405280929190818152602001828054801561190a57602002820191906000526020600020905b8154815260200190600101908083116118f6575b5050505050815260200190600101906118ac565b5050505081526020016004820154815260200160058201548152602001600682015481526020016007820154815250509050919050565b600060018060008481526020019081526020016000206000015410159050919050565b606060006004544261198a9190613714565b9050600060405180610120016040528060016005546119a99190613714565b8152602001600060038111156119e8577f4e487b7100000000000000000000000000000000000000000000000000000000600052602160045260246000fd5b81526020013373ffffffffffffffffffffffffffffffffffffffff1681526020013373ffffffffffffffffffffffffffffffffffffffff16815260200184815260200160008152602001838152602001428152602001600081525090508060016000836000015181526020019081526020016000206000820151816000015560208201518160010160006101000a81548160ff02191690836003811115611ab8577f4e487b7100000000000000000000000000000000000000000000000000000000600052602160045260246000fd5b021790555060408201518160010160016101000a81548173ffffffffffffffffffffffffffffffffffffffff021916908373ffffffffffffffffffffffffffffffffffffffff16021790555060608201518160020160006101000a81548173ffffffffffffffffffffffffffffffffffffffff021916908373ffffffffffffffffffffffffffffffffffffffff1602179055506080820151816003019080519060200190611b6792919061266e565b5060a0820151816004015560c0820151816005015560e08201518160060155610100820151816007015590505060056000815480929190611ba7906138ac565b9190505550505050565b6000600380811115611bec577f4e487b7100000000000000000000000000000000000000000000000000000000600052602160045260246000fd5b6001600084815260200190815260200160002060010160009054906101000a900460ff166003811115611c48577f4e487b7100000000000000000000000000000000000000000000000000000000600052602160045260246000fd5b149050919050565b60003373ffffffffffffffffffffffffffffffffffffffff166001600084815260200190815260200160002060020160009054906101000a900473ffffffffffffffffffffffffffffffffffffffff1673ffffffffffffffffffffffffffffffffffffffff16149050919050565b808260800181905250600282602001906003811115611d06577f4e487b7100000000000000000000000000000000000000000000000000000000600052602160045260246000fd5b90816003811115611d40577f4e487b7100000000000000000000000000000000000000000000000000000000600052602160045260246000fd5b815250504282610100018181525050611d58826124db565b8260a00181815250508160016000846000015181526020019081526020016000206000820151816000015560208201518160010160006101000a81548160ff02191690836003811115611dd4577f4e487b7100000000000000000000000000000000000000000000000000000000600052602160045260246000fd5b021790555060408201518160010160016101000a81548173ffffffffffffffffffffffffffffffffffffffff021916908373ffffffffffffffffffffffffffffffffffffffff16021790555060608201518160020160006101000a81548173ffffffffffffffffffffffffffffffffffffffff021916908373ffffffffffffffffffffffffffffffffffffffff1602179055506080820151816003019080519060200190611e8392919061266e565b5060a0820151816004015560c0820151816005015560e0820151816006015561010082015181600701559050505050565b600081604001519050600082606001519050600260009054906101000a900473ffffffffffffffffffffffffffffffffffffffff1673ffffffffffffffffffffffffffffffffffffffff1663360912ab8260006040518363ffffffff1660e01b8152600401611f2492919061329f565b600060405180830381600087803b158015611f3e57600080fd5b505af1158015611f52573d6000803e3d6000fd5b50505050600260009054906101000a900473ffffffffffffffffffffffffffffffffffffffff1673ffffffffffffffffffffffffffffffffffffffff1663c19c9037826040518263ffffffff1660e01b8152600401611fb19190613284565b600060405180830381600087803b158015611fcb57600080fd5b505af1158015611fdf573d6000803e3d6000fd5b50505050600360009054906101000a900473ffffffffffffffffffffffffffffffffffffffff1673ffffffffffffffffffffffffffffffffffffffff1663360912ab8360006040518363ffffffff1660e01b815260040161204192919061329f565b600060405180830381600087803b15801561205b57600080fd5b505af115801561206f573d6000803e3d6000fd5b50505050600360009054906101000a900473ffffffffffffffffffffffffffffffffffffffff1673ffffffffffffffffffffffffffffffffffffffff1663c19c9037836040518263ffffffff1660e01b81526004016120ce9190613284565b600060405180830381600087803b1580156120e857600080fd5b505af11580156120fc573d6000803e3d6000fd5b505050506000808373ffffffffffffffffffffffffffffffffffffffff1673ffffffffffffffffffffffffffffffffffffffff1681526020019081526020016000208390806001815401808255809150506001900390600052602060002090600802016000909190919091506000820151816000015560208201518160010160006101000a81548160ff021916908360038111156121c3577f4e487b7100000000000000000000000000000000000000000000000000000000600052602160045260246000fd5b021790555060408201518160010160016101000a81548173ffffffffffffffffffffffffffffffffffffffff021916908373ffffffffffffffffffffffffffffffffffffffff16021790555060608201518160020160006101000a81548173ffffffffffffffffffffffffffffffffffffffff021916908373ffffffffffffffffffffffffffffffffffffffff160217905550608082015181600301908051906020019061227292919061266e565b5060a0820151816004015560c0820151816005015560e08201518160060155610100820151816007015550506000808273ffffffffffffffffffffffffffffffffffffffff1673ffffffffffffffffffffffffffffffffffffffff1681526020019081526020016000208390806001815401808255809150506001900390600052602060002090600802016000909190919091506000820151816000015560208201518160010160006101000a81548160ff02191690836003811115612361577f4e487b7100000000000000000000000000000000000000000000000000000000600052602160045260246000fd5b021790555060408201518160010160016101000a81548173ffffffffffffffffffffffffffffffffffffffff021916908373ffffffffffffffffffffffffffffffffffffffff16021790555060608201518160020160006101000a81548173ffffffffffffffffffffffffffffffffffffffff021916908373ffffffffffffffffffffffffffffffffffffffff160217905550608082015181600301908051906020019061241092919061266e565b5060a0820151816004015560c0820151816005015560e0820151816006015561010082015181600701555050505050565b600360009054906101000a900473ffffffffffffffffffffffffffffffffffffffff1673ffffffffffffffffffffffffffffffffffffffff16632253eee482604001518360a001516040518363ffffffff1660e01b81526004016124a69291906132c8565b600060405180830381600087803b1580156124c057600080fd5b505af11580156124d4573d6000803e3d6000fd5b5050505050565b6000808260800151905060006124f0826124fc565b90508092505050919050565b6000806040518060a00160405280600a815260200160058152602001600081526020017ffffffffffffffffffffffffffffffffffffffffffffffffffffffffffffffffb81526020017ffffffffffffffffffffffffffffffffffffffffffffffffffffffffffffffff681525090506000805b84518160ff161015612663576000858260ff16815181106125b9577f4e487b7100000000000000000000000000000000000000000000000000000000600052603260045260246000fd5b60200260200101516001815181106125fa577f4e487b7100000000000000000000000000000000000000000000000000000000600052603260045260246000fd5b6020026020010151905083816005811061263d577f4e487b7100000000000000000000000000000000000000000000000000000000600052603260045260246000fd5b60200201518361264d9190613680565b925050808061265b906138f5565b91505061256f565b508092505050919050565b8280548282559060005260206000209081019282156126bd579160200282015b828111156126bc5782518290805190602001906126ac92919061277e565b509160200191906001019061268e565b5b5090506126ca91906127cb565b5090565b604051806101200160405280600081526020016000600381111561271b577f4e487b7100000000000000000000000000000000000000000000000000000000600052602160045260246000fd5b8152602001600073ffffffffffffffffffffffffffffffffffffffff168152602001600073ffffffffffffffffffffffffffffffffffffffff16815260200160608152602001600081526020016000815260200160008152602001600081525090565b8280548282559060005260206000209081019282156127ba579160200282015b828111156127b957825182559160200191906001019061279e565b5b5090506127c791906127ef565b5090565b5b808211156127eb57600081816127e2919061280c565b506001016127cc565b5090565b5b808211156128085760008160009055506001016127f0565b5090565b508054600082559060005260206000209081019061282a91906127ef565b50565b600061284061283b84613530565b61350b565b9050808382526020820190508260005b8581101561288057813585016128668882612973565b845260208401935060208301925050600181019050612850565b5050509392505050565b600061289d6128988461355c565b61350b565b905080838252602082019050828560208602820111156128bc57600080fd5b60005b858110156128ec57816128d28882612c8e565b8452602084019350602083019250506001810190506128bf565b5050509392505050565b600061290961290484613588565b61350b565b90508281526020810184848401111561292157600080fd5b61292c848285613848565b509392505050565b60008151905061294381613af0565b92915050565b600082601f83011261295a57600080fd5b813561296a84826020860161282d565b91505092915050565b600082601f83011261298457600080fd5b813561299484826020860161288a565b91505092915050565b6000815190506129ac81613b07565b92915050565b6000815190506129c181613b1e565b92915050565b6000815190506129d681613b2e565b92915050565b600082601f8301126129ed57600080fd5b81516129fd8482602086016128f6565b91505092915050565b60006101808284031215612a1957600080fd5b612a2461016061350b565b90506000612a3484828501612ca3565b6000830152506020612a4884828501612934565b6020830152506040612a5c848285016129b2565b604083015250606082015167ffffffffffffffff811115612a7c57600080fd5b612a88848285016129dc565b606083015250608082015167ffffffffffffffff811115612aa857600080fd5b612ab4848285016129dc565b60808301525060a082015167ffffffffffffffff811115612ad457600080fd5b612ae0848285016129dc565b60a08301525060c0612af48482850161299d565b60c08301525060e0612b0884828501612ca3565b60e083015250610100612b1d848285016129c7565b61010083015250610120612b3384828501612c42565b6101208301525061016082015167ffffffffffffffff811115612b5557600080fd5b612b6184828501612b6e565b6101408301525092915050565b600060808284031215612b8057600080fd5b612b8a608061350b565b9050600082015167ffffffffffffffff811115612ba657600080fd5b612bb2848285016129dc565b600083015250602082015167ffffffffffffffff811115612bd257600080fd5b612bde848285016129dc565b602083015250604082015167ffffffffffffffff811115612bfe57600080fd5b612c0a848285016129dc565b604083015250606082015167ffffffffffffffff811115612c2a57600080fd5b612c36848285016129dc565b60608301525092915050565b600060408284031215612c5457600080fd5b612c5e604061350b565b90506000612c6e84828501612ca3565b6000830152506020612c828482850161299d565b60208301525092915050565b600081359050612c9d81613b45565b92915050565b600081519050612cb281613b45565b92915050565b600060208284031215612cca57600080fd5b6000612cd88482850161299d565b91505092915050565b600060208284031215612cf357600080fd5b600082015167ffffffffffffffff811115612d0d57600080fd5b612d1984828501612a06565b91505092915050565b600060208284031215612d3457600080fd5b6000612d4284828501612c8e565b91505092915050565b60008060408385031215612d5e57600080fd5b6000612d6c85828601612c8e565b925050602083013567ffffffffffffffff811115612d8957600080fd5b612d9585828601612949565b9150509250929050565b6000612dab8383612ee7565b905092915050565b6000612dbf83836130dc565b905092915050565b6000612dd38383613266565b60208301905092915050565b612de88161376a565b82525050565b612df78161376a565b82525050565b6000612e08826135e9565b612e12818561363c565b935083602082028501612e24856135b9565b8060005b85811015612e605784840389528151612e418582612d9f565b9450612e4c83613615565b925060208a01995050600181019050612e28565b50829750879550505050505092915050565b6000612e7d826135f4565b612e87818561364d565b935083602082028501612e99856135c9565b8060005b85811015612ed55784840389528151612eb68582612db3565b9450612ec183613622565b925060208a01995050600181019050612e9d565b50829750879550505050505092915050565b6000612ef2826135ff565b612efc818561365e565b9350612f07836135d9565b8060005b83811015612f38578151612f1f8882612dc7565b9750612f2a8361362f565b925050600181019050612f0b565b5085935050505092915050565b612f4e8161377c565b82525050565b612f5d816137dc565b82525050565b612f6c81613800565b82525050565b612f7b81613824565b82525050565b612f8a8161379b565b82525050565b612f998161379b565b82525050565b612fa881613836565b82525050565b6000612fb98261360a565b612fc3818561366f565b9350612fd3818560208601613848565b612fdc816139ac565b840191505092915050565b6000612ff4601c8361366f565b9150612fff826139bd565b602082019050919050565b6000613017601b8361366f565b9150613022826139e6565b602082019050919050565b600061303a60208361366f565b915061304582613a0f565b602082019050919050565b600061305d60188361366f565b915061306882613a38565b602082019050919050565b6000613080601d8361366f565b915061308b82613a61565b602082019050919050565b60006130a3601b8361366f565b91506130ae82613a8a565b602082019050919050565b60006130c6601b8361366f565b91506130d182613ab3565b602082019050919050565b6000610120830160008301516130f56000860182613266565b5060208301516131086020860182612f72565b50604083015161311b6040860182612ddf565b50606083015161312e6060860182612ddf565b50608083015184820360808601526131468282612dfd565b91505060a083015161315b60a0860182612f81565b5060c083015161316e60c0860182613266565b5060e083015161318160e0860182613266565b50610100830151613196610100860182613266565b508091505092915050565b6000610120830160008301516131ba6000860182613266565b5060208301516131cd6020860182612f72565b5060408301516131e06040860182612ddf565b5060608301516131f36060860182612ddf565b506080830151848203608086015261320b8282612dfd565b91505060a083015161322060a0860182612f81565b5060c083015161323360c0860182613266565b5060e083015161324660e0860182613266565b5061010083015161325b610100860182613266565b508091505092915050565b61326f816137c5565b82525050565b61327e816137c5565b82525050565b60006020820190506132996000830184612dee565b92915050565b60006040820190506132b46000830185612dee565b6132c16020830184612f45565b9392505050565b60006040820190506132dd6000830185612dee565b6132ea6020830184612f90565b9392505050565b60006040820190506133066000830185612dee565b6133136020830184612f9f565b9392505050565b600060208201905081810360008301526133348184612e72565b905092915050565b60006020820190506133516000830184612f45565b92915050565b600060208201905061336c6000830184612f54565b92915050565b60006020820190506133876000830184612f63565b92915050565b600060808201905081810360008301526133a78187612fae565b905081810360208301526133bb8186612fae565b905081810360408301526133cf8185612fae565b905081810360608301526133e38184612fae565b905095945050505050565b6000602082019050818103600083015261340781612fe7565b9050919050565b600060208201905081810360008301526134278161300a565b9050919050565b600060208201905081810360008301526134478161302d565b9050919050565b6000602082019050818103600083015261346781613050565b9050919050565b6000602082019050818103600083015261348781613073565b9050919050565b600060208201905081810360008301526134a781613096565b9050919050565b600060208201905081810360008301526134c7816130b9565b9050919050565b600060208201905081810360008301526134e881846131a1565b905092915050565b60006020820190506135056000830184613275565b92915050565b6000613515613526565b9050613521828261387b565b919050565b6000604051905090565b600067ffffffffffffffff82111561354b5761354a61397d565b5b602082029050602081019050919050565b600067ffffffffffffffff8211156135775761357661397d565b5b602082029050602081019050919050565b600067ffffffffffffffff8211156135a3576135a261397d565b5b6135ac826139ac565b9050602081019050919050565b6000819050602082019050919050565b6000819050602082019050919050565b6000819050602082019050919050565b600081519050919050565b600081519050919050565b600081519050919050565b600081519050919050565b6000602082019050919050565b6000602082019050919050565b6000602082019050919050565b600082825260208201905092915050565b600082825260208201905092915050565b600082825260208201905092915050565b600082825260208201905092915050565b600061368b8261379b565b91506136968361379b565b9250817f7fffffffffffffffffffffffffffffffffffffffffffffffffffffffffffffff038313600083121516156136d1576136d061391f565b5b817f80000000000000000000000000000000000000000000000000000000000000000383126000831216156137095761370861391f565b5b828201905092915050565b600061371f826137c5565b915061372a836137c5565b9250827fffffffffffffffffffffffffffffffffffffffffffffffffffffffffffffffff0382111561375f5761375e61391f565b5b828201905092915050565b6000613775826137a5565b9050919050565b60008115159050919050565b600081905061379682613adc565b919050565b6000819050919050565b600073ffffffffffffffffffffffffffffffffffffffff82169050919050565b6000819050919050565b600060ff82169050919050565b60006137e7826137ee565b9050919050565b60006137f9826137a5565b9050919050565b600061380b82613812565b9050919050565b600061381d826137a5565b9050919050565b600061382f82613788565b9050919050565b6000613841826137c5565b9050919050565b60005b8381101561386657808201518184015260208101905061384b565b83811115613875576000848401525b50505050565b613884826139ac565b810181811067ffffffffffffffff821117156138a3576138a261397d565b5b80604052505050565b60006138b7826137c5565b91507fffffffffffffffffffffffffffffffffffffffffffffffffffffffffffffffff8214156138ea576138e961391f565b5b600182019050919050565b6000613900826137cf565b915060ff8214156139145761391361391f565b5b600182019050919050565b7f4e487b7100000000000000000000000000000000000000000000000000000000600052601160045260246000fd5b7f4e487b7100000000000000000000000000000000000000000000000000000000600052602160045260246000fd5b7f4e487b7100000000000000000000000000000000000000000000000000000000600052604160045260246000fd5b6000601f19601f8301169050919050565b7f5468697320696e7370656374696f6e20646f6e27742065786973747300000000600082015250565b7f5468697320696e7370656374696f6e206973206e6f74204f50454e0000000000600082015250565b7f596f75206e6f74206163636570746564207468697320696e7370656374696f6e600082015250565b7f52657175657374204f50454e206f722041434345505445440000000000000000600082015250565b7f416363657074207468697320696e7370656374696f6e206265666f7265000000600082015250565b7f506c656173652072656769737465722061732070726f64756365720000000000600082015250565b7f506c656173652072656769737465722061732061637469766973740000000000600082015250565b60048110613aed57613aec61394e565b5b50565b613af98161376a565b8114613b0457600080fd5b50565b613b108161377c565b8114613b1b57600080fd5b50565b60078110613b2b57600080fd5b50565b613b378161379b565b8114613b4257600080fd5b50565b613b4e816137c5565b8114613b5957600080fd5b5056fea264697066735822122080fca4852b22cf67511b469d6b7db34fa2d0b286ebf4c38d9afabd2aa50e61b264736f6c63430008020033",
  "immutableReferences": {},
  "source": "// SPDX-License-Identifier: GPL-3.0\r\npragma solidity >=0.7.0 <=0.9.0;\r\n\r\nimport \"./ProducerContract.sol\";\r\nimport \"./ActivistContract.sol\";\r\nimport \"./CategoryContract.sol\";\r\nimport \"./types/InspectionTypes.sol\";\r\n\r\n/**\r\n * @title SintropContract\r\n * @dev Sintrop application to certificated a rural producer\r\n */\r\ncontract Sintrop {\r\n  mapping(address => Inspection[]) internal userInspections;\r\n  mapping(uint256 => Inspection) internal inspections;\r\n\r\n  ActivistContract public activistContract;\r\n  ProducerContract public producerContract;\r\n\r\n  uint256 internal inspactionExpireIn = 604800;\r\n  uint256 public inspectionsCount;\r\n\r\n  constructor(address activistContractAddress, address producerContractAddress) {\r\n    activistContract = ActivistContract(activistContractAddress);\r\n    producerContract = ProducerContract(producerContractAddress);\r\n  }\r\n\r\n  /**\r\n   * @dev Allows the current user producer/activist get all yours inspections with status INSPECTED\r\n   */\r\n  function getInspectionsHistory() public view returns (Inspection[] memory) {\r\n    return userInspections[msg.sender];\r\n  }\r\n\r\n  /**\r\n   * @dev Allows the current user (producer) request a inspection.\r\n   */\r\n  function requestInspection()\r\n    public\r\n    producerMustExist\r\n    mustBeAbleToRequest\r\n    returns (bool) {\r\n    createRequest();\r\n    producerContract.recentInspection(msg.sender, true);\r\n\r\n    return true;\r\n  }\r\n\r\n  function createRequest() internal {\r\n    uint256[][] memory isas;\r\n    uint256 expiresIn = block.timestamp + inspactionExpireIn;\r\n    Inspection memory inspection = Inspection(\r\n      inspectionsCount + 1,\r\n      InspectionStatus.OPEN,\r\n      msg.sender,\r\n      msg.sender,\r\n      isas,\r\n      0,\r\n      expiresIn,\r\n      block.timestamp,\r\n      0\r\n    );\r\n    inspections[inspection.id] = inspection;\r\n    inspectionsCount++;\r\n  }\r\n\r\n  /**\r\n   * @dev Allows the current user (activist) accept a inspection.\r\n   * @param inspectionId The id of the inspection that the activist want accept.\r\n   */\r\n  function acceptInspection(uint256 inspectionId)\r\n    public\r\n    requireActivist\r\n    requireInspectionExists(inspectionId)\r\n    returns (bool)\r\n  {\r\n    Inspection memory inspection = inspections[inspectionId];\r\n\r\n    require(inspection.status == InspectionStatus.OPEN, \"This inspection is not OPEN\");\r\n\r\n    inspection.status = InspectionStatus.ACCEPTED;\r\n    inspection.updatedAt = block.timestamp;\r\n    inspection.activistWallet = msg.sender;\r\n    inspections[inspectionId] = inspection;\r\n\r\n    activistContract.recentInspection(msg.sender, true);\r\n\r\n    return true;\r\n  }\r\n\r\n  /**\r\n   * @dev Allow a activist realize a inspection and mark as INSPECTED\r\n   * @param inspectionId The id of the inspection to be realized\r\n   * @param isas The uint[][] of categoryId and isaIndex. Ex: isas = [ [categoryId, isaIndex], [categoryId, isaIndex] ]\r\n   */\r\n  function realizeInspection(uint256 inspectionId, uint256[][] memory isas)\r\n    public\r\n    requireActivist\r\n    requireInspectionExists(inspectionId)\r\n    requireInspectionAccepted(inspectionId)\r\n    requireInspectionOwner(inspectionId)\r\n    returns (bool)\r\n  {\r\n    Inspection memory inspection = inspections[inspectionId];\r\n\r\n    markAsRealized(inspection, isas);\r\n\r\n    afterRealizeInspection(inspection);\r\n\r\n    updateProducerIsa(inspection);\r\n\r\n    producerContract.approveProducerNewTokens(inspection.producerWallet, 2000);\r\n\r\n    return true;\r\n  }\r\n\r\n  /**\r\n   * @dev Calculate the ISA of the inspection based in the category and the ISA level of the category\r\n   * @param inspection Receive the inspected inspection with your isas levels\r\n   */\r\n  function calculateIsa(Inspection memory inspection) internal pure returns (int256) {\r\n    uint256[][] memory isas = inspection.isas;\r\n    int256 isaPoints = sumIsaPoints(isas);\r\n    return isaPoints;\r\n  }\r\n\r\n  /**\r\n   * @dev Sum the ISA points\r\n   * @param isas The isas values as list of [[categoryId, isaIndex], [categoryId, isaIndex]]\r\n   */\r\n  function sumIsaPoints(uint256[][] memory isas) internal pure returns (int256) {\r\n    int256[5] memory points = [int256(10), int256(5), int256(0), int256(-5), int256(-10)];\r\n    int256 isaPoints = 0;\r\n\r\n    for (uint8 i = 0; i < isas.length; i++) {\r\n      uint256 isaIndex = isas[i][1];\r\n      isaPoints += points[isaIndex];\r\n    }\r\n    return isaPoints;\r\n  }\r\n\r\n  function markAsRealized(Inspection memory inspection, uint256[][] memory isas) internal {\r\n    inspection.isas = isas;\r\n    inspection.status = InspectionStatus.INSPECTED;\r\n    inspection.updatedAt = block.timestamp;\r\n    inspection.isaPoints = calculateIsa(inspection);\r\n    inspections[inspection.id] = inspection;\r\n  }\r\n\r\n  function updateProducerIsa(Inspection memory inspection) internal {\r\n    producerContract.updateIsaPoints(inspection.producerWallet, inspection.isaPoints);\r\n  }\r\n\r\n  /**\r\n   * @dev Returns a inspection by id if that exists.\r\n   * @param id The id of the inspection to return.\r\n   */\r\n  function getInspection(uint256 id) public view returns (Inspection memory) {\r\n    return inspections[id];\r\n  }\r\n\r\n  /**\r\n   * @dev Returns all requested inspections.\r\n   */\r\n  function getInspections() public view returns (Inspection[] memory) {\r\n    Inspection[] memory inspectionsList = new Inspection[](inspectionsCount);\r\n\r\n    for (uint256 i = 0; i < inspectionsCount; i++) {\r\n      inspectionsList[i] = inspections[i + 1];\r\n    }\r\n\r\n    return inspectionsList;\r\n  }\r\n\r\n  /**\r\n   * @dev Returns all inpections status string.\r\n   */\r\n  function getInspectionsStatus()\r\n    public\r\n    pure\r\n    returns (\r\n      string memory,\r\n      string memory,\r\n      string memory,\r\n      string memory\r\n    )\r\n  {\r\n    return (\"OPEN\", \"EXPIRED\", \"INSPECTED\", \"ACCEPTED\");\r\n  }\r\n\r\n  /**\r\n   * @dev Check if an inspections exists in mapping.\r\n   * @param id The id of the inspection that the activist want accept.\r\n   */\r\n  function inspectionExists(uint256 id) public view returns (bool) {\r\n    return inspections[id].id >= 1;\r\n  }\r\n\r\n  /**\r\n   * @dev Inscrement producer and activist request action and mark both as no recent open requests and inspection\r\n   * @param inspection the inspected inspection\r\n   */\r\n  function afterRealizeInspection(Inspection memory inspection) internal {\r\n    address producerWallet = inspection.producerWallet;\r\n    address activistWallet = inspection.activistWallet;\r\n\r\n    // Increment actvist inspections and release to carry out new inspections\r\n    activistContract.recentInspection(activistWallet, false);\r\n    activistContract.incrementRequests(activistWallet);\r\n\r\n    // Increment producer requests and release to carry out new requests\r\n    producerContract.recentInspection(producerWallet, false);\r\n    producerContract.incrementRequests(producerWallet);\r\n\r\n    userInspections[producerWallet].push(inspection);\r\n    userInspections[activistWallet].push(inspection);\r\n  }\r\n\r\n  function isActivistOwner(uint256 inspectionId) internal view returns (bool) {\r\n    return inspections[inspectionId].activistWallet == msg.sender;\r\n  }\r\n\r\n  function isAccepted(uint256 inspectionId) internal view returns (bool) {\r\n    return inspections[inspectionId].status == InspectionStatus.ACCEPTED;\r\n  }\r\n\r\n  // MODIFIERS\r\n\r\n  modifier requireActivist() {\r\n    require(activistContract.activistExists(msg.sender), \"Please register as activist\");\r\n    _;\r\n  }\r\n\r\n  modifier requireInspectionExists(uint256 inspectionId) {\r\n    require(inspectionExists(inspectionId), \"This inspection don't exists\");\r\n    _;\r\n  }\r\n\r\n  modifier producerMustExist() {\r\n    require(producerContract.producerExists(msg.sender), \"Please register as producer\");\r\n    _;\r\n  }\r\n\r\n  modifier mustBeAbleToRequest() {\r\n    require(!producerContract.getProducer(msg.sender).recentInspection, \"Request OPEN or ACCEPTED\");\r\n    _;\r\n  }\r\n\r\n  modifier requireInspectionAccepted(uint256 inspectionId) {\r\n    require(isAccepted(inspectionId), \"Accept this inspection before\");\r\n    _;\r\n  }\r\n\r\n  modifier requireInspectionOwner(uint256 inspectionId) {\r\n    require(isActivistOwner(inspectionId), \"You not accepted this inspection\");\r\n    _;\r\n  }\r\n}\r\n",
  "sourcePath": "/app/contracts/Sintrop.sol",
  "compiler": {
    "name": "solc",
    "version": "0.8.2+commit.661d1103.Emscripten.clang"
  },
  "schemaVersion": "3.4.7",
  "updatedAt": "2022-06-09T13:20:08.174Z",
  "networkType": "ethereum",
  "devdoc": {
    "details": "Sintrop application to certificated a rural producer",
    "kind": "dev",
    "methods": {
      "acceptInspection(uint256)": {
        "details": "Allows the current user (activist) accept a inspection.",
        "params": {
          "inspectionId": "The id of the inspection that the activist want accept."
        }
      },
      "getInspection(uint256)": {
        "details": "Returns a inspection by id if that exists.",
        "params": {
          "id": "The id of the inspection to return."
        }
      },
      "getInspections()": {
        "details": "Returns all requested inspections."
      },
      "getInspectionsHistory()": {
        "details": "Allows the current user producer/activist get all yours inspections with status INSPECTED"
      },
      "getInspectionsStatus()": {
        "details": "Returns all inpections status string."
      },
      "inspectionExists(uint256)": {
        "details": "Check if an inspections exists in mapping.",
        "params": {
          "id": "The id of the inspection that the activist want accept."
        }
      },
      "realizeInspection(uint256,uint256[][])": {
        "details": "Allow a activist realize a inspection and mark as INSPECTED",
        "params": {
          "inspectionId": "The id of the inspection to be realized",
          "isas": "The uint[][] of categoryId and isaIndex. Ex: isas = [ [categoryId, isaIndex], [categoryId, isaIndex] ]"
        }
      },
      "requestInspection()": {
        "details": "Allows the current user (producer) request a inspection."
      }
    },
    "title": "SintropContract",
    "version": 1
  },
  "userdoc": {
    "kind": "user",
    "methods": {},
    "version": 1
  }
}