{
  "contractName": "Sintrop",
  "abi": [
    {
      "inputs": [
        {
          "internalType": "address",
          "name": "activistContractAddress",
          "type": "address"
        },
        {
          "internalType": "address",
          "name": "producerContractAddress",
          "type": "address"
        },
        {
          "internalType": "uint256",
          "name": "timeBetweenInspections_",
          "type": "uint256"
        }
      ],
      "stateMutability": "nonpayable",
      "type": "constructor"
    },
    {
      "inputs": [],
      "name": "activistContract",
      "outputs": [
        {
          "internalType": "contract ActivistContract",
          "name": "",
          "type": "address"
        }
      ],
      "stateMutability": "view",
      "type": "function",
      "constant": true
    },
    {
      "inputs": [],
      "name": "inspectionsCount",
      "outputs": [
        {
          "internalType": "uint256",
          "name": "",
          "type": "uint256"
        }
      ],
      "stateMutability": "view",
      "type": "function",
      "constant": true
    },
    {
      "inputs": [],
      "name": "producerContract",
      "outputs": [
        {
          "internalType": "contract ProducerContract",
          "name": "",
          "type": "address"
        }
      ],
      "stateMutability": "view",
      "type": "function",
      "constant": true
    },
    {
      "inputs": [],
      "name": "getInspectionsHistory",
      "outputs": [
        {
          "components": [
            {
              "internalType": "uint256",
              "name": "id",
              "type": "uint256"
            },
            {
              "internalType": "enum InspectionStatus",
              "name": "status",
              "type": "uint8"
            },
            {
              "internalType": "address",
              "name": "createdBy",
              "type": "address"
            },
            {
              "internalType": "address",
              "name": "acceptedBy",
              "type": "address"
            },
            {
              "internalType": "uint256[][]",
              "name": "isas",
              "type": "uint256[][]"
            },
            {
              "internalType": "int256",
              "name": "isaPoints",
              "type": "int256"
            },
            {
              "internalType": "uint256",
              "name": "createdAt",
              "type": "uint256"
            },
            {
              "internalType": "uint256",
              "name": "updatedAt",
              "type": "uint256"
            }
          ],
          "internalType": "struct Inspection[]",
          "name": "",
          "type": "tuple[]"
        }
      ],
      "stateMutability": "view",
      "type": "function",
      "constant": true
    },
    {
      "inputs": [],
      "name": "requestInspection",
      "outputs": [],
      "stateMutability": "nonpayable",
      "type": "function"
    },
    {
      "inputs": [
        {
          "internalType": "uint256",
          "name": "inspectionId",
          "type": "uint256"
        }
      ],
      "name": "acceptInspection",
      "outputs": [
        {
          "internalType": "bool",
          "name": "",
          "type": "bool"
        }
      ],
      "stateMutability": "nonpayable",
      "type": "function"
    },
    {
      "inputs": [
        {
          "internalType": "uint256",
          "name": "inspectionId",
          "type": "uint256"
        },
        {
          "internalType": "uint256[][]",
          "name": "isas",
          "type": "uint256[][]"
        }
      ],
      "name": "realizeInspection",
      "outputs": [
        {
          "internalType": "bool",
          "name": "",
          "type": "bool"
        }
      ],
      "stateMutability": "nonpayable",
      "type": "function"
    },
    {
      "inputs": [
        {
          "internalType": "uint256",
          "name": "id",
          "type": "uint256"
        }
      ],
      "name": "getInspection",
      "outputs": [
        {
          "components": [
            {
              "internalType": "uint256",
              "name": "id",
              "type": "uint256"
            },
            {
              "internalType": "enum InspectionStatus",
              "name": "status",
              "type": "uint8"
            },
            {
              "internalType": "address",
              "name": "createdBy",
              "type": "address"
            },
            {
              "internalType": "address",
              "name": "acceptedBy",
              "type": "address"
            },
            {
              "internalType": "uint256[][]",
              "name": "isas",
              "type": "uint256[][]"
            },
            {
              "internalType": "int256",
              "name": "isaPoints",
              "type": "int256"
            },
            {
              "internalType": "uint256",
              "name": "createdAt",
              "type": "uint256"
            },
            {
              "internalType": "uint256",
              "name": "updatedAt",
              "type": "uint256"
            }
          ],
          "internalType": "struct Inspection",
          "name": "",
          "type": "tuple"
        }
      ],
      "stateMutability": "view",
      "type": "function",
      "constant": true
    },
    {
      "inputs": [],
      "name": "getInspections",
      "outputs": [
        {
          "components": [
            {
              "internalType": "uint256",
              "name": "id",
              "type": "uint256"
            },
            {
              "internalType": "enum InspectionStatus",
              "name": "status",
              "type": "uint8"
            },
            {
              "internalType": "address",
              "name": "createdBy",
              "type": "address"
            },
            {
              "internalType": "address",
              "name": "acceptedBy",
              "type": "address"
            },
            {
              "internalType": "uint256[][]",
              "name": "isas",
              "type": "uint256[][]"
            },
            {
              "internalType": "int256",
              "name": "isaPoints",
              "type": "int256"
            },
            {
              "internalType": "uint256",
              "name": "createdAt",
              "type": "uint256"
            },
            {
              "internalType": "uint256",
              "name": "updatedAt",
              "type": "uint256"
            }
          ],
          "internalType": "struct Inspection[]",
          "name": "",
          "type": "tuple[]"
        }
      ],
      "stateMutability": "view",
      "type": "function",
      "constant": true
    },
    {
      "inputs": [],
      "name": "getInspectionsStatus",
      "outputs": [
        {
          "internalType": "string",
          "name": "",
          "type": "string"
        },
        {
          "internalType": "string",
          "name": "",
          "type": "string"
        },
        {
          "internalType": "string",
          "name": "",
          "type": "string"
        },
        {
          "internalType": "string",
          "name": "",
          "type": "string"
        }
      ],
      "stateMutability": "pure",
      "type": "function",
      "constant": true
    },
    {
      "inputs": [
        {
          "internalType": "uint256",
          "name": "id",
          "type": "uint256"
        }
      ],
      "name": "inspectionExists",
      "outputs": [
        {
          "internalType": "bool",
          "name": "",
          "type": "bool"
        }
      ],
      "stateMutability": "view",
      "type": "function",
      "constant": true
    },
    {
      "inputs": [],
      "name": "canRequestInspection",
      "outputs": [
        {
          "internalType": "bool",
          "name": "",
          "type": "bool"
        }
      ],
      "stateMutability": "view",
      "type": "function",
      "constant": true
    }
  ],
  "bytecode": "0x60806040523480156200001157600080fd5b5060405162003f2338038062003f238339818101604052810190620000379190620000f7565b82600260006101000a81548173ffffffffffffffffffffffffffffffffffffffff021916908373ffffffffffffffffffffffffffffffffffffffff16021790555081600360006101000a81548173ffffffffffffffffffffffffffffffffffffffff021916908373ffffffffffffffffffffffffffffffffffffffff16021790555080600581905550505050620001bf565b600081519050620000da816200018b565b92915050565b600081519050620000f181620001a5565b92915050565b6000806000606084860312156200010d57600080fd5b60006200011d86828701620000c9565b93505060206200013086828701620000c9565b92505060406200014386828701620000e0565b9150509250925092565b60006200015a8262000161565b9050919050565b600073ffffffffffffffffffffffffffffffffffffffff82169050919050565b6000819050919050565b62000196816200014d565b8114620001a257600080fd5b50565b620001b08162000181565b8114620001bc57600080fd5b50565b613d5480620001cf6000396000f3fe608060405234801561001057600080fd5b50600436106100b45760003560e01c8063ca14d0e311610071578063ca14d0e31461016b578063dd6850c614610189578063e7857502146101aa578063ee699fc1146101da578063f2836670146101f8578063fe5a4fa414610228576100b4565b80630bbec3c2146100b95780632cdf0e9a146100d75780634b026e87146100f55780635401c1f21461011357806386ae2fb114610131578063b92bd2d91461013b575b600080fd5b6100c1610258565b6040516100ce9190613493565b60405180910390f35b6100df6104ee565b6040516100ec91906134eb565b60405180910390f35b6100fd610514565b60405161010a91906134d0565b60405180910390f35b61011b61053a565b6040516101289190613689565b60405180910390f35b610139610540565b005b61015560048036038101906101509190612ea2565b61088e565b60405161016291906134b5565b60405180910390f35b610173610d31565b60405161018091906134b5565b60405180910390f35b610191610e18565b6040516101a19493929190613506565b60405180910390f35b6101c460048036038101906101bf9190612e79565b610f04565b6040516101d191906134b5565b60405180910390f35b6101e26115a7565b6040516101ef9190613493565b60405180910390f35b610212600480360381019061020d9190612e79565b6118ba565b60405161021f9190613667565b60405180910390f35b610242600480360381019061023d9190612e79565b611ae2565b60405161024f91906134b5565b60405180910390f35b60606000803373ffffffffffffffffffffffffffffffffffffffff1673ffffffffffffffffffffffffffffffffffffffff168152602001908152602001600020805480602002602001604051908101604052809291908181526020016000905b828210156104e5578382906000526020600020906007020160405180610100016040529081600082015481526020016001820160009054906101000a900460ff166003811115610331577f4e487b7100000000000000000000000000000000000000000000000000000000600052602160045260246000fd5b6003811115610369577f4e487b7100000000000000000000000000000000000000000000000000000000600052602160045260246000fd5b81526020016001820160019054906101000a900473ffffffffffffffffffffffffffffffffffffffff1673ffffffffffffffffffffffffffffffffffffffff1673ffffffffffffffffffffffffffffffffffffffff1681526020016002820160009054906101000a900473ffffffffffffffffffffffffffffffffffffffff1673ffffffffffffffffffffffffffffffffffffffff1673ffffffffffffffffffffffffffffffffffffffff16815260200160038201805480602002602001604051908101604052809291908181526020016000905b828210156104b05783829060005260206000200180548060200260200160405190810160405280929190818152602001828054801561049c57602002820191906000526020600020905b815481526020019060010190808311610488575b50505050508152602001906001019061043e565b5050505081526020016004820154815260200160058201548152602001600682015481525050815260200190600101906102b8565b50505050905090565b600360009054906101000a900473ffffffffffffffffffffffffffffffffffffffff1681565b600260009054906101000a900473ffffffffffffffffffffffffffffffffffffffff1681565b60045481565b600360009054906101000a900473ffffffffffffffffffffffffffffffffffffffff1673ffffffffffffffffffffffffffffffffffffffff1663e9e797ac336040518263ffffffff1660e01b815260040161059b91906133d4565b60206040518083038186803b1580156105b357600080fd5b505afa1580156105c7573d6000803e3d6000fd5b505050506040513d601f19601f820116820180604052508101906105eb9190612e0f565b61062a576040517f08c379a000000000000000000000000000000000000000000000000000000000815260040161062190613627565b60405180910390fd5b600360009054906101000a900473ffffffffffffffffffffffffffffffffffffffff1673ffffffffffffffffffffffffffffffffffffffff1663aab147b2336040518263ffffffff1660e01b815260040161068591906133d4565b60006040518083038186803b15801561069d57600080fd5b505afa1580156106b1573d6000803e3d6000fd5b505050506040513d6000823e3d601f19601f820116820180604052508101906106da9190612e38565b60c001511561071e576040517f08c379a0000000000000000000000000000000000000000000000000000000008152600401610715906135c7565b60405180910390fd5b610726610d31565b610765576040517f08c379a000000000000000000000000000000000000000000000000000000000815260040161075c90613607565b60405180910390fd5b61076d611b05565b600360009054906101000a900473ffffffffffffffffffffffffffffffffffffffff1673ffffffffffffffffffffffffffffffffffffffff1663360912ab3360016040518363ffffffff1660e01b81526004016107cb9291906133ef565b600060405180830381600087803b1580156107e557600080fd5b505af11580156107f9573d6000803e3d6000fd5b50505050600360009054906101000a900473ffffffffffffffffffffffffffffffffffffffff1673ffffffffffffffffffffffffffffffffffffffff166364ff847733436040518363ffffffff1660e01b815260040161085a92919061346a565b600060405180830381600087803b15801561087457600080fd5b505af1158015610888573d6000803e3d6000fd5b50505050565b6000600260009054906101000a900473ffffffffffffffffffffffffffffffffffffffff1673ffffffffffffffffffffffffffffffffffffffff16638c4772fc336040518263ffffffff1660e01b81526004016108eb91906133d4565b60206040518083038186803b15801561090357600080fd5b505afa158015610917573d6000803e3d6000fd5b505050506040513d601f19601f8201168201806040525081019061093b9190612e0f565b61097a576040517f08c379a000000000000000000000000000000000000000000000000000000000815260040161097190613647565b60405180910390fd5b8261098481611ae2565b6109c3576040517f08c379a00000000000000000000000000000000000000000000000000000000081526004016109ba90613567565b60405180910390fd5b836109cd81611d1a565b610a0c576040517f08c379a0000000000000000000000000000000000000000000000000000000008152600401610a03906135e7565b60405180910390fd5b84610a1681611dba565b610a55576040517f08c379a0000000000000000000000000000000000000000000000000000000008152600401610a4c906135a7565b60405180910390fd5b60006001600088815260200190815260200160002060405180610100016040529081600082015481526020016001820160009054906101000a900460ff166003811115610acb577f4e487b7100000000000000000000000000000000000000000000000000000000600052602160045260246000fd5b6003811115610b03577f4e487b7100000000000000000000000000000000000000000000000000000000600052602160045260246000fd5b81526020016001820160019054906101000a900473ffffffffffffffffffffffffffffffffffffffff1673ffffffffffffffffffffffffffffffffffffffff1673ffffffffffffffffffffffffffffffffffffffff1681526020016002820160009054906101000a900473ffffffffffffffffffffffffffffffffffffffff1673ffffffffffffffffffffffffffffffffffffffff1673ffffffffffffffffffffffffffffffffffffffff16815260200160038201805480602002602001604051908101604052809291908181526020016000905b82821015610c4a57838290600052602060002001805480602002602001604051908101604052809291908181526020018280548015610c3657602002820191906000526020600020905b815481526020019060010190808311610c22575b505050505081526020019060010190610bd8565b50505050815260200160048201548152602001600582015481526020016006820154815250509050610c7c8187611e28565b610c8581612012565b610c8e81612589565b600360009054906101000a900473ffffffffffffffffffffffffffffffffffffffff1673ffffffffffffffffffffffffffffffffffffffff1663b08ab06182604001516107d06040518363ffffffff1660e01b8152600401610cf1929190613441565b600060405180830381600087803b158015610d0b57600080fd5b505af1158015610d1f573d6000803e3d6000fd5b50505050600194505050505092915050565b600080600360009054906101000a900473ffffffffffffffffffffffffffffffffffffffff1673ffffffffffffffffffffffffffffffffffffffff1663aab147b2336040518263ffffffff1660e01b8152600401610d8f91906133d4565b60006040518083038186803b158015610da757600080fd5b505afa158015610dbb573d6000803e3d6000fd5b505050506040513d6000823e3d601f19601f82011682018060405250810190610de49190612e38565b905060008161012001519050600060055482610e0091906138ad565b431190508080610e105750600082145b935050505090565b6060806060806040518060400160405280600481526020017f4f50454e000000000000000000000000000000000000000000000000000000008152506040518060400160405280600881526020017f41434345505445440000000000000000000000000000000000000000000000008152506040518060400160405280600981526020017f494e5350454354454400000000000000000000000000000000000000000000008152506040518060400160405280600781526020017f4558504952454400000000000000000000000000000000000000000000000000815250935093509350935090919293565b6000600260009054906101000a900473ffffffffffffffffffffffffffffffffffffffff1673ffffffffffffffffffffffffffffffffffffffff16638c4772fc336040518263ffffffff1660e01b8152600401610f6191906133d4565b60206040518083038186803b158015610f7957600080fd5b505afa158015610f8d573d6000803e3d6000fd5b505050506040513d601f19601f82011682018060405250810190610fb19190612e0f565b610ff0576040517f08c379a0000000000000000000000000000000000000000000000000000000008152600401610fe790613647565b60405180910390fd5b81610ffa81611ae2565b611039576040517f08c379a000000000000000000000000000000000000000000000000000000000815260040161103090613567565b60405180910390fd5b60006001600085815260200190815260200160002060405180610100016040529081600082015481526020016001820160009054906101000a900460ff1660038111156110af577f4e487b7100000000000000000000000000000000000000000000000000000000600052602160045260246000fd5b60038111156110e7577f4e487b7100000000000000000000000000000000000000000000000000000000600052602160045260246000fd5b81526020016001820160019054906101000a900473ffffffffffffffffffffffffffffffffffffffff1673ffffffffffffffffffffffffffffffffffffffff1673ffffffffffffffffffffffffffffffffffffffff1681526020016002820160009054906101000a900473ffffffffffffffffffffffffffffffffffffffff1673ffffffffffffffffffffffffffffffffffffffff1673ffffffffffffffffffffffffffffffffffffffff16815260200160038201805480602002602001604051908101604052809291908181526020016000905b8282101561122e5783829060005260206000200180548060200260200160405190810160405280929190818152602001828054801561121a57602002820191906000526020600020905b815481526020019060010190808311611206575b5050505050815260200190600101906111bc565b5050505081526020016004820154815260200160058201548152602001600682015481525050905060006003811115611290577f4e487b7100000000000000000000000000000000000000000000000000000000600052602160045260246000fd5b816020015160038111156112cd577f4e487b7100000000000000000000000000000000000000000000000000000000600052602160045260246000fd5b1461130d576040517f08c379a000000000000000000000000000000000000000000000000000000000815260040161130490613587565b60405180910390fd5b60018160200190600381111561134c577f4e487b7100000000000000000000000000000000000000000000000000000000600052602160045260246000fd5b90816003811115611386577f4e487b7100000000000000000000000000000000000000000000000000000000600052602160045260246000fd5b81525050428160e001818152505033816060019073ffffffffffffffffffffffffffffffffffffffff16908173ffffffffffffffffffffffffffffffffffffffff168152505080600160008681526020019081526020016000206000820151816000015560208201518160010160006101000a81548160ff0219169083600381111561143b577f4e487b7100000000000000000000000000000000000000000000000000000000600052602160045260246000fd5b021790555060408201518160010160016101000a81548173ffffffffffffffffffffffffffffffffffffffff021916908373ffffffffffffffffffffffffffffffffffffffff16021790555060608201518160020160006101000a81548173ffffffffffffffffffffffffffffffffffffffff021916908373ffffffffffffffffffffffffffffffffffffffff16021790555060808201518160030190805190602001906114ea9291906127b6565b5060a0820151816004015560c0820151816005015560e08201518160060155905050600260009054906101000a900473ffffffffffffffffffffffffffffffffffffffff1673ffffffffffffffffffffffffffffffffffffffff1663360912ab3360016040518363ffffffff1660e01b815260040161156a9291906133ef565b600060405180830381600087803b15801561158457600080fd5b505af1158015611598573d6000803e3d6000fd5b50505050600192505050919050565b6060600060045467ffffffffffffffff8111156115ed577f4e487b7100000000000000000000000000000000000000000000000000000000600052604160045260246000fd5b60405190808252806020026020018201604052801561162657816020015b611613612816565b81526020019060019003908161160b5790505b50905060005b6004548110156118b2576001600060018361164791906138ad565b815260200190815260200160002060405180610100016040529081600082015481526020016001820160009054906101000a900460ff1660038111156116b6577f4e487b7100000000000000000000000000000000000000000000000000000000600052602160045260246000fd5b60038111156116ee577f4e487b7100000000000000000000000000000000000000000000000000000000600052602160045260246000fd5b81526020016001820160019054906101000a900473ffffffffffffffffffffffffffffffffffffffff1673ffffffffffffffffffffffffffffffffffffffff1673ffffffffffffffffffffffffffffffffffffffff1681526020016002820160009054906101000a900473ffffffffffffffffffffffffffffffffffffffff1673ffffffffffffffffffffffffffffffffffffffff1673ffffffffffffffffffffffffffffffffffffffff16815260200160038201805480602002602001604051908101604052809291908181526020016000905b828210156118355783829060005260206000200180548060200260200160405190810160405280929190818152602001828054801561182157602002820191906000526020600020905b81548152602001906001019080831161180d575b5050505050815260200190600101906117c3565b5050505081526020016004820154815260200160058201548152602001600682015481525050828281518110611894577f4e487b7100000000000000000000000000000000000000000000000000000000600052603260045260246000fd5b602002602001018190525080806118aa90613a45565b91505061162c565b508091505090565b6118c2612816565b6001600083815260200190815260200160002060405180610100016040529081600082015481526020016001820160009054906101000a900460ff166003811115611936577f4e487b7100000000000000000000000000000000000000000000000000000000600052602160045260246000fd5b600381111561196e577f4e487b7100000000000000000000000000000000000000000000000000000000600052602160045260246000fd5b81526020016001820160019054906101000a900473ffffffffffffffffffffffffffffffffffffffff1673ffffffffffffffffffffffffffffffffffffffff1673ffffffffffffffffffffffffffffffffffffffff1681526020016002820160009054906101000a900473ffffffffffffffffffffffffffffffffffffffff1673ffffffffffffffffffffffffffffffffffffffff1673ffffffffffffffffffffffffffffffffffffffff16815260200160038201805480602002602001604051908101604052809291908181526020016000905b82821015611ab557838290600052602060002001805480602002602001604051908101604052809291908181526020018280548015611aa157602002820191906000526020600020905b815481526020019060010190808311611a8d575b505050505081526020019060010190611a43565b50505050815260200160048201548152602001600582015481526020016006820154815250509050919050565b600060018060008481526020019081526020016000206000015410159050919050565b606060006040518061010001604052806001600454611b2491906138ad565b815260200160006003811115611b63577f4e487b7100000000000000000000000000000000000000000000000000000000600052602160045260246000fd5b81526020013373ffffffffffffffffffffffffffffffffffffffff1681526020013373ffffffffffffffffffffffffffffffffffffffff16815260200183815260200160008152602001438152602001600081525090508060016000836000015181526020019081526020016000206000820151816000015560208201518160010160006101000a81548160ff02191690836003811115611c2d577f4e487b7100000000000000000000000000000000000000000000000000000000600052602160045260246000fd5b021790555060408201518160010160016101000a81548173ffffffffffffffffffffffffffffffffffffffff021916908373ffffffffffffffffffffffffffffffffffffffff16021790555060608201518160020160006101000a81548173ffffffffffffffffffffffffffffffffffffffff021916908373ffffffffffffffffffffffffffffffffffffffff1602179055506080820151816003019080519060200190611cdc9291906127b6565b5060a0820151816004015560c0820151816005015560e0820151816006015590505060046000815480929190611d1190613a45565b91905055505050565b600060016003811115611d56577f4e487b7100000000000000000000000000000000000000000000000000000000600052602160045260246000fd5b6001600084815260200190815260200160002060010160009054906101000a900460ff166003811115611db2577f4e487b7100000000000000000000000000000000000000000000000000000000600052602160045260246000fd5b149050919050565b60003373ffffffffffffffffffffffffffffffffffffffff166001600084815260200190815260200160002060020160009054906101000a900473ffffffffffffffffffffffffffffffffffffffff1673ffffffffffffffffffffffffffffffffffffffff16149050919050565b808260800181905250600282602001906003811115611e70577f4e487b7100000000000000000000000000000000000000000000000000000000600052602160045260246000fd5b90816003811115611eaa577f4e487b7100000000000000000000000000000000000000000000000000000000600052602160045260246000fd5b81525050428260e0018181525050611ec182612623565b8260a00181815250508160016000846000015181526020019081526020016000206000820151816000015560208201518160010160006101000a81548160ff02191690836003811115611f3d577f4e487b7100000000000000000000000000000000000000000000000000000000600052602160045260246000fd5b021790555060408201518160010160016101000a81548173ffffffffffffffffffffffffffffffffffffffff021916908373ffffffffffffffffffffffffffffffffffffffff16021790555060608201518160020160006101000a81548173ffffffffffffffffffffffffffffffffffffffff021916908373ffffffffffffffffffffffffffffffffffffffff1602179055506080820151816003019080519060200190611fec9291906127b6565b5060a0820151816004015560c0820151816005015560e082015181600601559050505050565b600081604001519050600082606001519050600260009054906101000a900473ffffffffffffffffffffffffffffffffffffffff1673ffffffffffffffffffffffffffffffffffffffff1663360912ab8260006040518363ffffffff1660e01b81526004016120829291906133ef565b600060405180830381600087803b15801561209c57600080fd5b505af11580156120b0573d6000803e3d6000fd5b50505050600260009054906101000a900473ffffffffffffffffffffffffffffffffffffffff1673ffffffffffffffffffffffffffffffffffffffff1663c19c9037826040518263ffffffff1660e01b815260040161210f91906133d4565b600060405180830381600087803b15801561212957600080fd5b505af115801561213d573d6000803e3d6000fd5b50505050600360009054906101000a900473ffffffffffffffffffffffffffffffffffffffff1673ffffffffffffffffffffffffffffffffffffffff1663360912ab8360006040518363ffffffff1660e01b815260040161219f9291906133ef565b600060405180830381600087803b1580156121b957600080fd5b505af11580156121cd573d6000803e3d6000fd5b50505050600360009054906101000a900473ffffffffffffffffffffffffffffffffffffffff1673ffffffffffffffffffffffffffffffffffffffff1663c19c9037836040518263ffffffff1660e01b815260040161222c91906133d4565b600060405180830381600087803b15801561224657600080fd5b505af115801561225a573d6000803e3d6000fd5b505050506000808373ffffffffffffffffffffffffffffffffffffffff1673ffffffffffffffffffffffffffffffffffffffff1681526020019081526020016000208390806001815401808255809150506001900390600052602060002090600702016000909190919091506000820151816000015560208201518160010160006101000a81548160ff02191690836003811115612321577f4e487b7100000000000000000000000000000000000000000000000000000000600052602160045260246000fd5b021790555060408201518160010160016101000a81548173ffffffffffffffffffffffffffffffffffffffff021916908373ffffffffffffffffffffffffffffffffffffffff16021790555060608201518160020160006101000a81548173ffffffffffffffffffffffffffffffffffffffff021916908373ffffffffffffffffffffffffffffffffffffffff16021790555060808201518160030190805190602001906123d09291906127b6565b5060a0820151816004015560c0820151816005015560e0820151816006015550506000808273ffffffffffffffffffffffffffffffffffffffff1673ffffffffffffffffffffffffffffffffffffffff1681526020019081526020016000208390806001815401808255809150506001900390600052602060002090600702016000909190919091506000820151816000015560208201518160010160006101000a81548160ff021916908360038111156124b4577f4e487b7100000000000000000000000000000000000000000000000000000000600052602160045260246000fd5b021790555060408201518160010160016101000a81548173ffffffffffffffffffffffffffffffffffffffff021916908373ffffffffffffffffffffffffffffffffffffffff16021790555060608201518160020160006101000a81548173ffffffffffffffffffffffffffffffffffffffff021916908373ffffffffffffffffffffffffffffffffffffffff16021790555060808201518160030190805190602001906125639291906127b6565b5060a0820151816004015560c0820151816005015560e082015181600601555050505050565b600360009054906101000a900473ffffffffffffffffffffffffffffffffffffffff1673ffffffffffffffffffffffffffffffffffffffff16632253eee482604001518360a001516040518363ffffffff1660e01b81526004016125ee929190613418565b600060405180830381600087803b15801561260857600080fd5b505af115801561261c573d6000803e3d6000fd5b5050505050565b60008082608001519050600061263882612644565b90508092505050919050565b6000806040518060a00160405280600a815260200160058152602001600081526020017ffffffffffffffffffffffffffffffffffffffffffffffffffffffffffffffffb81526020017ffffffffffffffffffffffffffffffffffffffffffffffffffffffffffffffff681525090506000805b84518160ff1610156127ab576000858260ff1681518110612701577f4e487b7100000000000000000000000000000000000000000000000000000000600052603260045260246000fd5b6020026020010151600181518110612742577f4e487b7100000000000000000000000000000000000000000000000000000000600052603260045260246000fd5b60200260200101519050838160058110612785577f4e487b7100000000000000000000000000000000000000000000000000000000600052603260045260246000fd5b6020020151836127959190613819565b92505080806127a390613a8e565b9150506126b7565b508092505050919050565b828054828255906000526020600020908101928215612805579160200282015b828111156128045782518290805190602001906127f49291906128bf565b50916020019190600101906127d6565b5b509050612812919061290c565b5090565b6040518061010001604052806000815260200160006003811115612863577f4e487b7100000000000000000000000000000000000000000000000000000000600052602160045260246000fd5b8152602001600073ffffffffffffffffffffffffffffffffffffffff168152602001600073ffffffffffffffffffffffffffffffffffffffff168152602001606081526020016000815260200160008152602001600081525090565b8280548282559060005260206000209081019282156128fb579160200282015b828111156128fa5782518255916020019190600101906128df565b5b5090506129089190612930565b5090565b5b8082111561292c5760008181612923919061294d565b5060010161290d565b5090565b5b80821115612949576000816000905550600101612931565b5090565b508054600082559060005260206000209081019061296b9190612930565b50565b600061298161297c846136c9565b6136a4565b9050808382526020820190508260005b858110156129c157813585016129a78882612ab4565b845260208401935060208301925050600181019050612991565b5050509392505050565b60006129de6129d9846136f5565b6136a4565b905080838252602082019050828560208602820111156129fd57600080fd5b60005b85811015612a2d5781612a138882612de5565b845260208401935060208301925050600181019050612a00565b5050509392505050565b6000612a4a612a4584613721565b6136a4565b905082815260208101848484011115612a6257600080fd5b612a6d8482856139e1565b509392505050565b600081519050612a8481613cb2565b92915050565b600082601f830112612a9b57600080fd5b8135612aab84826020860161296e565b91505092915050565b600082601f830112612ac557600080fd5b8135612ad58482602086016129cb565b91505092915050565b600081519050612aed81613cc9565b92915050565b600081519050612b0281613ce0565b92915050565b600081519050612b1781613cf0565b92915050565b600082601f830112612b2e57600080fd5b8151612b3e848260208601612a37565b91505092915050565b60006101a08284031215612b5a57600080fd5b612b656101806136a4565b90506000612b7584828501612dfa565b6000830152506020612b8984828501612a75565b6020830152506040612b9d84828501612af3565b604083015250606082015167ffffffffffffffff811115612bbd57600080fd5b612bc984828501612b1d565b606083015250608082015167ffffffffffffffff811115612be957600080fd5b612bf584828501612b1d565b60808301525060a082015167ffffffffffffffff811115612c1557600080fd5b612c2184828501612b1d565b60a08301525060c0612c3584828501612ade565b60c08301525060e0612c4984828501612dfa565b60e083015250610100612c5e84828501612b08565b61010083015250610120612c7484828501612dfa565b61012083015250610140612c8a84828501612d99565b6101408301525061018082015167ffffffffffffffff811115612cac57600080fd5b612cb884828501612cc5565b6101608301525092915050565b600060808284031215612cd757600080fd5b612ce160806136a4565b9050600082015167ffffffffffffffff811115612cfd57600080fd5b612d0984828501612b1d565b600083015250602082015167ffffffffffffffff811115612d2957600080fd5b612d3584828501612b1d565b602083015250604082015167ffffffffffffffff811115612d5557600080fd5b612d6184828501612b1d565b604083015250606082015167ffffffffffffffff811115612d8157600080fd5b612d8d84828501612b1d565b60608301525092915050565b600060408284031215612dab57600080fd5b612db560406136a4565b90506000612dc584828501612dfa565b6000830152506020612dd984828501612ade565b60208301525092915050565b600081359050612df481613d07565b92915050565b600081519050612e0981613d07565b92915050565b600060208284031215612e2157600080fd5b6000612e2f84828501612ade565b91505092915050565b600060208284031215612e4a57600080fd5b600082015167ffffffffffffffff811115612e6457600080fd5b612e7084828501612b47565b91505092915050565b600060208284031215612e8b57600080fd5b6000612e9984828501612de5565b91505092915050565b60008060408385031215612eb557600080fd5b6000612ec385828601612de5565b925050602083013567ffffffffffffffff811115612ee057600080fd5b612eec85828601612a8a565b9150509250929050565b6000612f02838361303e565b905092915050565b6000612f168383613256565b905092915050565b6000612f2a83836133b6565b60208301905092915050565b612f3f81613903565b82525050565b612f4e81613903565b82525050565b6000612f5f82613782565b612f6981856137d5565b935083602082028501612f7b85613752565b8060005b85811015612fb75784840389528151612f988582612ef6565b9450612fa3836137ae565b925060208a01995050600181019050612f7f565b50829750879550505050505092915050565b6000612fd48261378d565b612fde81856137e6565b935083602082028501612ff085613762565b8060005b8581101561302c578484038952815161300d8582612f0a565b9450613018836137bb565b925060208a01995050600181019050612ff4565b50829750879550505050505092915050565b600061304982613798565b61305381856137f7565b935061305e83613772565b8060005b8381101561308f5781516130768882612f1e565b9750613081836137c8565b925050600181019050613062565b5085935050505092915050565b6130a581613915565b82525050565b6130b481613975565b82525050565b6130c381613999565b82525050565b6130d2816139bd565b82525050565b6130e181613934565b82525050565b6130f081613934565b82525050565b6130ff816139cf565b82525050565b6000613110826137a3565b61311a8185613808565b935061312a8185602086016139e1565b61313381613b45565b840191505092915050565b600061314b601c83613808565b915061315682613b56565b602082019050919050565b600061316e601b83613808565b915061317982613b7f565b602082019050919050565b6000613191602083613808565b915061319c82613ba8565b602082019050919050565b60006131b4601883613808565b91506131bf82613bd1565b602082019050919050565b60006131d7601d83613808565b91506131e282613bfa565b602082019050919050565b60006131fa601183613808565b915061320582613c23565b602082019050919050565b600061321d601b83613808565b915061322882613c4c565b602082019050919050565b6000613240601b83613808565b915061324b82613c75565b602082019050919050565b60006101008301600083015161326f60008601826133b6565b50602083015161328260208601826130c9565b5060408301516132956040860182612f36565b5060608301516132a86060860182612f36565b50608083015184820360808601526132c08282612f54565b91505060a08301516132d560a08601826130d8565b5060c08301516132e860c08601826133b6565b5060e08301516132fb60e08601826133b6565b508091505092915050565b60006101008301600083015161331f60008601826133b6565b50602083015161333260208601826130c9565b5060408301516133456040860182612f36565b5060608301516133586060860182612f36565b50608083015184820360808601526133708282612f54565b91505060a083015161338560a08601826130d8565b5060c083015161339860c08601826133b6565b5060e08301516133ab60e08601826133b6565b508091505092915050565b6133bf8161395e565b82525050565b6133ce8161395e565b82525050565b60006020820190506133e96000830184612f45565b92915050565b60006040820190506134046000830185612f45565b613411602083018461309c565b9392505050565b600060408201905061342d6000830185612f45565b61343a60208301846130e7565b9392505050565b60006040820190506134566000830185612f45565b61346360208301846130f6565b9392505050565b600060408201905061347f6000830185612f45565b61348c60208301846133c5565b9392505050565b600060208201905081810360008301526134ad8184612fc9565b905092915050565b60006020820190506134ca600083018461309c565b92915050565b60006020820190506134e560008301846130ab565b92915050565b600060208201905061350060008301846130ba565b92915050565b600060808201905081810360008301526135208187613105565b905081810360208301526135348186613105565b905081810360408301526135488185613105565b9050818103606083015261355c8184613105565b905095945050505050565b600060208201905081810360008301526135808161313e565b9050919050565b600060208201905081810360008301526135a081613161565b9050919050565b600060208201905081810360008301526135c081613184565b9050919050565b600060208201905081810360008301526135e0816131a7565b9050919050565b60006020820190508181036000830152613600816131ca565b9050919050565b60006020820190508181036000830152613620816131ed565b9050919050565b6000602082019050818103600083015261364081613210565b9050919050565b6000602082019050818103600083015261366081613233565b9050919050565b600060208201905081810360008301526136818184613306565b905092915050565b600060208201905061369e60008301846133c5565b92915050565b60006136ae6136bf565b90506136ba8282613a14565b919050565b6000604051905090565b600067ffffffffffffffff8211156136e4576136e3613b16565b5b602082029050602081019050919050565b600067ffffffffffffffff8211156137105761370f613b16565b5b602082029050602081019050919050565b600067ffffffffffffffff82111561373c5761373b613b16565b5b61374582613b45565b9050602081019050919050565b6000819050602082019050919050565b6000819050602082019050919050565b6000819050602082019050919050565b600081519050919050565b600081519050919050565b600081519050919050565b600081519050919050565b6000602082019050919050565b6000602082019050919050565b6000602082019050919050565b600082825260208201905092915050565b600082825260208201905092915050565b600082825260208201905092915050565b600082825260208201905092915050565b600061382482613934565b915061382f83613934565b9250817f7fffffffffffffffffffffffffffffffffffffffffffffffffffffffffffffff0383136000831215161561386a57613869613ab8565b5b817f80000000000000000000000000000000000000000000000000000000000000000383126000831216156138a2576138a1613ab8565b5b828201905092915050565b60006138b88261395e565b91506138c38361395e565b9250827fffffffffffffffffffffffffffffffffffffffffffffffffffffffffffffffff038211156138f8576138f7613ab8565b5b828201905092915050565b600061390e8261393e565b9050919050565b60008115159050919050565b600081905061392f82613c9e565b919050565b6000819050919050565b600073ffffffffffffffffffffffffffffffffffffffff82169050919050565b6000819050919050565b600060ff82169050919050565b600061398082613987565b9050919050565b60006139928261393e565b9050919050565b60006139a4826139ab565b9050919050565b60006139b68261393e565b9050919050565b60006139c882613921565b9050919050565b60006139da8261395e565b9050919050565b60005b838110156139ff5780820151818401526020810190506139e4565b83811115613a0e576000848401525b50505050565b613a1d82613b45565b810181811067ffffffffffffffff82111715613a3c57613a3b613b16565b5b80604052505050565b6000613a508261395e565b91507fffffffffffffffffffffffffffffffffffffffffffffffffffffffffffffffff821415613a8357613a82613ab8565b5b600182019050919050565b6000613a9982613968565b915060ff821415613aad57613aac613ab8565b5b600182019050919050565b7f4e487b7100000000000000000000000000000000000000000000000000000000600052601160045260246000fd5b7f4e487b7100000000000000000000000000000000000000000000000000000000600052602160045260246000fd5b7f4e487b7100000000000000000000000000000000000000000000000000000000600052604160045260246000fd5b6000601f19601f8301169050919050565b7f5468697320696e7370656374696f6e20646f6e27742065786973747300000000600082015250565b7f5468697320696e7370656374696f6e206973206e6f74204f50454e0000000000600082015250565b7f596f75206e6f74206163636570746564207468697320696e7370656374696f6e600082015250565b7f52657175657374204f50454e206f722041434345505445440000000000000000600082015250565b7f416363657074207468697320696e7370656374696f6e206265666f7265000000600082015250565b7f526563656e7420696e7370656374696f6e000000000000000000000000000000600082015250565b7f506c656173652072656769737465722061732070726f64756365720000000000600082015250565b7f506c656173652072656769737465722061732061637469766973740000000000600082015250565b60048110613caf57613cae613ae7565b5b50565b613cbb81613903565b8114613cc657600080fd5b50565b613cd281613915565b8114613cdd57600080fd5b50565b60088110613ced57600080fd5b50565b613cf981613934565b8114613d0457600080fd5b50565b613d108161395e565b8114613d1b57600080fd5b5056fea26469706673582212200333f45b75659b1b54577de1145718ea9190d5287aa1fd78cd34163608d2c0a764736f6c63430008020033",
  "immutableReferences": {},
  "source": "// SPDX-License-Identifier: GPL-3.0\r\npragma solidity >=0.7.0 <=0.9.0;\r\n\r\nimport \"./ProducerContract.sol\";\r\nimport \"./ActivistContract.sol\";\r\nimport \"./CategoryContract.sol\";\r\nimport \"./types/InspectionTypes.sol\";\r\n\r\n/**\r\n * @title SintropContract\r\n * @dev Sintrop application to certificated a rural producer\r\n */\r\ncontract Sintrop {\r\n  mapping(address => Inspection[]) internal userInspections;\r\n  mapping(uint256 => Inspection) internal inspections;\r\n\r\n  ActivistContract public activistContract;\r\n  ProducerContract public producerContract;\r\n\r\n  uint256 public inspectionsCount;\r\n  uint256 internal timeBetweenInspections;\r\n\r\n  constructor(\r\n    address activistContractAddress,\r\n    address producerContractAddress,\r\n    uint256 timeBetweenInspections_\r\n  ) {\r\n    activistContract = ActivistContract(activistContractAddress);\r\n    producerContract = ProducerContract(producerContractAddress);\r\n    timeBetweenInspections = timeBetweenInspections_;\r\n  }\r\n\r\n  /**\r\n   * @dev Allows the current user producer/activist get all yours inspections with status INSPECTED\r\n   */\r\n  function getInspectionsHistory() public view returns (Inspection[] memory) {\r\n    return userInspections[msg.sender];\r\n  }\r\n\r\n  /**\r\n   * @dev Allows the current user (producer) request a inspection.\r\n   */\r\n  function requestInspection()\r\n    public\r\n    requireProducer\r\n    requireNoInspectionsOpen\r\n    requireNoRecentInspection\r\n  {\r\n    newRequest();\r\n\r\n    producerContract.recentInspection(msg.sender, true);\r\n    producerContract.lastRequestAt(msg.sender, block.number);\r\n  }\r\n\r\n  function newRequest() internal {\r\n    uint256[][] memory isas;\r\n\r\n    Inspection memory inspection = Inspection(\r\n      inspectionsCount + 1,\r\n      InspectionStatus.OPEN,\r\n      msg.sender,\r\n      msg.sender,\r\n      isas,\r\n      0,\r\n      block.number,\r\n      0\r\n    );\r\n    inspections[inspection.id] = inspection;\r\n    inspectionsCount++;\r\n  }\r\n\r\n  /**\r\n   * @dev Allows the current user (activist) accept a inspection.\r\n   * @param inspectionId The id of the inspection that the activist want accept.\r\n   */\r\n  function acceptInspection(uint256 inspectionId)\r\n    public\r\n    requireActivist\r\n    requireInspectionExists(inspectionId)\r\n    returns (bool)\r\n  {\r\n    Inspection memory inspection = inspections[inspectionId];\r\n\r\n    require(inspection.status == InspectionStatus.OPEN, \"This inspection is not OPEN\");\r\n\r\n    inspection.status = InspectionStatus.ACCEPTED;\r\n    inspection.updatedAt = block.timestamp;\r\n    inspection.acceptedBy = msg.sender;\r\n    inspections[inspectionId] = inspection;\r\n\r\n    activistContract.recentInspection(msg.sender, true);\r\n\r\n    return true;\r\n  }\r\n\r\n  /**\r\n   * @dev Allow a activist realize a inspection and mark as INSPECTED\r\n   * @param inspectionId The id of the inspection to be realized\r\n   * @param isas The uint[][] of categoryId and isaIndex. Ex: isas = [ [categoryId, isaIndex], [categoryId, isaIndex] ]\r\n   */\r\n  function realizeInspection(uint256 inspectionId, uint256[][] memory isas)\r\n    public\r\n    requireActivist\r\n    requireInspectionExists(inspectionId)\r\n    requireInspectionAccepted(inspectionId)\r\n    requireInspectionOwner(inspectionId)\r\n    returns (bool)\r\n  {\r\n    Inspection memory inspection = inspections[inspectionId];\r\n\r\n    markAsRealized(inspection, isas);\r\n\r\n    afterRealizeInspection(inspection);\r\n\r\n    updateProducerIsa(inspection);\r\n\r\n    producerContract.approveProducerNewTokens(inspection.createdBy, 2000);\r\n\r\n    return true;\r\n  }\r\n\r\n  /**\r\n   * @dev Calculate the ISA of the inspection based in the category and the ISA level of the category\r\n   * @param inspection Receive the inspected inspection with your isas levels\r\n   */\r\n  function calculateIsa(Inspection memory inspection) internal pure returns (int256) {\r\n    uint256[][] memory isas = inspection.isas;\r\n    int256 isaPoints = sumIsaPoints(isas);\r\n    return isaPoints;\r\n  }\r\n\r\n  /**\r\n   * @dev Sum the ISA points\r\n   * @param isas The isas values as list of [[categoryId, isaIndex], [categoryId, isaIndex]]\r\n   */\r\n  function sumIsaPoints(uint256[][] memory isas) internal pure returns (int256) {\r\n    int256[5] memory points = [int256(10), int256(5), int256(0), int256(-5), int256(-10)];\r\n    int256 isaPoints = 0;\r\n\r\n    for (uint8 i = 0; i < isas.length; i++) {\r\n      uint256 isaIndex = isas[i][1];\r\n      isaPoints += points[isaIndex];\r\n    }\r\n    return isaPoints;\r\n  }\r\n\r\n  function markAsRealized(Inspection memory inspection, uint256[][] memory isas) internal {\r\n    inspection.isas = isas;\r\n    inspection.status = InspectionStatus.INSPECTED;\r\n    inspection.updatedAt = block.timestamp;\r\n    inspection.isaPoints = calculateIsa(inspection);\r\n    inspections[inspection.id] = inspection;\r\n  }\r\n\r\n  function updateProducerIsa(Inspection memory inspection) internal {\r\n    producerContract.updateIsaPoints(inspection.createdBy, inspection.isaPoints);\r\n  }\r\n\r\n  /**\r\n   * @dev Returns a inspection by id if that exists.\r\n   * @param id The id of the inspection to return.\r\n   */\r\n  function getInspection(uint256 id) public view returns (Inspection memory) {\r\n    return inspections[id];\r\n  }\r\n\r\n  /**\r\n   * @dev Returns all requested inspections.\r\n   */\r\n  function getInspections() public view returns (Inspection[] memory) {\r\n    Inspection[] memory inspectionsList = new Inspection[](inspectionsCount);\r\n\r\n    for (uint256 i = 0; i < inspectionsCount; i++) {\r\n      inspectionsList[i] = inspections[i + 1];\r\n    }\r\n\r\n    return inspectionsList;\r\n  }\r\n\r\n  /**\r\n   * @dev Returns all inpections status string.\r\n   */\r\n  function getInspectionsStatus()\r\n    public\r\n    pure\r\n    returns (\r\n      string memory,\r\n      string memory,\r\n      string memory,\r\n      string memory\r\n    )\r\n  {\r\n    return (\"OPEN\", \"ACCEPTED\", \"INSPECTED\", \"EXPIRED\");\r\n  }\r\n\r\n  /**\r\n   * @dev Check if an inspections exists in mapping.\r\n   * @param id The id of the inspection that the activist want accept.\r\n   */\r\n  function inspectionExists(uint256 id) public view returns (bool) {\r\n    return inspections[id].id >= 1;\r\n  }\r\n\r\n  /**\r\n   * @dev Inscrement producer and activist request action and mark both as no recent open requests and inspection\r\n   * @param inspection the inspected inspection\r\n   */\r\n  function afterRealizeInspection(Inspection memory inspection) internal {\r\n    address createdBy = inspection.createdBy;\r\n    address acceptedBy = inspection.acceptedBy;\r\n\r\n    // Increment actvist inspections and release to carry out new inspections\r\n    activistContract.recentInspection(acceptedBy, false);\r\n    activistContract.incrementRequests(acceptedBy);\r\n\r\n    // Increment producer requests and release to carry out new requests\r\n    producerContract.recentInspection(createdBy, false);\r\n    producerContract.incrementRequests(createdBy);\r\n\r\n    userInspections[createdBy].push(inspection);\r\n    userInspections[acceptedBy].push(inspection);\r\n  }\r\n\r\n  function isActivistOwner(uint256 inspectionId) internal view returns (bool) {\r\n    return inspections[inspectionId].acceptedBy == msg.sender;\r\n  }\r\n\r\n  function isAccepted(uint256 inspectionId) internal view returns (bool) {\r\n    return inspections[inspectionId].status == InspectionStatus.ACCEPTED;\r\n  }\r\n\r\n  function canRequestInspection() public view returns (bool) {\r\n    Producer memory producer = producerContract.getProducer(msg.sender);\r\n\r\n    uint256 lastRequestAt = producer.lastRequestAt;\r\n    bool canRequest = block.number > lastRequestAt + timeBetweenInspections;\r\n\r\n    return canRequest || lastRequestAt == 0;\r\n  }\r\n\r\n  // MODIFIERS\r\n\r\n  modifier requireActivist() {\r\n    require(activistContract.activistExists(msg.sender), \"Please register as activist\");\r\n    _;\r\n  }\r\n\r\n  modifier requireInspectionExists(uint256 inspectionId) {\r\n    require(inspectionExists(inspectionId), \"This inspection don't exists\");\r\n    _;\r\n  }\r\n\r\n  modifier requireProducer() {\r\n    require(producerContract.producerExists(msg.sender), \"Please register as producer\");\r\n    _;\r\n  }\r\n\r\n  modifier requireNoInspectionsOpen() {\r\n    require(!producerContract.getProducer(msg.sender).recentInspection, \"Request OPEN or ACCEPTED\");\r\n    _;\r\n  }\r\n\r\n  modifier requireNoRecentInspection() {\r\n    require(canRequestInspection(), \"Recent inspection\");\r\n    _;\r\n  }\r\n\r\n  modifier requireInspectionAccepted(uint256 inspectionId) {\r\n    require(isAccepted(inspectionId), \"Accept this inspection before\");\r\n    _;\r\n  }\r\n\r\n  modifier requireInspectionOwner(uint256 inspectionId) {\r\n    require(isActivistOwner(inspectionId), \"You not accepted this inspection\");\r\n    _;\r\n  }\r\n}\r\n",
  "sourcePath": "C:\\Users\\emano\\Documents\\Sintrop\\core-contracts\\contracts\\Sintrop.sol",
  "compiler": {
    "name": "solc",
    "version": "0.8.2+commit.661d1103.Emscripten.clang"
  },
  "schemaVersion": "3.4.7",
  "updatedAt": "2022-06-29T23:40:23.049Z",
  "networkType": "ethereum",
  "devdoc": {
    "details": "Sintrop application to certificated a rural producer",
    "kind": "dev",
    "methods": {
      "acceptInspection(uint256)": {
        "details": "Allows the current user (activist) accept a inspection.",
        "params": {
          "inspectionId": "The id of the inspection that the activist want accept."
        }
      },
      "getInspection(uint256)": {
        "details": "Returns a inspection by id if that exists.",
        "params": {
          "id": "The id of the inspection to return."
        }
      },
      "getInspections()": {
        "details": "Returns all requested inspections."
      },
      "getInspectionsHistory()": {
        "details": "Allows the current user producer/activist get all yours inspections with status INSPECTED"
      },
      "getInspectionsStatus()": {
        "details": "Returns all inpections status string."
      },
      "inspectionExists(uint256)": {
        "details": "Check if an inspections exists in mapping.",
        "params": {
          "id": "The id of the inspection that the activist want accept."
        }
      },
      "realizeInspection(uint256,uint256[][])": {
        "details": "Allow a activist realize a inspection and mark as INSPECTED",
        "params": {
          "inspectionId": "The id of the inspection to be realized",
          "isas": "The uint[][] of categoryId and isaIndex. Ex: isas = [ [categoryId, isaIndex], [categoryId, isaIndex] ]"
        }
      },
      "requestInspection()": {
        "details": "Allows the current user (producer) request a inspection."
      }
    },
    "title": "SintropContract",
    "version": 1
  },
  "userdoc": {
    "kind": "user",
    "methods": {},
    "version": 1
  }
}