{
  "contractName": "Sintrop",
  "abi": [
    {
      "inputs": [
        {
          "internalType": "address",
          "name": "activistContractAddress",
          "type": "address"
        },
        {
          "internalType": "address",
          "name": "producerContractAddress",
          "type": "address"
        },
        {
          "internalType": "uint256",
          "name": "timeBetweenInspections_",
          "type": "uint256"
        }
      ],
      "stateMutability": "nonpayable",
      "type": "constructor"
    },
    {
      "inputs": [],
      "name": "activistContract",
      "outputs": [
        {
          "internalType": "contract ActivistContract",
          "name": "",
          "type": "address"
        }
      ],
      "stateMutability": "view",
      "type": "function",
      "constant": true
    },
    {
      "inputs": [],
      "name": "inspectionsCount",
      "outputs": [
        {
          "internalType": "uint256",
          "name": "",
          "type": "uint256"
        }
      ],
      "stateMutability": "view",
      "type": "function",
      "constant": true
    },
    {
      "inputs": [],
      "name": "producerContract",
      "outputs": [
        {
          "internalType": "contract ProducerContract",
          "name": "",
          "type": "address"
        }
      ],
      "stateMutability": "view",
      "type": "function",
      "constant": true
    },
    {
      "inputs": [],
      "name": "getInspectionsHistory",
      "outputs": [
        {
          "components": [
            {
              "internalType": "uint256",
              "name": "id",
              "type": "uint256"
            },
            {
              "internalType": "enum InspectionStatus",
              "name": "status",
              "type": "uint8"
            },
            {
              "internalType": "address",
              "name": "createdBy",
              "type": "address"
            },
            {
              "internalType": "address",
              "name": "acceptedBy",
              "type": "address"
            },
            {
              "internalType": "uint256[][]",
              "name": "isas",
              "type": "uint256[][]"
            },
            {
              "internalType": "int256",
              "name": "isaScore",
              "type": "int256"
            },
            {
              "internalType": "uint256",
              "name": "createdAt",
              "type": "uint256"
            },
            {
              "internalType": "uint256",
              "name": "updatedAt",
              "type": "uint256"
            }
          ],
          "internalType": "struct Inspection[]",
          "name": "",
          "type": "tuple[]"
        }
      ],
      "stateMutability": "view",
      "type": "function",
      "constant": true
    },
    {
      "inputs": [],
      "name": "requestInspection",
      "outputs": [],
      "stateMutability": "nonpayable",
      "type": "function"
    },
    {
      "inputs": [
        {
          "internalType": "uint256",
          "name": "inspectionId",
          "type": "uint256"
        }
      ],
      "name": "acceptInspection",
      "outputs": [
        {
          "internalType": "bool",
          "name": "",
          "type": "bool"
        }
      ],
      "stateMutability": "nonpayable",
      "type": "function"
    },
    {
      "inputs": [
        {
          "internalType": "uint256",
          "name": "inspectionId",
          "type": "uint256"
        },
        {
          "internalType": "uint256[][]",
          "name": "isas",
          "type": "uint256[][]"
        }
      ],
      "name": "realizeInspection",
      "outputs": [
        {
          "internalType": "bool",
          "name": "",
          "type": "bool"
        }
      ],
      "stateMutability": "nonpayable",
      "type": "function"
    },
    {
      "inputs": [
        {
          "internalType": "uint256",
          "name": "id",
          "type": "uint256"
        }
      ],
      "name": "getInspection",
      "outputs": [
        {
          "components": [
            {
              "internalType": "uint256",
              "name": "id",
              "type": "uint256"
            },
            {
              "internalType": "enum InspectionStatus",
              "name": "status",
              "type": "uint8"
            },
            {
              "internalType": "address",
              "name": "createdBy",
              "type": "address"
            },
            {
              "internalType": "address",
              "name": "acceptedBy",
              "type": "address"
            },
            {
              "internalType": "uint256[][]",
              "name": "isas",
              "type": "uint256[][]"
            },
            {
              "internalType": "int256",
              "name": "isaScore",
              "type": "int256"
            },
            {
              "internalType": "uint256",
              "name": "createdAt",
              "type": "uint256"
            },
            {
              "internalType": "uint256",
              "name": "updatedAt",
              "type": "uint256"
            }
          ],
          "internalType": "struct Inspection",
          "name": "",
          "type": "tuple"
        }
      ],
      "stateMutability": "view",
      "type": "function",
      "constant": true
    },
    {
      "inputs": [],
      "name": "getInspections",
      "outputs": [
        {
          "components": [
            {
              "internalType": "uint256",
              "name": "id",
              "type": "uint256"
            },
            {
              "internalType": "enum InspectionStatus",
              "name": "status",
              "type": "uint8"
            },
            {
              "internalType": "address",
              "name": "createdBy",
              "type": "address"
            },
            {
              "internalType": "address",
              "name": "acceptedBy",
              "type": "address"
            },
            {
              "internalType": "uint256[][]",
              "name": "isas",
              "type": "uint256[][]"
            },
            {
              "internalType": "int256",
              "name": "isaScore",
              "type": "int256"
            },
            {
              "internalType": "uint256",
              "name": "createdAt",
              "type": "uint256"
            },
            {
              "internalType": "uint256",
              "name": "updatedAt",
              "type": "uint256"
            }
          ],
          "internalType": "struct Inspection[]",
          "name": "",
          "type": "tuple[]"
        }
      ],
      "stateMutability": "view",
      "type": "function",
      "constant": true
    },
    {
      "inputs": [],
      "name": "getInspectionsStatus",
      "outputs": [
        {
          "internalType": "string",
          "name": "",
          "type": "string"
        },
        {
          "internalType": "string",
          "name": "",
          "type": "string"
        },
        {
          "internalType": "string",
          "name": "",
          "type": "string"
        },
        {
          "internalType": "string",
          "name": "",
          "type": "string"
        }
      ],
      "stateMutability": "pure",
      "type": "function",
      "constant": true
    },
    {
      "inputs": [
        {
          "internalType": "uint256",
          "name": "id",
          "type": "uint256"
        }
      ],
      "name": "inspectionExists",
      "outputs": [
        {
          "internalType": "bool",
          "name": "",
          "type": "bool"
        }
      ],
      "stateMutability": "view",
      "type": "function",
      "constant": true
    },
    {
      "inputs": [],
      "name": "canRequestInspection",
      "outputs": [
        {
          "internalType": "bool",
          "name": "",
          "type": "bool"
        }
      ],
      "stateMutability": "view",
      "type": "function",
      "constant": true
    }
  ],
  "bytecode": "0x60806040523480156200001157600080fd5b5060405162003f6f38038062003f6f8339818101604052810190620000379190620000f7565b82600260006101000a81548173ffffffffffffffffffffffffffffffffffffffff021916908373ffffffffffffffffffffffffffffffffffffffff16021790555081600360006101000a81548173ffffffffffffffffffffffffffffffffffffffff021916908373ffffffffffffffffffffffffffffffffffffffff16021790555080600581905550505050620001bf565b600081519050620000da816200018b565b92915050565b600081519050620000f181620001a5565b92915050565b6000806000606084860312156200010d57600080fd5b60006200011d86828701620000c9565b93505060206200013086828701620000c9565b92505060406200014386828701620000e0565b9150509250925092565b60006200015a8262000161565b9050919050565b600073ffffffffffffffffffffffffffffffffffffffff82169050919050565b6000819050919050565b62000196816200014d565b8114620001a257600080fd5b50565b620001b08162000181565b8114620001bc57600080fd5b50565b613da080620001cf6000396000f3fe608060405234801561001057600080fd5b50600436106100b45760003560e01c8063ca14d0e311610071578063ca14d0e31461016b578063dd6850c614610189578063e7857502146101aa578063ee699fc1146101da578063f2836670146101f8578063fe5a4fa414610228576100b4565b80630bbec3c2146100b95780632cdf0e9a146100d75780634b026e87146100f55780635401c1f21461011357806386ae2fb114610131578063b92bd2d91461013b575b600080fd5b6100c1610258565b6040516100ce91906134df565b60405180910390f35b6100df6104ee565b6040516100ec9190613537565b60405180910390f35b6100fd610514565b60405161010a919061351c565b60405180910390f35b61011b61053a565b60405161012891906136d5565b60405180910390f35b610139610540565b005b61015560048036038101906101509190612eee565b61088e565b6040516101629190613501565b60405180910390f35b610173610d31565b6040516101809190613501565b60405180910390f35b610191610e18565b6040516101a19493929190613552565b60405180910390f35b6101c460048036038101906101bf9190612ec5565b610f04565b6040516101d19190613501565b60405180910390f35b6101e26115a7565b6040516101ef91906134df565b60405180910390f35b610212600480360381019061020d9190612ec5565b6118ba565b60405161021f91906136b3565b60405180910390f35b610242600480360381019061023d9190612ec5565b611ae2565b60405161024f9190613501565b60405180910390f35b60606000803373ffffffffffffffffffffffffffffffffffffffff1673ffffffffffffffffffffffffffffffffffffffff168152602001908152602001600020805480602002602001604051908101604052809291908181526020016000905b828210156104e5578382906000526020600020906007020160405180610100016040529081600082015481526020016001820160009054906101000a900460ff166003811115610331577f4e487b7100000000000000000000000000000000000000000000000000000000600052602160045260246000fd5b6003811115610369577f4e487b7100000000000000000000000000000000000000000000000000000000600052602160045260246000fd5b81526020016001820160019054906101000a900473ffffffffffffffffffffffffffffffffffffffff1673ffffffffffffffffffffffffffffffffffffffff1673ffffffffffffffffffffffffffffffffffffffff1681526020016002820160009054906101000a900473ffffffffffffffffffffffffffffffffffffffff1673ffffffffffffffffffffffffffffffffffffffff1673ffffffffffffffffffffffffffffffffffffffff16815260200160038201805480602002602001604051908101604052809291908181526020016000905b828210156104b05783829060005260206000200180548060200260200160405190810160405280929190818152602001828054801561049c57602002820191906000526020600020905b815481526020019060010190808311610488575b50505050508152602001906001019061043e565b5050505081526020016004820154815260200160058201548152602001600682015481525050815260200190600101906102b8565b50505050905090565b600360009054906101000a900473ffffffffffffffffffffffffffffffffffffffff1681565b600260009054906101000a900473ffffffffffffffffffffffffffffffffffffffff1681565b60045481565b600360009054906101000a900473ffffffffffffffffffffffffffffffffffffffff1673ffffffffffffffffffffffffffffffffffffffff1663e9e797ac336040518263ffffffff1660e01b815260040161059b9190613420565b60206040518083038186803b1580156105b357600080fd5b505afa1580156105c7573d6000803e3d6000fd5b505050506040513d601f19601f820116820180604052508101906105eb9190612e5b565b61062a576040517f08c379a000000000000000000000000000000000000000000000000000000000815260040161062190613673565b60405180910390fd5b600360009054906101000a900473ffffffffffffffffffffffffffffffffffffffff1673ffffffffffffffffffffffffffffffffffffffff1663aab147b2336040518263ffffffff1660e01b81526004016106859190613420565b60006040518083038186803b15801561069d57600080fd5b505afa1580156106b1573d6000803e3d6000fd5b505050506040513d6000823e3d601f19601f820116820180604052508101906106da9190612e84565b60c001511561071e576040517f08c379a000000000000000000000000000000000000000000000000000000000815260040161071590613613565b60405180910390fd5b610726610d31565b610765576040517f08c379a000000000000000000000000000000000000000000000000000000000815260040161075c90613653565b60405180910390fd5b61076d611b05565b600360009054906101000a900473ffffffffffffffffffffffffffffffffffffffff1673ffffffffffffffffffffffffffffffffffffffff1663360912ab3360016040518363ffffffff1660e01b81526004016107cb92919061343b565b600060405180830381600087803b1580156107e557600080fd5b505af11580156107f9573d6000803e3d6000fd5b50505050600360009054906101000a900473ffffffffffffffffffffffffffffffffffffffff1673ffffffffffffffffffffffffffffffffffffffff166364ff847733436040518363ffffffff1660e01b815260040161085a9291906134b6565b600060405180830381600087803b15801561087457600080fd5b505af1158015610888573d6000803e3d6000fd5b50505050565b6000600260009054906101000a900473ffffffffffffffffffffffffffffffffffffffff1673ffffffffffffffffffffffffffffffffffffffff16638c4772fc336040518263ffffffff1660e01b81526004016108eb9190613420565b60206040518083038186803b15801561090357600080fd5b505afa158015610917573d6000803e3d6000fd5b505050506040513d601f19601f8201168201806040525081019061093b9190612e5b565b61097a576040517f08c379a000000000000000000000000000000000000000000000000000000000815260040161097190613693565b60405180910390fd5b8261098481611ae2565b6109c3576040517f08c379a00000000000000000000000000000000000000000000000000000000081526004016109ba906135b3565b60405180910390fd5b836109cd81611d1a565b610a0c576040517f08c379a0000000000000000000000000000000000000000000000000000000008152600401610a0390613633565b60405180910390fd5b84610a1681611dba565b610a55576040517f08c379a0000000000000000000000000000000000000000000000000000000008152600401610a4c906135f3565b60405180910390fd5b60006001600088815260200190815260200160002060405180610100016040529081600082015481526020016001820160009054906101000a900460ff166003811115610acb577f4e487b7100000000000000000000000000000000000000000000000000000000600052602160045260246000fd5b6003811115610b03577f4e487b7100000000000000000000000000000000000000000000000000000000600052602160045260246000fd5b81526020016001820160019054906101000a900473ffffffffffffffffffffffffffffffffffffffff1673ffffffffffffffffffffffffffffffffffffffff1673ffffffffffffffffffffffffffffffffffffffff1681526020016002820160009054906101000a900473ffffffffffffffffffffffffffffffffffffffff1673ffffffffffffffffffffffffffffffffffffffff1673ffffffffffffffffffffffffffffffffffffffff16815260200160038201805480602002602001604051908101604052809291908181526020016000905b82821015610c4a57838290600052602060002001805480602002602001604051908101604052809291908181526020018280548015610c3657602002820191906000526020600020905b815481526020019060010190808311610c22575b505050505081526020019060010190610bd8565b50505050815260200160048201548152602001600582015481526020016006820154815250509050610c7c8187611e28565b610c8581612012565b610c8e81612589565b600360009054906101000a900473ffffffffffffffffffffffffffffffffffffffff1673ffffffffffffffffffffffffffffffffffffffff1663b08ab06182604001516107d06040518363ffffffff1660e01b8152600401610cf192919061348d565b600060405180830381600087803b158015610d0b57600080fd5b505af1158015610d1f573d6000803e3d6000fd5b50505050600194505050505092915050565b600080600360009054906101000a900473ffffffffffffffffffffffffffffffffffffffff1673ffffffffffffffffffffffffffffffffffffffff1663aab147b2336040518263ffffffff1660e01b8152600401610d8f9190613420565b60006040518083038186803b158015610da757600080fd5b505afa158015610dbb573d6000803e3d6000fd5b505050506040513d6000823e3d601f19601f82011682018060405250810190610de49190612e84565b905060008161010001519050600060055482610e0091906138f9565b431190508080610e105750600082145b935050505090565b6060806060806040518060400160405280600481526020017f4f50454e000000000000000000000000000000000000000000000000000000008152506040518060400160405280600881526020017f41434345505445440000000000000000000000000000000000000000000000008152506040518060400160405280600981526020017f494e5350454354454400000000000000000000000000000000000000000000008152506040518060400160405280600781526020017f4558504952454400000000000000000000000000000000000000000000000000815250935093509350935090919293565b6000600260009054906101000a900473ffffffffffffffffffffffffffffffffffffffff1673ffffffffffffffffffffffffffffffffffffffff16638c4772fc336040518263ffffffff1660e01b8152600401610f619190613420565b60206040518083038186803b158015610f7957600080fd5b505afa158015610f8d573d6000803e3d6000fd5b505050506040513d601f19601f82011682018060405250810190610fb19190612e5b565b610ff0576040517f08c379a0000000000000000000000000000000000000000000000000000000008152600401610fe790613693565b60405180910390fd5b81610ffa81611ae2565b611039576040517f08c379a0000000000000000000000000000000000000000000000000000000008152600401611030906135b3565b60405180910390fd5b60006001600085815260200190815260200160002060405180610100016040529081600082015481526020016001820160009054906101000a900460ff1660038111156110af577f4e487b7100000000000000000000000000000000000000000000000000000000600052602160045260246000fd5b60038111156110e7577f4e487b7100000000000000000000000000000000000000000000000000000000600052602160045260246000fd5b81526020016001820160019054906101000a900473ffffffffffffffffffffffffffffffffffffffff1673ffffffffffffffffffffffffffffffffffffffff1673ffffffffffffffffffffffffffffffffffffffff1681526020016002820160009054906101000a900473ffffffffffffffffffffffffffffffffffffffff1673ffffffffffffffffffffffffffffffffffffffff1673ffffffffffffffffffffffffffffffffffffffff16815260200160038201805480602002602001604051908101604052809291908181526020016000905b8282101561122e5783829060005260206000200180548060200260200160405190810160405280929190818152602001828054801561121a57602002820191906000526020600020905b815481526020019060010190808311611206575b5050505050815260200190600101906111bc565b5050505081526020016004820154815260200160058201548152602001600682015481525050905060006003811115611290577f4e487b7100000000000000000000000000000000000000000000000000000000600052602160045260246000fd5b816020015160038111156112cd577f4e487b7100000000000000000000000000000000000000000000000000000000600052602160045260246000fd5b1461130d576040517f08c379a0000000000000000000000000000000000000000000000000000000008152600401611304906135d3565b60405180910390fd5b60018160200190600381111561134c577f4e487b7100000000000000000000000000000000000000000000000000000000600052602160045260246000fd5b90816003811115611386577f4e487b7100000000000000000000000000000000000000000000000000000000600052602160045260246000fd5b81525050428160e001818152505033816060019073ffffffffffffffffffffffffffffffffffffffff16908173ffffffffffffffffffffffffffffffffffffffff168152505080600160008681526020019081526020016000206000820151816000015560208201518160010160006101000a81548160ff0219169083600381111561143b577f4e487b7100000000000000000000000000000000000000000000000000000000600052602160045260246000fd5b021790555060408201518160010160016101000a81548173ffffffffffffffffffffffffffffffffffffffff021916908373ffffffffffffffffffffffffffffffffffffffff16021790555060608201518160020160006101000a81548173ffffffffffffffffffffffffffffffffffffffff021916908373ffffffffffffffffffffffffffffffffffffffff16021790555060808201518160030190805190602001906114ea9291906127b6565b5060a0820151816004015560c0820151816005015560e08201518160060155905050600260009054906101000a900473ffffffffffffffffffffffffffffffffffffffff1673ffffffffffffffffffffffffffffffffffffffff1663360912ab3360016040518363ffffffff1660e01b815260040161156a92919061343b565b600060405180830381600087803b15801561158457600080fd5b505af1158015611598573d6000803e3d6000fd5b50505050600192505050919050565b6060600060045467ffffffffffffffff8111156115ed577f4e487b7100000000000000000000000000000000000000000000000000000000600052604160045260246000fd5b60405190808252806020026020018201604052801561162657816020015b611613612816565b81526020019060019003908161160b5790505b50905060005b6004548110156118b2576001600060018361164791906138f9565b815260200190815260200160002060405180610100016040529081600082015481526020016001820160009054906101000a900460ff1660038111156116b6577f4e487b7100000000000000000000000000000000000000000000000000000000600052602160045260246000fd5b60038111156116ee577f4e487b7100000000000000000000000000000000000000000000000000000000600052602160045260246000fd5b81526020016001820160019054906101000a900473ffffffffffffffffffffffffffffffffffffffff1673ffffffffffffffffffffffffffffffffffffffff1673ffffffffffffffffffffffffffffffffffffffff1681526020016002820160009054906101000a900473ffffffffffffffffffffffffffffffffffffffff1673ffffffffffffffffffffffffffffffffffffffff1673ffffffffffffffffffffffffffffffffffffffff16815260200160038201805480602002602001604051908101604052809291908181526020016000905b828210156118355783829060005260206000200180548060200260200160405190810160405280929190818152602001828054801561182157602002820191906000526020600020905b81548152602001906001019080831161180d575b5050505050815260200190600101906117c3565b5050505081526020016004820154815260200160058201548152602001600682015481525050828281518110611894577f4e487b7100000000000000000000000000000000000000000000000000000000600052603260045260246000fd5b602002602001018190525080806118aa90613a91565b91505061162c565b508091505090565b6118c2612816565b6001600083815260200190815260200160002060405180610100016040529081600082015481526020016001820160009054906101000a900460ff166003811115611936577f4e487b7100000000000000000000000000000000000000000000000000000000600052602160045260246000fd5b600381111561196e577f4e487b7100000000000000000000000000000000000000000000000000000000600052602160045260246000fd5b81526020016001820160019054906101000a900473ffffffffffffffffffffffffffffffffffffffff1673ffffffffffffffffffffffffffffffffffffffff1673ffffffffffffffffffffffffffffffffffffffff1681526020016002820160009054906101000a900473ffffffffffffffffffffffffffffffffffffffff1673ffffffffffffffffffffffffffffffffffffffff1673ffffffffffffffffffffffffffffffffffffffff16815260200160038201805480602002602001604051908101604052809291908181526020016000905b82821015611ab557838290600052602060002001805480602002602001604051908101604052809291908181526020018280548015611aa157602002820191906000526020600020905b815481526020019060010190808311611a8d575b505050505081526020019060010190611a43565b50505050815260200160048201548152602001600582015481526020016006820154815250509050919050565b600060018060008481526020019081526020016000206000015410159050919050565b606060006040518061010001604052806001600454611b2491906138f9565b815260200160006003811115611b63577f4e487b7100000000000000000000000000000000000000000000000000000000600052602160045260246000fd5b81526020013373ffffffffffffffffffffffffffffffffffffffff1681526020013373ffffffffffffffffffffffffffffffffffffffff16815260200183815260200160008152602001438152602001600081525090508060016000836000015181526020019081526020016000206000820151816000015560208201518160010160006101000a81548160ff02191690836003811115611c2d577f4e487b7100000000000000000000000000000000000000000000000000000000600052602160045260246000fd5b021790555060408201518160010160016101000a81548173ffffffffffffffffffffffffffffffffffffffff021916908373ffffffffffffffffffffffffffffffffffffffff16021790555060608201518160020160006101000a81548173ffffffffffffffffffffffffffffffffffffffff021916908373ffffffffffffffffffffffffffffffffffffffff1602179055506080820151816003019080519060200190611cdc9291906127b6565b5060a0820151816004015560c0820151816005015560e0820151816006015590505060046000815480929190611d1190613a91565b91905055505050565b600060016003811115611d56577f4e487b7100000000000000000000000000000000000000000000000000000000600052602160045260246000fd5b6001600084815260200190815260200160002060010160009054906101000a900460ff166003811115611db2577f4e487b7100000000000000000000000000000000000000000000000000000000600052602160045260246000fd5b149050919050565b60003373ffffffffffffffffffffffffffffffffffffffff166001600084815260200190815260200160002060020160009054906101000a900473ffffffffffffffffffffffffffffffffffffffff1673ffffffffffffffffffffffffffffffffffffffff16149050919050565b808260800181905250600282602001906003811115611e70577f4e487b7100000000000000000000000000000000000000000000000000000000600052602160045260246000fd5b90816003811115611eaa577f4e487b7100000000000000000000000000000000000000000000000000000000600052602160045260246000fd5b81525050428260e0018181525050611ec182612623565b8260a00181815250508160016000846000015181526020019081526020016000206000820151816000015560208201518160010160006101000a81548160ff02191690836003811115611f3d577f4e487b7100000000000000000000000000000000000000000000000000000000600052602160045260246000fd5b021790555060408201518160010160016101000a81548173ffffffffffffffffffffffffffffffffffffffff021916908373ffffffffffffffffffffffffffffffffffffffff16021790555060608201518160020160006101000a81548173ffffffffffffffffffffffffffffffffffffffff021916908373ffffffffffffffffffffffffffffffffffffffff1602179055506080820151816003019080519060200190611fec9291906127b6565b5060a0820151816004015560c0820151816005015560e082015181600601559050505050565b600081604001519050600082606001519050600260009054906101000a900473ffffffffffffffffffffffffffffffffffffffff1673ffffffffffffffffffffffffffffffffffffffff1663360912ab8260006040518363ffffffff1660e01b815260040161208292919061343b565b600060405180830381600087803b15801561209c57600080fd5b505af11580156120b0573d6000803e3d6000fd5b50505050600260009054906101000a900473ffffffffffffffffffffffffffffffffffffffff1673ffffffffffffffffffffffffffffffffffffffff1663c19c9037826040518263ffffffff1660e01b815260040161210f9190613420565b600060405180830381600087803b15801561212957600080fd5b505af115801561213d573d6000803e3d6000fd5b50505050600360009054906101000a900473ffffffffffffffffffffffffffffffffffffffff1673ffffffffffffffffffffffffffffffffffffffff1663360912ab8360006040518363ffffffff1660e01b815260040161219f92919061343b565b600060405180830381600087803b1580156121b957600080fd5b505af11580156121cd573d6000803e3d6000fd5b50505050600360009054906101000a900473ffffffffffffffffffffffffffffffffffffffff1673ffffffffffffffffffffffffffffffffffffffff1663c19c9037836040518263ffffffff1660e01b815260040161222c9190613420565b600060405180830381600087803b15801561224657600080fd5b505af115801561225a573d6000803e3d6000fd5b505050506000808373ffffffffffffffffffffffffffffffffffffffff1673ffffffffffffffffffffffffffffffffffffffff1681526020019081526020016000208390806001815401808255809150506001900390600052602060002090600702016000909190919091506000820151816000015560208201518160010160006101000a81548160ff02191690836003811115612321577f4e487b7100000000000000000000000000000000000000000000000000000000600052602160045260246000fd5b021790555060408201518160010160016101000a81548173ffffffffffffffffffffffffffffffffffffffff021916908373ffffffffffffffffffffffffffffffffffffffff16021790555060608201518160020160006101000a81548173ffffffffffffffffffffffffffffffffffffffff021916908373ffffffffffffffffffffffffffffffffffffffff16021790555060808201518160030190805190602001906123d09291906127b6565b5060a0820151816004015560c0820151816005015560e0820151816006015550506000808273ffffffffffffffffffffffffffffffffffffffff1673ffffffffffffffffffffffffffffffffffffffff1681526020019081526020016000208390806001815401808255809150506001900390600052602060002090600702016000909190919091506000820151816000015560208201518160010160006101000a81548160ff021916908360038111156124b4577f4e487b7100000000000000000000000000000000000000000000000000000000600052602160045260246000fd5b021790555060408201518160010160016101000a81548173ffffffffffffffffffffffffffffffffffffffff021916908373ffffffffffffffffffffffffffffffffffffffff16021790555060608201518160020160006101000a81548173ffffffffffffffffffffffffffffffffffffffff021916908373ffffffffffffffffffffffffffffffffffffffff16021790555060808201518160030190805190602001906125639291906127b6565b5060a0820151816004015560c0820151816005015560e082015181600601555050505050565b600360009054906101000a900473ffffffffffffffffffffffffffffffffffffffff1673ffffffffffffffffffffffffffffffffffffffff1663ab586c0182604001518360a001516040518363ffffffff1660e01b81526004016125ee929190613464565b600060405180830381600087803b15801561260857600080fd5b505af115801561261c573d6000803e3d6000fd5b5050505050565b60008082608001519050600061263882612644565b90508092505050919050565b6000806040518060a00160405280600a815260200160058152602001600081526020017ffffffffffffffffffffffffffffffffffffffffffffffffffffffffffffffffb81526020017ffffffffffffffffffffffffffffffffffffffffffffffffffffffffffffffff681525090506000805b84518160ff1610156127ab576000858260ff1681518110612701577f4e487b7100000000000000000000000000000000000000000000000000000000600052603260045260246000fd5b6020026020010151600181518110612742577f4e487b7100000000000000000000000000000000000000000000000000000000600052603260045260246000fd5b60200260200101519050838160058110612785577f4e487b7100000000000000000000000000000000000000000000000000000000600052603260045260246000fd5b6020020151836127959190613865565b92505080806127a390613ada565b9150506126b7565b508092505050919050565b828054828255906000526020600020908101928215612805579160200282015b828111156128045782518290805190602001906127f49291906128bf565b50916020019190600101906127d6565b5b509050612812919061290c565b5090565b6040518061010001604052806000815260200160006003811115612863577f4e487b7100000000000000000000000000000000000000000000000000000000600052602160045260246000fd5b8152602001600073ffffffffffffffffffffffffffffffffffffffff168152602001600073ffffffffffffffffffffffffffffffffffffffff168152602001606081526020016000815260200160008152602001600081525090565b8280548282559060005260206000209081019282156128fb579160200282015b828111156128fa5782518255916020019190600101906128df565b5b5090506129089190612930565b5090565b5b8082111561292c5760008181612923919061294d565b5060010161290d565b5090565b5b80821115612949576000816000905550600101612931565b5090565b508054600082559060005260206000209081019061296b9190612930565b50565b600061298161297c84613715565b6136f0565b9050808382526020820190508260005b858110156129c157813585016129a78882612ab4565b845260208401935060208301925050600181019050612991565b5050509392505050565b60006129de6129d984613741565b6136f0565b905080838252602082019050828560208602820111156129fd57600080fd5b60005b85811015612a2d5781612a138882612e31565b845260208401935060208301925050600181019050612a00565b5050509392505050565b6000612a4a612a458461376d565b6136f0565b905082815260208101848484011115612a6257600080fd5b612a6d848285613a2d565b509392505050565b600081519050612a8481613cfe565b92915050565b600082601f830112612a9b57600080fd5b8135612aab84826020860161296e565b91505092915050565b600082601f830112612ac557600080fd5b8135612ad58482602086016129cb565b91505092915050565b600081519050612aed81613d15565b92915050565b600081519050612b0281613d2c565b92915050565b600081519050612b1781613d3c565b92915050565b600082601f830112612b2e57600080fd5b8151612b3e848260208601612a37565b91505092915050565b600060408284031215612b5957600080fd5b612b6360406136f0565b90506000612b7384828501612b08565b6000830152506020612b8784828501612b08565b60208301525092915050565b60006101c08284031215612ba657600080fd5b612bb16101806136f0565b90506000612bc184828501612e46565b6000830152506020612bd584828501612a75565b6020830152506040612be984828501612af3565b604083015250606082015167ffffffffffffffff811115612c0957600080fd5b612c1584828501612b1d565b606083015250608082015167ffffffffffffffff811115612c3557600080fd5b612c4184828501612b1d565b60808301525060a082015167ffffffffffffffff811115612c6157600080fd5b612c6d84828501612b1d565b60a08301525060c0612c8184828501612ade565b60c08301525060e0612c9584828501612e46565b60e083015250610100612caa84828501612e46565b61010083015250610120612cc084828501612b47565b61012083015250610160612cd684828501612de5565b610140830152506101a082015167ffffffffffffffff811115612cf857600080fd5b612d0484828501612d11565b6101608301525092915050565b600060808284031215612d2357600080fd5b612d2d60806136f0565b9050600082015167ffffffffffffffff811115612d4957600080fd5b612d5584828501612b1d565b600083015250602082015167ffffffffffffffff811115612d7557600080fd5b612d8184828501612b1d565b602083015250604082015167ffffffffffffffff811115612da157600080fd5b612dad84828501612b1d565b604083015250606082015167ffffffffffffffff811115612dcd57600080fd5b612dd984828501612b1d565b60608301525092915050565b600060408284031215612df757600080fd5b612e0160406136f0565b90506000612e1184828501612e46565b6000830152506020612e2584828501612ade565b60208301525092915050565b600081359050612e4081613d53565b92915050565b600081519050612e5581613d53565b92915050565b600060208284031215612e6d57600080fd5b6000612e7b84828501612ade565b91505092915050565b600060208284031215612e9657600080fd5b600082015167ffffffffffffffff811115612eb057600080fd5b612ebc84828501612b93565b91505092915050565b600060208284031215612ed757600080fd5b6000612ee584828501612e31565b91505092915050565b60008060408385031215612f0157600080fd5b6000612f0f85828601612e31565b925050602083013567ffffffffffffffff811115612f2c57600080fd5b612f3885828601612a8a565b9150509250929050565b6000612f4e838361308a565b905092915050565b6000612f6283836132a2565b905092915050565b6000612f768383613402565b60208301905092915050565b612f8b8161394f565b82525050565b612f9a8161394f565b82525050565b6000612fab826137ce565b612fb58185613821565b935083602082028501612fc78561379e565b8060005b858110156130035784840389528151612fe48582612f42565b9450612fef836137fa565b925060208a01995050600181019050612fcb565b50829750879550505050505092915050565b6000613020826137d9565b61302a8185613832565b93508360208202850161303c856137ae565b8060005b8581101561307857848403895281516130598582612f56565b945061306483613807565b925060208a01995050600181019050613040565b50829750879550505050505092915050565b6000613095826137e4565b61309f8185613843565b93506130aa836137be565b8060005b838110156130db5781516130c28882612f6a565b97506130cd83613814565b9250506001810190506130ae565b5085935050505092915050565b6130f181613961565b82525050565b613100816139c1565b82525050565b61310f816139e5565b82525050565b61311e81613a09565b82525050565b61312d81613980565b82525050565b61313c81613980565b82525050565b61314b81613a1b565b82525050565b600061315c826137ef565b6131668185613854565b9350613176818560208601613a2d565b61317f81613b91565b840191505092915050565b6000613197601c83613854565b91506131a282613ba2565b602082019050919050565b60006131ba601b83613854565b91506131c582613bcb565b602082019050919050565b60006131dd602083613854565b91506131e882613bf4565b602082019050919050565b6000613200601883613854565b915061320b82613c1d565b602082019050919050565b6000613223601d83613854565b915061322e82613c46565b602082019050919050565b6000613246601183613854565b915061325182613c6f565b602082019050919050565b6000613269601b83613854565b915061327482613c98565b602082019050919050565b600061328c601b83613854565b915061329782613cc1565b602082019050919050565b6000610100830160008301516132bb6000860182613402565b5060208301516132ce6020860182613115565b5060408301516132e16040860182612f82565b5060608301516132f46060860182612f82565b506080830151848203608086015261330c8282612fa0565b91505060a083015161332160a0860182613124565b5060c083015161333460c0860182613402565b5060e083015161334760e0860182613402565b508091505092915050565b60006101008301600083015161336b6000860182613402565b50602083015161337e6020860182613115565b5060408301516133916040860182612f82565b5060608301516133a46060860182612f82565b50608083015184820360808601526133bc8282612fa0565b91505060a08301516133d160a0860182613124565b5060c08301516133e460c0860182613402565b5060e08301516133f760e0860182613402565b508091505092915050565b61340b816139aa565b82525050565b61341a816139aa565b82525050565b60006020820190506134356000830184612f91565b92915050565b60006040820190506134506000830185612f91565b61345d60208301846130e8565b9392505050565b60006040820190506134796000830185612f91565b6134866020830184613133565b9392505050565b60006040820190506134a26000830185612f91565b6134af6020830184613142565b9392505050565b60006040820190506134cb6000830185612f91565b6134d86020830184613411565b9392505050565b600060208201905081810360008301526134f98184613015565b905092915050565b600060208201905061351660008301846130e8565b92915050565b600060208201905061353160008301846130f7565b92915050565b600060208201905061354c6000830184613106565b92915050565b6000608082019050818103600083015261356c8187613151565b905081810360208301526135808186613151565b905081810360408301526135948185613151565b905081810360608301526135a88184613151565b905095945050505050565b600060208201905081810360008301526135cc8161318a565b9050919050565b600060208201905081810360008301526135ec816131ad565b9050919050565b6000602082019050818103600083015261360c816131d0565b9050919050565b6000602082019050818103600083015261362c816131f3565b9050919050565b6000602082019050818103600083015261364c81613216565b9050919050565b6000602082019050818103600083015261366c81613239565b9050919050565b6000602082019050818103600083015261368c8161325c565b9050919050565b600060208201905081810360008301526136ac8161327f565b9050919050565b600060208201905081810360008301526136cd8184613352565b905092915050565b60006020820190506136ea6000830184613411565b92915050565b60006136fa61370b565b90506137068282613a60565b919050565b6000604051905090565b600067ffffffffffffffff8211156137305761372f613b62565b5b602082029050602081019050919050565b600067ffffffffffffffff82111561375c5761375b613b62565b5b602082029050602081019050919050565b600067ffffffffffffffff82111561378857613787613b62565b5b61379182613b91565b9050602081019050919050565b6000819050602082019050919050565b6000819050602082019050919050565b6000819050602082019050919050565b600081519050919050565b600081519050919050565b600081519050919050565b600081519050919050565b6000602082019050919050565b6000602082019050919050565b6000602082019050919050565b600082825260208201905092915050565b600082825260208201905092915050565b600082825260208201905092915050565b600082825260208201905092915050565b600061387082613980565b915061387b83613980565b9250817f7fffffffffffffffffffffffffffffffffffffffffffffffffffffffffffffff038313600083121516156138b6576138b5613b04565b5b817f80000000000000000000000000000000000000000000000000000000000000000383126000831216156138ee576138ed613b04565b5b828201905092915050565b6000613904826139aa565b915061390f836139aa565b9250827fffffffffffffffffffffffffffffffffffffffffffffffffffffffffffffffff0382111561394457613943613b04565b5b828201905092915050565b600061395a8261398a565b9050919050565b60008115159050919050565b600081905061397b82613cea565b919050565b6000819050919050565b600073ffffffffffffffffffffffffffffffffffffffff82169050919050565b6000819050919050565b600060ff82169050919050565b60006139cc826139d3565b9050919050565b60006139de8261398a565b9050919050565b60006139f0826139f7565b9050919050565b6000613a028261398a565b9050919050565b6000613a148261396d565b9050919050565b6000613a26826139aa565b9050919050565b60005b83811015613a4b578082015181840152602081019050613a30565b83811115613a5a576000848401525b50505050565b613a6982613b91565b810181811067ffffffffffffffff82111715613a8857613a87613b62565b5b80604052505050565b6000613a9c826139aa565b91507fffffffffffffffffffffffffffffffffffffffffffffffffffffffffffffffff821415613acf57613ace613b04565b5b600182019050919050565b6000613ae5826139b4565b915060ff821415613af957613af8613b04565b5b600182019050919050565b7f4e487b7100000000000000000000000000000000000000000000000000000000600052601160045260246000fd5b7f4e487b7100000000000000000000000000000000000000000000000000000000600052602160045260246000fd5b7f4e487b7100000000000000000000000000000000000000000000000000000000600052604160045260246000fd5b6000601f19601f8301169050919050565b7f5468697320696e7370656374696f6e20646f6e27742065786973747300000000600082015250565b7f5468697320696e7370656374696f6e206973206e6f74204f50454e0000000000600082015250565b7f596f75206e6f74206163636570746564207468697320696e7370656374696f6e600082015250565b7f52657175657374204f50454e206f722041434345505445440000000000000000600082015250565b7f416363657074207468697320696e7370656374696f6e206265666f7265000000600082015250565b7f526563656e7420696e7370656374696f6e000000000000000000000000000000600082015250565b7f506c656173652072656769737465722061732070726f64756365720000000000600082015250565b7f506c656173652072656769737465722061732061637469766973740000000000600082015250565b60048110613cfb57613cfa613b33565b5b50565b613d078161394f565b8114613d1257600080fd5b50565b613d1e81613961565b8114613d2957600080fd5b50565b60088110613d3957600080fd5b50565b613d4581613980565b8114613d5057600080fd5b50565b613d5c816139aa565b8114613d6757600080fd5b5056fea264697066735822122089eb6d91f0443bfa068b61190b01d748e1a7cd99f9fc6b2f9d4fb58b5886381464736f6c63430008020033",
  "immutableReferences": {},
  "source": "// SPDX-License-Identifier: GPL-3.0\r\npragma solidity >=0.7.0 <=0.9.0;\r\n\r\nimport \"./ProducerContract.sol\";\r\nimport \"./ActivistContract.sol\";\r\nimport \"./CategoryContract.sol\";\r\nimport \"./types/InspectionTypes.sol\";\r\n\r\n/**\r\n * @title SintropContract\r\n * @dev Sintrop application to certificated a rural producer\r\n */\r\ncontract Sintrop {\r\n  mapping(address => Inspection[]) internal userInspections;\r\n  mapping(uint256 => Inspection) internal inspections;\r\n\r\n  ActivistContract public activistContract;\r\n  ProducerContract public producerContract;\r\n\r\n  uint256 public inspectionsCount;\r\n  uint256 internal timeBetweenInspections;\r\n\r\n  constructor(\r\n    address activistContractAddress,\r\n    address producerContractAddress,\r\n    uint256 timeBetweenInspections_\r\n  ) {\r\n    activistContract = ActivistContract(activistContractAddress);\r\n    producerContract = ProducerContract(producerContractAddress);\r\n    timeBetweenInspections = timeBetweenInspections_;\r\n  }\r\n\r\n  /**\r\n   * @dev Allows the current user producer/activist get all yours inspections with status INSPECTED\r\n   */\r\n  function getInspectionsHistory() public view returns (Inspection[] memory) {\r\n    return userInspections[msg.sender];\r\n  }\r\n\r\n  /**\r\n   * @dev Allows the current user (producer) request a inspection.\r\n   */\r\n  function requestInspection()\r\n    public\r\n    requireProducer\r\n    requireNoInspectionsOpen\r\n    requireNoRecentInspection\r\n  {\r\n    newRequest();\r\n\r\n    producerContract.recentInspection(msg.sender, true);\r\n    producerContract.lastRequestAt(msg.sender, block.number);\r\n  }\r\n\r\n  function newRequest() internal {\r\n    uint256[][] memory isas;\r\n\r\n    Inspection memory inspection = Inspection(\r\n      inspectionsCount + 1,\r\n      InspectionStatus.OPEN,\r\n      msg.sender,\r\n      msg.sender,\r\n      isas,\r\n      0,\r\n      block.number,\r\n      0\r\n    );\r\n    inspections[inspection.id] = inspection;\r\n    inspectionsCount++;\r\n  }\r\n\r\n  /**\r\n   * @dev Allows the current user (activist) accept a inspection.\r\n   * @param inspectionId The id of the inspection that the activist want accept.\r\n   */\r\n  function acceptInspection(uint256 inspectionId)\r\n    public\r\n    requireActivist\r\n    requireInspectionExists(inspectionId)\r\n    returns (bool)\r\n  {\r\n    Inspection memory inspection = inspections[inspectionId];\r\n\r\n    require(inspection.status == InspectionStatus.OPEN, \"This inspection is not OPEN\");\r\n\r\n    inspection.status = InspectionStatus.ACCEPTED;\r\n    inspection.updatedAt = block.timestamp;\r\n    inspection.acceptedBy = msg.sender;\r\n    inspections[inspectionId] = inspection;\r\n\r\n    activistContract.recentInspection(msg.sender, true);\r\n\r\n    return true;\r\n  }\r\n\r\n  /**\r\n   * @dev Allow a activist realize a inspection and mark as INSPECTED\r\n   * @param inspectionId The id of the inspection to be realized\r\n   * @param isas The uint[][] of categoryId and isaIndex. Ex: isas = [ [categoryId, isaIndex], [categoryId, isaIndex] ]\r\n   */\r\n  function realizeInspection(uint256 inspectionId, uint256[][] memory isas)\r\n    public\r\n    requireActivist\r\n    requireInspectionExists(inspectionId)\r\n    requireInspectionAccepted(inspectionId)\r\n    requireInspectionOwner(inspectionId)\r\n    returns (bool)\r\n  {\r\n    Inspection memory inspection = inspections[inspectionId];\r\n\r\n    markAsRealized(inspection, isas);\r\n\r\n    afterRealizeInspection(inspection);\r\n\r\n    updateProducerIsa(inspection);\r\n\r\n    producerContract.approveProducerNewTokens(inspection.createdBy, 2000);\r\n\r\n    return true;\r\n  }\r\n\r\n  /**\r\n   * @dev Calculate the ISA of the inspection based in the category and the ISA level of the category\r\n   * @param inspection Receive the inspected inspection with your isas levels\r\n   */\r\n  function calculateIsa(Inspection memory inspection) internal pure returns (int256) {\r\n    uint256[][] memory isas = inspection.isas;\r\n    int256 isaScore = sumIsaScore(isas);\r\n    return isaScore;\r\n  }\r\n\r\n  /**\r\n   * @dev Sum the ISA score\r\n   * @param isas The isas values as list of [[categoryId, isaIndex], [categoryId, isaIndex]]\r\n   */\r\n  function sumIsaScore(uint256[][] memory isas) internal pure returns (int256) {\r\n    int256[5] memory points = [int256(10), int256(5), int256(0), int256(-5), int256(-10)];\r\n    int256 isaScore = 0;\r\n\r\n    for (uint8 i = 0; i < isas.length; i++) {\r\n      uint256 isaIndex = isas[i][1];\r\n      isaScore += points[isaIndex];\r\n    }\r\n    return isaScore;\r\n  }\r\n\r\n  function markAsRealized(Inspection memory inspection, uint256[][] memory isas) internal {\r\n    inspection.isas = isas;\r\n    inspection.status = InspectionStatus.INSPECTED;\r\n    inspection.updatedAt = block.timestamp;\r\n    inspection.isaScore = calculateIsa(inspection);\r\n    inspections[inspection.id] = inspection;\r\n  }\r\n\r\n  function updateProducerIsa(Inspection memory inspection) internal {\r\n    producerContract.updateIsaScore(inspection.createdBy, inspection.isaScore);\r\n  }\r\n\r\n  /**\r\n   * @dev Returns a inspection by id if that exists.\r\n   * @param id The id of the inspection to return.\r\n   */\r\n  function getInspection(uint256 id) public view returns (Inspection memory) {\r\n    return inspections[id];\r\n  }\r\n\r\n  /**\r\n   * @dev Returns all requested inspections.\r\n   */\r\n  function getInspections() public view returns (Inspection[] memory) {\r\n    Inspection[] memory inspectionsList = new Inspection[](inspectionsCount);\r\n\r\n    for (uint256 i = 0; i < inspectionsCount; i++) {\r\n      inspectionsList[i] = inspections[i + 1];\r\n    }\r\n\r\n    return inspectionsList;\r\n  }\r\n\r\n  /**\r\n   * @dev Returns all inpections status string.\r\n   */\r\n  function getInspectionsStatus()\r\n    public\r\n    pure\r\n    returns (\r\n      string memory,\r\n      string memory,\r\n      string memory,\r\n      string memory\r\n    )\r\n  {\r\n    return (\"OPEN\", \"ACCEPTED\", \"INSPECTED\", \"EXPIRED\");\r\n  }\r\n\r\n  /**\r\n   * @dev Check if an inspections exists in mapping.\r\n   * @param id The id of the inspection that the activist want accept.\r\n   */\r\n  function inspectionExists(uint256 id) public view returns (bool) {\r\n    return inspections[id].id >= 1;\r\n  }\r\n\r\n  /**\r\n   * @dev Inscrement producer and activist request action and mark both as no recent open requests and inspection\r\n   * @param inspection the inspected inspection\r\n   */\r\n  function afterRealizeInspection(Inspection memory inspection) internal {\r\n    address createdBy = inspection.createdBy;\r\n    address acceptedBy = inspection.acceptedBy;\r\n\r\n    // Increment actvist inspections and release to carry out new inspections\r\n    activistContract.recentInspection(acceptedBy, false);\r\n    activistContract.incrementRequests(acceptedBy);\r\n\r\n    // Increment producer requests and release to carry out new requests\r\n    producerContract.recentInspection(createdBy, false);\r\n    producerContract.incrementRequests(createdBy);\r\n\r\n    userInspections[createdBy].push(inspection);\r\n    userInspections[acceptedBy].push(inspection);\r\n  }\r\n\r\n  function isActivistOwner(uint256 inspectionId) internal view returns (bool) {\r\n    return inspections[inspectionId].acceptedBy == msg.sender;\r\n  }\r\n\r\n  function isAccepted(uint256 inspectionId) internal view returns (bool) {\r\n    return inspections[inspectionId].status == InspectionStatus.ACCEPTED;\r\n  }\r\n\r\n  function canRequestInspection() public view returns (bool) {\r\n    Producer memory producer = producerContract.getProducer(msg.sender);\r\n\r\n    uint256 lastRequestAt = producer.lastRequestAt;\r\n    bool canRequest = block.number > lastRequestAt + timeBetweenInspections;\r\n\r\n    return canRequest || lastRequestAt == 0;\r\n  }\r\n\r\n  // MODIFIERS\r\n\r\n  modifier requireActivist() {\r\n    require(activistContract.activistExists(msg.sender), \"Please register as activist\");\r\n    _;\r\n  }\r\n\r\n  modifier requireInspectionExists(uint256 inspectionId) {\r\n    require(inspectionExists(inspectionId), \"This inspection don't exists\");\r\n    _;\r\n  }\r\n\r\n  modifier requireProducer() {\r\n    require(producerContract.producerExists(msg.sender), \"Please register as producer\");\r\n    _;\r\n  }\r\n\r\n  modifier requireNoInspectionsOpen() {\r\n    require(!producerContract.getProducer(msg.sender).recentInspection, \"Request OPEN or ACCEPTED\");\r\n    _;\r\n  }\r\n\r\n  modifier requireNoRecentInspection() {\r\n    require(canRequestInspection(), \"Recent inspection\");\r\n    _;\r\n  }\r\n\r\n  modifier requireInspectionAccepted(uint256 inspectionId) {\r\n    require(isAccepted(inspectionId), \"Accept this inspection before\");\r\n    _;\r\n  }\r\n\r\n  modifier requireInspectionOwner(uint256 inspectionId) {\r\n    require(isActivistOwner(inspectionId), \"You not accepted this inspection\");\r\n    _;\r\n  }\r\n}\r\n",
  "sourcePath": "C:\\Users\\bruno.mestres\\Desktop\\core-contracts\\contracts\\Sintrop.sol",
  "compiler": {
    "name": "solc",
    "version": "0.8.2+commit.661d1103.Emscripten.clang"
  },
  "schemaVersion": "3.4.8",
  "updatedAt": "2022-07-28T12:01:13.427Z",
  "networkType": "ethereum",
  "devdoc": {
    "details": "Sintrop application to certificated a rural producer",
    "kind": "dev",
    "methods": {
      "acceptInspection(uint256)": {
        "details": "Allows the current user (activist) accept a inspection.",
        "params": {
          "inspectionId": "The id of the inspection that the activist want accept."
        }
      },
      "getInspection(uint256)": {
        "details": "Returns a inspection by id if that exists.",
        "params": {
          "id": "The id of the inspection to return."
        }
      },
      "getInspections()": {
        "details": "Returns all requested inspections."
      },
      "getInspectionsHistory()": {
        "details": "Allows the current user producer/activist get all yours inspections with status INSPECTED"
      },
      "getInspectionsStatus()": {
        "details": "Returns all inpections status string."
      },
      "inspectionExists(uint256)": {
        "details": "Check if an inspections exists in mapping.",
        "params": {
          "id": "The id of the inspection that the activist want accept."
        }
      },
      "realizeInspection(uint256,uint256[][])": {
        "details": "Allow a activist realize a inspection and mark as INSPECTED",
        "params": {
          "inspectionId": "The id of the inspection to be realized",
          "isas": "The uint[][] of categoryId and isaIndex. Ex: isas = [ [categoryId, isaIndex], [categoryId, isaIndex] ]"
        }
      },
      "requestInspection()": {
        "details": "Allows the current user (producer) request a inspection."
      }
    },
    "title": "SintropContract",
    "version": 1
  },
  "userdoc": {
    "kind": "user",
    "methods": {},
    "version": 1
  }
}