{
  "contractName": "UserContract",
  "abi": [
    {
      "anonymous": false,
      "inputs": [
        {
          "indexed": true,
          "internalType": "address",
          "name": "previousOwner",
          "type": "address"
        },
        {
          "indexed": true,
          "internalType": "address",
          "name": "newOwner",
          "type": "address"
        }
      ],
      "name": "OwnershipTransferred",
      "type": "event"
    },
    {
      "inputs": [
        {
          "internalType": "address",
          "name": "",
          "type": "address"
        }
      ],
      "name": "allowedCallers",
      "outputs": [
        {
          "internalType": "bool",
          "name": "",
          "type": "bool"
        }
      ],
      "stateMutability": "view",
      "type": "function",
      "constant": true
    },
    {
      "inputs": [
        {
          "internalType": "address",
          "name": "caller",
          "type": "address"
        }
      ],
      "name": "isAllowedCaller",
      "outputs": [
        {
          "internalType": "bool",
          "name": "",
          "type": "bool"
        }
      ],
      "stateMutability": "view",
      "type": "function",
      "constant": true
    },
    {
      "inputs": [
        {
          "internalType": "address",
          "name": "allowed",
          "type": "address"
        }
      ],
      "name": "newAllowedCaller",
      "outputs": [],
      "stateMutability": "nonpayable",
      "type": "function"
    },
    {
      "inputs": [],
      "name": "owner",
      "outputs": [
        {
          "internalType": "address",
          "name": "",
          "type": "address"
        }
      ],
      "stateMutability": "view",
      "type": "function",
      "constant": true
    },
    {
      "inputs": [],
      "name": "renounceOwnership",
      "outputs": [],
      "stateMutability": "nonpayable",
      "type": "function"
    },
    {
      "inputs": [
        {
          "internalType": "address",
          "name": "newOwner",
          "type": "address"
        }
      ],
      "name": "transferOwnership",
      "outputs": [],
      "stateMutability": "nonpayable",
      "type": "function"
    },
    {
      "inputs": [],
      "name": "usersCount",
      "outputs": [
        {
          "internalType": "uint256",
          "name": "",
          "type": "uint256"
        }
      ],
      "stateMutability": "view",
      "type": "function",
      "constant": true
    },
    {
      "inputs": [
        {
          "internalType": "address",
          "name": "addr",
          "type": "address"
        },
        {
          "internalType": "enum UserType",
          "name": "userType",
          "type": "uint8"
        }
      ],
      "name": "addUser",
      "outputs": [],
      "stateMutability": "nonpayable",
      "type": "function"
    },
    {
      "inputs": [
        {
          "internalType": "address",
          "name": "addr",
          "type": "address"
        }
      ],
      "name": "getUser",
      "outputs": [
        {
          "internalType": "enum UserType",
          "name": "",
          "type": "uint8"
        }
      ],
      "stateMutability": "view",
      "type": "function",
      "constant": true
    },
    {
      "inputs": [],
      "name": "userTypes",
      "outputs": [
        {
          "internalType": "string",
          "name": "",
          "type": "string"
        },
        {
          "internalType": "string",
          "name": "",
          "type": "string"
        },
        {
          "internalType": "string",
          "name": "",
          "type": "string"
        },
        {
          "internalType": "string",
          "name": "",
          "type": "string"
        },
        {
          "internalType": "string",
          "name": "",
          "type": "string"
        },
        {
          "internalType": "string",
          "name": "",
          "type": "string"
        },
        {
          "internalType": "string",
          "name": "",
          "type": "string"
        },
        {
          "internalType": "string",
          "name": "",
          "type": "string"
        }
      ],
      "stateMutability": "pure",
      "type": "function",
      "constant": true
    }
  ],
  "bytecode": "0x608060405234801561001057600080fd5b5061002d61002261003260201b60201c565b61003a60201b60201c565b6100fe565b600033905090565b60008060009054906101000a900473ffffffffffffffffffffffffffffffffffffffff169050816000806101000a81548173ffffffffffffffffffffffffffffffffffffffff021916908373ffffffffffffffffffffffffffffffffffffffff1602179055508173ffffffffffffffffffffffffffffffffffffffff168173ffffffffffffffffffffffffffffffffffffffff167f8be0079c531659141344cd1fd0a4f28419497f9722a3daafe3b4186f6b6457e060405160405180910390a35050565b610ffc8061010d6000396000f3fe608060405234801561001057600080fd5b506004361061009e5760003560e01c80638da5cb5b116100665780638da5cb5b146101505780638f93716f1461016e5780639c3eead91461018a578063a6801258146101a6578063f2fde38b146101d65761009e565b80632fadee0a146100a35780636ba13a82146100c85780636f77926b146100e6578063715018a6146101165780637b33415414610120575b600080fd5b6100ab6101f2565b6040516100bf989796959493929190610bfc565b60405180910390f35b6100d06103c8565b6040516100dd9190610d32565b60405180910390f35b61010060048036038101906100fb9190610a45565b6103ce565b60405161010d9190610be1565b60405180910390f35b61011e610424565b005b61013a60048036038101906101359190610a45565b6104ac565b6040516101479190610bc6565b60405180910390f35b6101586104cc565b6040516101659190610bab565b60405180910390f35b61018860048036038101906101839190610a45565b6104f5565b005b6101a4600480360381019061019f9190610a6e565b6105cb565b005b6101c060048036038101906101bb9190610a45565b610801565b6040516101cd9190610bc6565b60405180910390f35b6101f060048036038101906101eb9190610a45565b610857565b005b6060806060806060806060806040518060400160405280600981526020017f554e444546494e454400000000000000000000000000000000000000000000008152506040518060400160405280600881526020017f50524f44554345520000000000000000000000000000000000000000000000008152506040518060400160405280600881526020017f41435449564953540000000000000000000000000000000000000000000000008152506040518060400160405280600a81526020017f52455345415243484552000000000000000000000000000000000000000000008152506040518060400160405280600981526020017f444556454c4f50455200000000000000000000000000000000000000000000008152506040518060400160405280600781526020017f41445649534f52000000000000000000000000000000000000000000000000008152506040518060400160405280600b81526020017f434f4e5452494255544f520000000000000000000000000000000000000000008152506040518060400160405280600881526020017f494e564553544f52000000000000000000000000000000000000000000000000815250975097509750975097509750975097509091929394959697565b60035481565b6000600260008373ffffffffffffffffffffffffffffffffffffffff1673ffffffffffffffffffffffffffffffffffffffff16815260200190815260200160002060009054906101000a900460ff169050919050565b61042c61094f565b73ffffffffffffffffffffffffffffffffffffffff1661044a6104cc565b73ffffffffffffffffffffffffffffffffffffffff16146104a0576040517f08c379a000000000000000000000000000000000000000000000000000000000815260040161049790610cf2565b60405180910390fd5b6104aa6000610957565b565b60016020528060005260406000206000915054906101000a900460ff1681565b60008060009054906101000a900473ffffffffffffffffffffffffffffffffffffffff16905090565b6104fd61094f565b73ffffffffffffffffffffffffffffffffffffffff1661051b6104cc565b73ffffffffffffffffffffffffffffffffffffffff1614610571576040517f08c379a000000000000000000000000000000000000000000000000000000000815260040161056890610cf2565b60405180910390fd5b60018060008373ffffffffffffffffffffffffffffffffffffffff1673ffffffffffffffffffffffffffffffffffffffff16815260200190815260200160002060006101000a81548160ff02191690831515021790555050565b600160003373ffffffffffffffffffffffffffffffffffffffff1673ffffffffffffffffffffffffffffffffffffffff16815260200190815260200160002060009054906101000a900460ff16610657576040517f08c379a000000000000000000000000000000000000000000000000000000000815260040161064e90610d12565b60405180910390fd5b8160006007811115610692577f4e487b7100000000000000000000000000000000000000000000000000000000600052602160045260246000fd5b600260008373ffffffffffffffffffffffffffffffffffffffff1673ffffffffffffffffffffffffffffffffffffffff16815260200190815260200160002060009054906101000a900460ff166007811115610717577f4e487b7100000000000000000000000000000000000000000000000000000000600052602160045260246000fd5b14610757576040517f08c379a000000000000000000000000000000000000000000000000000000000815260040161074e90610cd2565b60405180910390fd5b81600260008573ffffffffffffffffffffffffffffffffffffffff1673ffffffffffffffffffffffffffffffffffffffff16815260200190815260200160002060006101000a81548160ff021916908360078111156107df577f4e487b7100000000000000000000000000000000000000000000000000000000600052602160045260246000fd5b0217905550600360008154809291906107f790610e09565b9190505550505050565b6000600160008373ffffffffffffffffffffffffffffffffffffffff1673ffffffffffffffffffffffffffffffffffffffff16815260200190815260200160002060009054906101000a900460ff169050919050565b61085f61094f565b73ffffffffffffffffffffffffffffffffffffffff1661087d6104cc565b73ffffffffffffffffffffffffffffffffffffffff16146108d3576040517f08c379a00000000000000000000000000000000000000000000000000000000081526004016108ca90610cf2565b60405180910390fd5b600073ffffffffffffffffffffffffffffffffffffffff168173ffffffffffffffffffffffffffffffffffffffff161415610943576040517f08c379a000000000000000000000000000000000000000000000000000000000815260040161093a90610cb2565b60405180910390fd5b61094c81610957565b50565b600033905090565b60008060009054906101000a900473ffffffffffffffffffffffffffffffffffffffff169050816000806101000a81548173ffffffffffffffffffffffffffffffffffffffff021916908373ffffffffffffffffffffffffffffffffffffffff1602179055508173ffffffffffffffffffffffffffffffffffffffff168173ffffffffffffffffffffffffffffffffffffffff167f8be0079c531659141344cd1fd0a4f28419497f9722a3daafe3b4186f6b6457e060405160405180910390a35050565b600081359050610a2a81610f9f565b92915050565b600081359050610a3f81610fb6565b92915050565b600060208284031215610a5757600080fd5b6000610a6584828501610a1b565b91505092915050565b60008060408385031215610a8157600080fd5b6000610a8f85828601610a1b565b9250506020610aa085828601610a30565b9150509250929050565b610ab381610d69565b82525050565b610ac281610d7b565b82525050565b610ad181610dc4565b82525050565b6000610ae282610d4d565b610aec8185610d58565b9350610afc818560208601610dd6565b610b0581610eb0565b840191505092915050565b6000610b1d602683610d58565b9150610b2882610ec1565b604082019050919050565b6000610b40601383610d58565b9150610b4b82610f10565b602082019050919050565b6000610b63602083610d58565b9150610b6e82610f39565b602082019050919050565b6000610b86601283610d58565b9150610b9182610f62565b602082019050919050565b610ba581610dba565b82525050565b6000602082019050610bc06000830184610aaa565b92915050565b6000602082019050610bdb6000830184610ab9565b92915050565b6000602082019050610bf66000830184610ac8565b92915050565b6000610100820190508181036000830152610c17818b610ad7565b90508181036020830152610c2b818a610ad7565b90508181036040830152610c3f8189610ad7565b90508181036060830152610c538188610ad7565b90508181036080830152610c678187610ad7565b905081810360a0830152610c7b8186610ad7565b905081810360c0830152610c8f8185610ad7565b905081810360e0830152610ca38184610ad7565b90509998505050505050505050565b60006020820190508181036000830152610ccb81610b10565b9050919050565b60006020820190508181036000830152610ceb81610b33565b9050919050565b60006020820190508181036000830152610d0b81610b56565b9050919050565b60006020820190508181036000830152610d2b81610b79565b9050919050565b6000602082019050610d476000830184610b9c565b92915050565b600081519050919050565b600082825260208201905092915050565b6000610d7482610d9a565b9050919050565b60008115159050919050565b6000819050610d9582610f8b565b919050565b600073ffffffffffffffffffffffffffffffffffffffff82169050919050565b6000819050919050565b6000610dcf82610d87565b9050919050565b60005b83811015610df4578082015181840152602081019050610dd9565b83811115610e03576000848401525b50505050565b6000610e1482610dba565b91507fffffffffffffffffffffffffffffffffffffffffffffffffffffffffffffffff821415610e4757610e46610e52565b5b600182019050919050565b7f4e487b7100000000000000000000000000000000000000000000000000000000600052601160045260246000fd5b7f4e487b7100000000000000000000000000000000000000000000000000000000600052602160045260246000fd5b6000601f19601f8301169050919050565b7f4f776e61626c653a206e6577206f776e657220697320746865207a65726f206160008201527f6464726573730000000000000000000000000000000000000000000000000000602082015250565b7f5573657220616c72656164792065786973747300000000000000000000000000600082015250565b7f4f776e61626c653a2063616c6c6572206973206e6f7420746865206f776e6572600082015250565b7f4e6f7420616c6c6f7765642063616c6c65720000000000000000000000000000600082015250565b60088110610f9c57610f9b610e81565b5b50565b610fa881610d69565b8114610fb357600080fd5b50565b60088110610fc357600080fd5b5056fea264697066735822122043e922c6e8176154614f3510e9045e770adafb3c2744264ce07d5950ac6358d664736f6c63430008020033",
  "immutableReferences": {},
  "source": "// SPDX-License-Identifier: GPL-3.0\npragma solidity >=0.7.0 <=0.9.0;\n\nimport \"@openzeppelin/contracts/access/Ownable.sol\";\nimport \"./types/UserTypes.sol\";\nimport \"./Callable.sol\";\n\n/**\n * @title UserContract\n * @dev This contract work as a centralized user's system, where all users has your userType here\n */\ncontract UserContract is Ownable, Callable {\n  mapping(address => UserType) internal users;\n\n  uint256 public usersCount;\n\n  /**\n   * @dev Add new user in the system\n   * @param addr The address of the user\n   * @param userType The type of the user - enum UserType\n   */\n  function addUser(address addr, UserType userType) public mustBeAllowedCaller mustNotExists(addr) {\n    users[addr] = userType;\n    usersCount++;\n  }\n\n  /**\n   * @dev Returns the user type if the user is registered\n   * @param addr the user address that want check if exists\n   */\n  function getUser(address addr) public view returns (UserType) {\n    return users[addr];\n  }\n\n  /**\n   * @dev Returns the enum UserType of the system\n   */\n  function userTypes()\n    public\n    pure\n    returns (\n      string memory,\n      string memory,\n      string memory,\n      string memory,\n      string memory,\n      string memory,\n      string memory,\n      string memory\n    )\n  {\n    return (\n      \"UNDEFINED\",\n      \"PRODUCER\",\n      \"ACTIVIST\",\n      \"RESEARCHER\",\n      \"DEVELOPER\",\n      \"ADVISOR\",\n      \"CONTRIBUTOR\",\n      \"INVESTOR\"\n    );\n  }\n\n  // MODIFIER\n\n  modifier mustNotExists(address addr) {\n    require(users[addr] == UserType.UNDEFINED, \"User already exists\");\n    _;\n  }\n}\n",
  "sourcePath": "C:\\Users\\Bruno\\OneDrive\\rea de Trabalho\\core-contracts-main\\contracts\\UserContract.sol",
  "compiler": {
    "name": "solc",
    "version": "0.8.2+commit.661d1103.Emscripten.clang"
  },
  "schemaVersion": "3.4.7",
  "updatedAt": "2022-07-15T22:15:56.782Z",
  "networkType": "ethereum",
  "devdoc": {
    "details": "This contract work as a centralized user's system, where all users has your userType here",
    "kind": "dev",
    "methods": {
      "addUser(address,uint8)": {
        "details": "Add new user in the system",
        "params": {
          "addr": "The address of the user",
          "userType": "The type of the user - enum UserType"
        }
      },
      "getUser(address)": {
        "details": "Returns the user type if the user is registered",
        "params": {
          "addr": "the user address that want check if exists"
        }
      },
      "owner()": {
        "details": "Returns the address of the current owner."
      },
      "renounceOwnership()": {
        "details": "Leaves the contract without owner. It will not be possible to call `onlyOwner` functions anymore. Can only be called by the current owner. NOTE: Renouncing ownership will leave the contract without an owner, thereby removing any functionality that is only available to the owner."
      },
      "transferOwnership(address)": {
        "details": "Transfers ownership of the contract to a new account (`newOwner`). Can only be called by the current owner."
      },
      "userTypes()": {
        "details": "Returns the enum UserType of the system"
      }
    },
    "title": "UserContract",
    "version": 1
  },
  "userdoc": {
    "kind": "user",
    "methods": {},
    "version": 1
  }
}